:020000040000fa
:080000000002040000000000f2
:020000040000fa
:04000800fa020000f8
:020000040000fa
:04000c00fa020000f4
:020000040000fa
:04001000fa020000f0
:020000040000fa
:04001400fa020000ec
:020000040000fa
:04001800fa020000e8
:020000040000fa
:04001c00fa020000e4
:020000040000fa
:04002000fa020000e0
:020000040000fa
:04002400fa020000dc
:020000040000fa
:04002800fa020000d8
:020000040000fa
:04002c00fa020000d4
:020000040000fa
:04003000fa020000d0
:020000040000fa
:04003400fa020000cc
:020000040000fa
:04003800fa020000c8
:020000040000fa
:04003c00fa020000c4
:020000040000fa
:04004000fa020000c0
:020000040000fa
:04004400fa020000bc
:020000040000fa
:04004800fa020000b8
:020000040000fa
:04004c00fa020000b4
:020000040000fa
:04005000fa020000b0
:020000040000fa
:04005400fa020000ac
:020000040000fa
:04005800fa020000a8
:020000040000fa
:04005c007e1c000006
:020000040000fa
:04006000fa020000a0
:020000040000fa
:04006400fa0200009c
:020000040000fa
:04006800fa02000098
:020000040000fa
:04006c00fa02000094
:020000040000fa
:04007000fa02000090
:020000040000fa
:04007400fa0200008c
:020000040000fa
:04007800fa02000088
:020000040000fa
:04007c00fa02000084
:020000040000fa
:04008000fa02000080
:020000040000fa
:04008400fa0200007c
:020000040000fa
:04008800fa02000078
:020000040000fa
:04008c00fa02000074
:020000040000fa
:04009000fa02000070
:020000040000fa
:04009400fa0200006c
:020000040000fa
:04009800fa02000068
:020000040000fa
:04009c00fa02000064
:020000040000fa
:0400a000fa02000060
:020000040000fa
:0400a400fa0200005c
:020000040000fa
:0400a800fa02000058
:020000040000fa
:0400ac00fa02000054
:020000040000fa
:0400b000fa02000050
:020000040000fa
:0400b400fa0200004c
:020000040000fa
:0400b800fa02000048
:020000040000fa
:0400bc00fa02000044
:020000040000fa
:0400c000fa02000040
:020000040000fa
:0400c400fa0200003c
:020000040000fa
:0400c800fa02000038
:020000040000fa
:0400cc00fa02000034
:020000040000fa
:0400d000fa02000030
:020000040000fa
:0400d400fa0200002c
:020000040000fa
:0400d800fa02000028
:020000040000fa
:0400dc00fa02000024
:020000040000fa
:0400e000fa02000020
:020000040000fa
:0400e400fa0200001c
:020000040000fa
:0400e800fa02000018
:020000040000fa
:0400ec00fa02000014
:020000040000fa
:0400f000fa02000010
:020000040000fa
:0400f400fa0200000c
:020000040000fa
:0400f800fa02000008
:020000040000fa
:0400fc00fa02000004
:020000040000fa
:04010000fa020000ff
:020000040000fa
:04010400fa020000fb
:020000040000fa
:04010800fa020000f7
:020000040000fa
:04010c00fa020000f3
:020000040000fa
:04011000fa020000ef
:020000040000fa
:04011400fa020000eb
:020000040000fa
:04011800fa020000e7
:020000040000fa
:04011c00fa020000e3
:020000040000fa
:04012000fa020000df
:020000040000fa
:04012400fa020000db
:020000040000fa
:04012800fa020000d7
:020000040000fa
:04012c00fa020000d3
:020000040000fa
:04013000fa020000cf
:020000040000fa
:04013400fa020000cb
:020000040000fa
:04013800fa020000c7
:020000040000fa
:04013c00fa020000c3
:020000040000fa
:04014000fa020000bf
:020000040000fa
:04014400fa020000bb
:020000040000fa
:04014800fa020000b7
:020000040000fa
:04014c00fa020000b3
:020000040000fa
:04015000fa020000af
:020000040000fa
:04015400fa020000ab
:020000040000fa
:04015800fa020000a7
:020000040000fa
:04015c00fa020000a3
:020000040000fa
:04016000fa0200009f
:020000040000fa
:04016400fa0200009b
:020000040000fa
:04016800fa02000097
:020000040000fa
:04016c00fa02000093
:020000040000fa
:04017000fa0200008f
:020000040000fa
:04017400fa0200008b
:020000040000fa
:04017800fa02000087
:020000040000fa
:04017c00fa02000083
:020000040000fa
:04018000fa0200007f
:020000040000fa
:04018400fa0200007b
:020000040000fa
:04018800fa02000077
:020000040000fa
:04018c00fa02000073
:020000040000fa
:04019000fa0200006f
:020000040000fa
:04019400fa0200006b
:020000040000fa
:04019800fa02000067
:020000040000fa
:04019c00fa02000063
:020000040000fa
:0401a000fa0200005f
:020000040000fa
:0401a400fa0200005b
:020000040000fa
:0401a800fa02000057
:020000040000fa
:0401ac00fa02000053
:020000040000fa
:0401b000fa0200004f
:020000040000fa
:0401b400fa0200004b
:020000040000fa
:0401b800fa02000047
:020000040000fa
:0401bc00fa02000043
:020000040000fa
:0401c000fa0200003f
:020000040000fa
:0401c400fa0200003b
:020000040000fa
:0401c800fa02000037
:020000040000fa
:0401cc00fa02000033
:020000040000fa
:0401d000fa0200002f
:020000040000fa
:0401d400fa0200002b
:020000040000fa
:0401d800fa02000027
:020000040000fa
:0401dc00fa02000023
:020000040000fa
:0401e000fa0200001f
:020000040000fa
:0401e400fa0200001b
:020000040000fa
:0401e800fa02000017
:020000040000fa
:0401ec00fa02000013
:020000040000fa
:0401f000fa0200000f
:020000040000fa
:0401f400fa0200000b
:020000040000fa
:0401f800fa02000007
:020000040000fa
:0401fc00fa02000003
:020000040000fa
:04020000fa020000fe
:020000040000fa
:04020400fa020000fa
:020000040000fa
:04020800fa020000f6
:020000040000fa
:04020c00fa020000f2
:020000040000fa
:04021000fa020000ee
:020000040000fa
:04021400fa020000ea
:020000040000fa
:04021800fa020000e6
:020000040000fa
:04021c00fa020000e2
:020000040000fa
:04022000fa020000de
:020000040000fa
:04022400fa020000da
:020000040000fa
:04022800fa020000d6
:020000040000fa
:04022c00fa020000d2
:020000040000fa
:04023000fa020000ce
:020000040000fa
:04023400fa020000ca
:020000040000fa
:04023800fa020000c6
:020000040000fa
:04023c00fa020000c2
:020000040000fa
:04024000fa020000be
:020000040000fa
:04024400fa020000ba
:020000040000fa
:04024800fa020000b6
:020000040000fa
:04024c00fa020000b2
:020000040000fa
:04025000fa020000ae
:020000040000fa
:04025400fa020000aa
:020000040000fa
:04025800fa020000a6
:020000040000fa
:04025c00fa020000a2
:020000040000fa
:04026000fa0200009e
:020000040000fa
:04026400fa0200009a
:020000040000fa
:100400000f0424000eff25000e01880000000000ec
:10041000000020000000e000020032000001200087
:100420002002880014000700cf0207000000e0004f
:1004300003003a0000d02100010020000200370034
:100440000000200001002000810f70000100320038
:100450000f000700000020000000e0000200320052
:10046000000002000000000046180200000000002a
:100470000040da000000fe00000720000000e0005d
:1004800002003200002020009001880000000600d9
:10049000a1028800800478000000eb001f003700f4
:1004a000e284440054a0b4009905ba00e2844400f8
:1004b00054a0b4009906ba00e284440054a0b400e9
:1004c0000006eb00476fde00fd07b200ae018800ba
:1004d000636ce10003003a000ad801000000eb0061
:1004e0000e003700606ce10008003a00004deb00a0
:1004f0000a05e800020039003420ec000af0a000f0
:100500008b05e900f9ff3e00040037006168e10057
:10051000010032000086eb000b00070019c7ba008b
:100520001905ba000e04e00003003a000a00e000da
:10053000dbff3a0000000600fe07b200ae028800b2
:100540008a047800f5ff37000cd0a300e20f4d00bd
:100550001c00390089027800354dba000a05e80010
:10056000020039003420ec000af0a0008b05e900fd
:100570000f003200254dba000a05e80002003900dc
:100580003420ec000af0a0008b05e90008003200de
:100590000c00e0000600320015cdba000a05e800a4
:1005a000020039003420ec000af0a0008b05e900bd
:1005b0008984e80054a0b4000b00e000e2ff3a0098
:1005c000000006009902ba00055d78008b05e9007d
:1005d000f7ff3200c82ade00055d78008b05e900d0
:1005e000f3ff32000c00e000f1ff320019ddba0029
:1005f000eeff37000040da000000fe003200f80095
:1006000001c0fe004600f8005000f8000220200063
:100610003202880002002800130020008019dd004b
:1006200002817100820288000100780001017800d7
:1006300026002000470020008301e9000380080015
:10064000070000000110e100040034001102be00a8
:1006500092087800e2307b000489be008780400069
:10066000121978005000f9004600f9003200f90034
:10067000000006003200f80001c0fe00821f780072
:10068000849fbe008a1f78004400f800040f2000f9
:1006900024028800010578000601c3000080e900fb
:1006a0000080080003000000000000000505f000c5
:1006b0000401f1003200cd000505f0001001f10049
:1006c0003200cd004400f9004f0578004f02be0013
:1006d0004f0078003200f90000000600889fbe003d
:1006e0008a9fbe008c9fbe008e1f78004400f800d9
:1006f000070f2000270288003200f800811f7800d1
:100700000f07780007f02f000338e100480032009f
:1007100003d0fe0004018000fdcc80000500250010
:1007200019002000804cdd008904d0000f854400b2
:100730000800310005055500060031008d84440095
:10074000040031008f84440002003100848654008c
:100750003000390019002000804cdd00130020001b
:1007600002047800800678008904d100424edd0042
:10077000010578000302e900048008002000000061
:10078000000000008a0546004218dd000902e90069
:100790000480080018000000000000004620c3008c
:1007a0003200f80001c0fe00000000003b025200d1
:1007b0003200f900df35c100080440001381c20097
:1007c0003200f80001c0fe0000000000ab825200c1
:1007d000264dc5003e85c400bb00cd00bb80cd00ca
:1007e0003a00ca002a80ca003200f9000700c90096
:1007f0000580c900ba00cd00ba80cd000a054600c8
:10080000020478008301d0008d06e900d6ff3c0089
:100810002f00370019002000804cdd000f04780005
:100820008906e9000d800900b21f780008017800f0
:1008300001c0fe0019002000804cdd0013002000e4
:1008400002047800800678008904d100424edd0061
:10085000010578000302e900048008001800000088
:10086000000000008a0546004218dd000902e90088
:100870000480080010000000000000004620c300b3
:100880003b025200df35c100080440001381c20062
:10089000ab825200264dc5003e85c400bb00cd0092
:1008a000bb80cd003a00ca002a80ca000700c900f8
:1008b0000580c900ba00cd00ba80cd000a05460007
:1008c000020478008301d0008d06e900deff3c00c1
:1008d0008e0778004f0078003200f9004400f900dc
:1008e0004f0778004f06be004f05be004f04be0004
:1008f00000000600f2874700889fbe008a9fbe0066
:100900008c9fbe008e1f780091b79f000205780073
:100910001c0020000066dd002200200011000900fc
:100920000206d800000678000000200001f823002d
:10093000bb0007009fb09700800878000001eb0023
:10094000920098006160b9007e0207000001be00bd
:10095000b0fd200091042400ec0107008004780021
:10096000010478000900780088007800e50107009c
:10097000c0b79f00b1b79f00e00f55009100320053
:100980000801be0003007800820078006c030700b5
:100990000005be000c83e900830033001fb0970000
:1009a00064004000f0b79f008a0678000b077800cb
:1009b000cfb09700e1b79f003fb09700d0b79f003e
:1009c0000001be00030078008200780086bf9f000f
:1009d00093000700ffb09700800878000d007800b2
:1009e0008e0078008e000700ffb0970090009800fe
:1009f000e4804000f1b79f00cfb197003fb197006e
:100a000003027800820278000401be006fb29700f2
:100a1000dfb297000400be00ac0207000004be0075
:100a20000a01be000d0278008e0278000400be00ac
:100a3000a60207000001be000800be004b0107002f
:100a4000a0b79f00010678004fb19700bfb1970093
:100a50000202be000401be000d0278008e02780082
:100a60000400be00990207008004780001047800a9
:100a70000a01be006fb29700dfb297000400be000b
:100a8000920207000801be0003027800820278008b
:100a90000401be00360107008006780001077800d7
:100aa0000fbb97000603e9003f003300afb097008b
:100ab000e1b79f00dcb79f00810178000c0178004e
:100ac000030078008200780086bf9f005400070072
:100ad000ffb09700800878000d0078008e00780045
:100ae0004f000700ffb0970090009800e48040009e
:100af000f1b79f00cfb197003fb197000302780094
:100b0000820278000401be006fb29700dfb2970046
:100b10000400be006d0207000004be000a01be0012
:100b20000d0278008e0278000400be006702070004
:100b30000001be000800be000c010700a0b79f0026
:100b4000010678004fb19700bfb197000202be00c6
:100b50000401be000d0278008e0278000400be0081
:100b60005a02070080047800010478000a01be00e0
:100b70006fb29700dfb297000400be005302070077
:100b80000801be0003027800820278000401be0062
:100b9000f700070080067800010778000fbb970078
:100ba0000603e900c1ff3b001fb097004f07780024
:100bb0004f06be004f05be004f04be002f01b1001e
:100bc000000006000801be000300780082007800e3
:100bd000db0207000005be000bf0a2006dff37002e
:100be0003200f80001c0fe00b10278000009eb00fd
:100bf0000002e90007003400b10178000328e10099
:100c000002003c0083027800040950000402e9005d
:100c1000f9ff3c00050078003200f90000000600f2
:100c2000ea874700889fbe008a9fbe008c9fbe0057
:100c30008e1f78000004be00020020000370240014
:100c40002202070080067800010678006011b800d3
:100c50000800be0098010700e00f50003b0035007f
:100c60000d0078008c007800bb010700940107009c
:100c70000003780001077800060078008e007800f5
:100c800086bf9f00af0107000004be0002002000e5
:100c900003f023000d020700f0b79f00e1b79f00ab
:100ca000ad0107000005be000801be000d00780080
:100cb0008c03780000027800870278000400be00f0
:100cc000aa000700800678000106780002002000d4
:100cd00003f023000d0278008c0278000400be00af
:100ce0007501070000017800e00f51007f0034001b
:100cf0000200200003f823000800be009c0007004b
:100d00006f01070000037800010778008601780072
:100d10000e0178000300780082007800f2ff2700bf
:100d2000820f5000e08f580002003400f0ff2700cf
:100d3000010020004f0778004f06be004f05be009f
:100d40004f04be00af00b100000006000d007800a7
:100d50008c007800e300070059010700f0b79f00fe
:100d6000010778008e007800760107000004be00bd
:100d70000d0178008c0178000800be007e0107009c
:100d800000017800e00f51000a003200020020004c
:100d900003f823000800be007400070048010700a4
:100da000f0b79f00010778008e007800650107000a
:100db0000004be000200200003f023000800be0073
:100dc000c2010700e0b79f00d1b79f006201070092
:100dd0000005be000801be000c03be00070278003b
:100de000860278000400be006000070080067800dc
:100df000010678000200200003f023000d027800b5
:100e00008c0278000400be002b010700000178006e
:100e1000e00f5100180034000200200003f8230006
:100e20000800be005200070025010700f0b79f0030
:100e300001077800ffb197000e01780003007800e9
:100e40008200780002002800f3ff2f00820f50007c
:100e5000838f5800b7ff3d000200be004f077800a7
:100e60004f06be004f05be004f04be00af00b100ec
:100e700000000600b5ff37000200200003f0230049
:100e80000c00be0001027800800278000400be0061
:100e90000701070000067800e00f5600e5ff3a0062
:100ea0000a01be00efb297005fb29700050078001c
:100eb000840078002d0007000001be002c00070010
:100ec000ff0007008c0f5000daff32000200200004
:100ed00003f823000800be0025000700f800070003
:100ee000f0b79f0001077800d2ff37000200200012
:100ef00003f023000c00be0001027800800278009d
:100f00000400be00ea000700000678000fbb97004f
:100f1000e00f56007dff3a000a01be00ffb29700c5
:100f20006fb2970005007800840078000f0007007a
:100f30000001be000e000700e10007000fbb970094
:100f40008c0f500071ff32000200200003f82300d4
:100f50000800be0006000700d90007000003780063
:100f60000107780069ff37000000050003f0a200c8
:100f7000889fbe008a9fbe008c1f78003b0107003f
:100f8000420133006450e1004f0032006420e10070
:100f90005200320003826c0007003b000905d000bc
:100fa0000306d000820f54000c065d0002003900d9
:100fb000020032008901780003067800858255001e
:100fc00004003d000003fd008103fd008502ea00ee
:100fd0008b854200840f720002003b00600010000d
:100fe000e08018006011b8000005eb007a28e100ed
:100ff0000a00390006007800c75ddd00f707b2007f
:10100000878075002d003700828171000a01780009
:10101000610560008180d1000080d3008502e90075
:10102000f9ff3b00060440008784480002003b00b3
:1010300060041400e0841c000988a300070032004b
:101040008a81710082817100610164008904d1008c
:101050000884d3008b05e800170037000978a30047
:1010600013003a000b00e000130034008b05e90088
:101070000804440089844c000a4474000978a300e1
:101080000d003a000b00e000070034008b05e9007a
:101090000804440089844c0001003a000b00200041
:1010a0000978a300f7ff32000001eb0002003700cf
:1010b000828171000a017800b10007000cf0a700de
:1010c00001f0a000fa0037006420e10002003a00bd
:1010d000838f6c00fa0033000801be000200be00de
:1010e000f30037000001eb004a0007000400320063
:1010f0000200200003f8230001f0a6009cff070077
:10110000000006000081eb0024013700889fbe002c
:101110008a9fbe008c1f7800d4000700db003300dc
:1011200003866c006450e1002e0032006420e10070
:10113000330032006150e1002f0032006120e100f5
:101140003100320085855500eb07b0000900200012
:1011500008042000050037000804440089844c007e
:101160000a0031000603430087834b00000153004f
:1011700081815b00f8ff33000203be000800a0007d
:101180000804440089844c00f6ff3900c639dd00ac
:101190008301730001003200130020008904d10094
:1011a0000884d3000998a300050032000800a700b6
:1011b0000300a0008904d1000884d3008b05e80057
:1011c0008904d1000884d3000001eb000281d20021
:1011d0006b00070001f0a1000cf0a70001f0a000d7
:1011e000b30037006420e100b50032000801be0002
:1011f0000200be00f7ff37006120e100b0003200be
:101200006000b800f3ff37000000200001f827005d
:10121000f0ff3700889fbe008a9fbe000003be001b
:101220007d000700850578008281520002002000c1
:101230006220e10004003a00f307b1000400350029
:101240007718e100040035000600be0014003700e6
:101250006000b8000f003700f50f2000faff2f00e4
:101260008502d1000a85d3008301e900fcff3b0021
:101270008184620000046500890f7400f2ff32006f
:101280008582ea000a85ea00818462000004650024
:101290003b00070007f0a70001f0a0000081eb0071
:1012a0000200e0004f05be004f04be000000060033
:1012b0001400200024013700f4ff2f002201370022
:1012c0000001be00540007000470a70003f0a10055
:1012d0006509b100160032000d0035006828e100f4
:1012e00006003500f0ff2f00f1ff27000300e000ab
:1012f00013003b0001002800000005000000400032
:10130000818048008502e900fcff3a0008003700b0
:10131000f88f420002003c008000eb000000050056
:101320008100d1000080d3008502e800fcff3a0074
:101330000300e00002003b0060001000e0801800a5
:10134000000006004f89de00820178001901370095
:101350006011b800270137000001eb00adff070066
:10136000040032000200200003f8230001f0a7006f
:10137000fefe07000000060004002000f200370017
:1013800081002000618055000b003d000b00200013
:1013900061fe2f000100e1001d0034008281710018
:1013a000610164008904d1000884d3000000e800d2
:1013b000faff3a0071002000610064000300700031
:1013c000020060000900320061044400e0844c0027
:1013d0000988a500050032008b05e8006808e100d7
:1013e00002003a008904d1000884d300f20f2000e3
:1013f0000258e10005003d00c75ddd00f907b200bd
:101400008980750008007800000006000bf82700ae
:101410008b00780000000500c70ade00f107b2006b
:10142000f50fb20008003200e1cf420002003200a6
:101430000170a00024000500810f7000010032003f
:101440000408050044000500810f700002003a0006
:10145000140005008502e9000000400081c048003a
:10146000fcff3b000170a000240005000004be004a
:10147000e9ff07000003be000405be000200be0035
:10148000e5ff0700844f7500000006000200be0063
:101490006450e100050036006420e10002003600df
:1014a0000968a30001003a000800be000160a00026
:1014b0004f0678004f05be004f04be000000060036
:1014c000f0ff2f00f1ff2700f9ff3700889fbe00d3
:1014d0008a9fbe008c1f7800e4ff0700ebff3300fb
:1014e00003866c006450e100240032006420e100b7
:1014f000270032006150e100220032006120e1004b
:10150000210032008b854200eb07b1000134b800a6
:10151000003ab8000804420089844a00013ab80041
:101520000030b8008880400009014a000400330000
:101530000000400081804800020149008b05e9005d
:10154000c909dd0083017000010032001300200092
:10155000c814de004814dd004709de001200b200a6
:10156000c808de000884700085ff070001f0a100b4
:101570000cf0a70001f0a000cdff37006120e100d2
:10158000cfff32000801be000200be00f7ff3700a7
:101590006150e100fcff3a00c9ff3700889fbe00a0
:1015a0008a9fbe008c9fbe00820578000004be00aa
:1015b00099ff07000800be006420e1000700390021
:1015c00002003a00f1ff2700f0ff2f000160a000a9
:1015d0001202200042838800550037006120e1009c
:1015e00003003a000b00a70001f823005000370069
:1015f00001f0a10002002100936424002cff0700e9
:101600000800be0004003500b2fd2000930c240049
:10161000a70007000004be000005eb000b00a600b9
:101620004f0dde0001f0a1000004be0032982f0033
:1016300023ea2300a5ff07000001eb0003f02300cd
:101640000b00a70003f8230049fe07001cff07005a
:101650000000a7000a00a2003aff07000b00e0000c
:10166000030032000200200003f023003ffe0700c9
:1016700001f0a2000006be00020020009304240036
:1016800092ff07000801be0039fe0700809fbe00e0
:101690000c00be0022a22a00d3a723008bff070064
:1016a0004f01be0032fe07000004be0001f0a100a1
:1016b0000200200003982300fdfe07000800be0082
:1016c000190035000001be0080ff07000006be00c3
:1016d000b2c52900e36223007cff070022222b0011
:1016e000f3942b0022fe07000c01be0077ff0700d9
:1016f000e273280083c023001dfe07000c01be001a
:1017000072ff070042aa2a00a3e22b0018fe07007e
:101710000c01be006dff07000801be006bff070053
:101720000801be0012fe07000a00a70001f0a20097
:101730004f06be004f05be004f04be00000006006d
:101740000001eb0095ff3700889fbe008a9fbe0016
:10175000841f780045ff07004f0078001100330018
:10176000f0ff2f00838f6c0006003b00040565002e
:101770000a00a7000800370009f0a60010002000aa
:1017800008003700820f5400838f5c00030039008b
:101790001000200001003e000000200009f0a7001a
:1017a0000000ea004f05be004f04be000000e0004c
:1017b00000000600881f7800030478000300e000a2
:1017c00007003d0060001000e08018006001190073
:1017d000e081190002003b0001f02d0003003700fa
:1017e0000400070008f0a70001f0a0004f047800f3
:1017f00000000600889fbe008a9fbe000082700025
:101800000402710004827100260032000004be0050
:101810000200be006011b8006b0920009502200094
:101820000182cf000a0039000541b1000082cf00db
:10183000070039000541b1000982cf0004003900da
:101840000541b1000882cf00010039000541b10017
:1018500005425200120032000a003b0082817100f2
:10186000610164008100d1000080d3008984d3002d
:101870000884d3008b05e8000442e800f7ff3a0033
:10188000070037000804440089844c000000480029
:10189000818048008b05e9000442e900f9ff3a0025
:1018a000b7fe07004f05be004f04be000000060053
:1018b0000400200000003700889fbe008a9fbe0001
:1018c0008c1f78004f26dd00e8fe0700effe330096
:1018d0006120e100430032006250e10041003e001f
:1018e0003e0039006420e1003c00320005825500d2
:1018f0000f003b000402e80038003a00800f53005c
:10190000818f5b00350034000800be0003f0a100a9
:1019100001f0a60003f0a0000cf0a70094fd070062
:10192000e3fe37000603430087834b000c46460066
:101930000005530081855b00020033000a03be00ee
:101940000c00a0000402e900f6ff3b0085057800ca
:101950000602430087824b0004003a006000b80092
:1019600009f0a70001f0a000d1fe370000025200ec
:1019700081825a000704e00004003300060343009c
:1019800087834b008b05e900faff370009057800d3
:101990000604be000203be006011b80078fe070016
:1019a000e00f5200e08f5a000700350002003c00b3
:1019b0000c08a300040032000601be0003f0a000e2
:1019c0000cf0a7006afd07000a85680001f0a1007d
:1019d0000af0a70001f0a000b5fe37000800be0025
:1019e000b3fe3700100220000cf0a60040838800f0
:0419f000b3fe37000b
:020000040000fa
:1019f400320e0000300e00003e0e00000100000018
:101a0400320e0000300e00003e0e00000300000005
:101a1400520e0000500e00005e0e00000000000098
:101a2400420e0000400e00004e0e000000000000b8
:101a3400420e0000400e00004e0e000002000000a6
:101a4400420e0000400e00004e0e00000400000094
:101a5400420e0000400e00004e0e00000600000082
:101a6400620e0000600e00006e0e00000600000012
:101a7400120e0000100e00001e0e000003000000f5
:101a8400120e0000100e00001e0e000001000000e7
:101a9400120e0000100e00001e0e000008000000d0
:101aa400120e0000100e00001e0e00000a000000be
:101ab400520e0000500e00005e0e000004000000f4
:101ac400120e0000100e00001e0e00000d0000009b
:020000040000fa
:101ad4000000fa000001eb0001002200b000200029
:101ae40083fb0700801b2000010020000200070088
:101af4000080fa00000006000400fa00889fbe007f
:101b0400008fbe00208523007144240090c3880008
:101b1400a1c388002085230071442400f0c38800f9
:101b240001c48800208523007144240050c4880027
:101b340061c488002085230071442400b0c4880057
:101b4400c1c4880060662600614c240010c588006a
:101b540021c5880060662600614c240070c5880099
:101b640081c5880060662600614c2400d0c58800c9
:101b7400e1c5880000872100a1cfb30001487800a7
:101b8400c0872100a1cfb3000148780080882100dc
:101b9400a1cfb3000148780040892100a1cfb30050
:101ba40001487800008a2100d1c7b30001487800b9
:101bb400c08a2100d1c7b30001487800808b21007e
:101bc400d1c7b300014878009e009000f03f200088
:101bd4008089b9001e007800e000b90000014100ce
:101be4009e007800f03f20000008b8000101410089
:101bf40082007800d5fd07000004be0090c3800079
:101c0400a1c3800002002000031024002efe070060
:101c14000001be000800be003bfd070062cd2a00a3
:101c2400f3f8230028fe070050c3880061c388002e
:101c34009e009000f03f20008089b9001e007800cb
:101c4400e000b900000141009e007800f03f200050
:101c54000008b8000101410082007800bbfd0700c4
:101c64000004be00f0c3800001c480000200200014
:101c74000310240014fe07000001be000800be008b
:101c840021fd070072882c00f3fb23000efe0700e1
:101c9400b0c38800c1c388009e009000f03f2000bc
:101ca4008089b9001e007800e000b90000014100fd
:101cb4009e007800f03f20000008b80001014100b8
:101cc40082007800a1fd07000004be0050c480001b
:101cd40061c480000200200003102400fafd070004
:101ce4000001be000800be0007fd07000001be00a1
:101cf4009efc07000200200003f023009bfc070069
:101d040010c4880021c488009e009000f03f200089
:101d14008089b9001e007800e000b900000141008c
:101d24009e007800f03f20000008b8000101410047
:101d34008200780085fd07000004be00b0c4800066
:101d4400c1c480000200200003102400defd07004f
:101d54000001be000800be00ebfc070082c02d009d
:101d6400a3fa2300d8fd07000001be007ffc070092
:101d740070c4880081c488009e009000f03f200059
:101d84008089b9001e007800e000b900000141001c
:101d94009e007800f03f20000008b80001014100d7
:101da4008200780069fd07000004be0010c58000b1
:101db40021c580000200200003102400c2fd07009a
:101dc4000001be000800be00cffc0700021f210076
:101dd40043fe2300bcfd07000001be0063fc0700b6
:101de400d0c48800e1c488009e009000f03f200029
:101df4008089b9001e007800e000b90000014100ac
:101e04009e007800f03f20000008b8000101410066
:101e1400820078004dfd07000004be0070c58000fc
:101e240081c580000200200003102400a6fd0700e5
:101e34000001be000800be00b3fc070062cd2a000a
:101e4400f3f82300a0fd070002002000030824008b
:101e54009dfd070030c5880041c588009e009000a4
:101e6400f03f20008089b9001e007800e000b9002e
:101e7400000141009e007800f03f20000008b800f7
:101e8400010141008200780030fd07000004be001b
:101e9400d0c58000e1c580000200200003102400aa
:101ea40089fd07000001be000800be0096fc070083
:101eb40072882c00f3fb230083fd0700020020003e
:101ec4000308240080fd070090c58800a1c5880090
:101ed4000019200070c3880000192000d0c38800b6
:101ee4000019200030c488000019200090c4880024
:101ef400201c2000f0c48800a028200050c58800c1
:101f040000322000b0c588004f04be000080fa00f3
:101f1400000006000a00fa00300798004107980004
:101f24000000eb00000f7800300037001e0078003e
:101f3400c200dd0020002600008040008000eb008d
:101f4400010878001e007800c200dd0000002600b1
:101f5400008040009000780000f02f00808f500037
:101f640007003d001e007800c200dd0000002600ce
:101f74000080400001002800010878001a003700a2
:101f84001e007800c200dd00000026000080400032
:101f940090007800f00f2000808f5000070034007c
:101fa4001e007800c200dd00000026000080400012
:101fb400f1ff2700010878000b0037001e007800ad
:101fc400c200dd0000002600008040001000780000
:101fd400c700dd001e0078004201dd00000026007d
:101fe40000004100010878001e0fe800f07f200087
:101ff4009e007800808f5000ccff340003f02f0047
:102004000200220001002600b0002000b2f90700ff
:1020140001002600b000200077f907004e0190006f
:10202400010026000040200091f907000000eb00a9
:10203400200798006400470000017800ce0090005b
:1020440000402000e5fa0700100798002e009000d9
:1020540000004000ce009000008040009000780016
:10206400700c2000808f5000020034002e0090007d
:10207400010037000000eb000080fa0000000600b9
:102084005a00fa00889fbe00202f9800322f980033
:10209400432f98008e007800c102b000130009009d
:1020a4008018eb000000eb00000f78000000eb004c
:1020b4001007980020032000200798008b003700a9
:1020c4002e00900000004000ae28900000804000e8
:1020d40010007800e90f5000790034002e009000c1
:1020e4000000e80000004000ae289000008040009e
:1020f400900078002e009000000040002e299000ef
:102104000000410010007800808f50006f003d00f7
:102114001e0090000000e0006e003a002e009000c7
:102124006a005000800078001e0078004200dd0044
:10213400c002b0006e007800808f50006700390044
:10214400b2828000c382800052079800630798001f
:102154000040eb00604f980010002000000f980032
:102164003c0037000e089000cf80de0074fc0700ae
:102174003e299000ce299000d3fc07000004be0045
:102184002e009000cf80de006dfc07000001be0031
:102194000800be0074fb0700300798004107980050
:1021a40018c0b3006011b8003e009000ce0090004b
:1021b4003efc07000000e000010035000044eb0095
:1021c4000804e0000f0032002e009000cf80de00f3
:1021d4005bfc07000004be000e089000cf80de0008
:1021e40057fc07003e299000ce299000b6fc07005a
:1021f4000001be000800be005bfb0700300798002a
:102204004107980018c0b3005e019000ee019000f1
:102214003e009000ce00900024fc07000000e00087
:10222400010035000044eb000804e0000600320021
:102234003e019000ce019000520798006307980079
:102244000e089000604f98000e0890000000e8000f
:10225400000f98000e089000e90f5000c1ff3400f1
:10226400ae0090001e0078004200dd00c002b00005
:10227400013778001e0078004200dd00e002b00063
:10228400ee499000037778001e0fe8001e007800e6
:10229400ea0f500007003a000000eb00600f9800be
:1022a4006e0890000000e800600f98006000b8001d
:1022b400e0003700100020001007980008003700e5
:1022c4000000eb0010079800050037000000000034
:1022d4000300370000000000010037000000000088
:1022e4002e0090000000e80020079800ae00900047
:1022f400f03f2000808f500071ff3400b2828000d4
:10230400c3828000120f9800230f98000040eb0056
:10231400605f98003e289000ce289000e7fb0700fd
:10232400800078004000200080017800110009003e
:102334008300d800e300b900001798000000eb0008
:1023440020079800350037002e0090000000e800b8
:102354004200dd00c002b0006e0078000000e00022
:10236400320032002e0090000000e8004200dd0040
:10237400c002b000ee0078002e0090004200dd00a4
:10238400c002b0006e007800008050008000eb00b6
:10239400eefb070010179800211798000e1090000c
:1023a400cf80de00e6fb070018c0b3001e119000ca
:1023b400ae119000bffb07000000e00001003c00ec
:1023c4000044eb000804e00010003a0018c0b30019
:1023d4001e099000ae0990001e109000ae109000ef
:1023e400b2fb07000000e000010035000044eb00f0
:1023f4000804e000060032001e119000ae119000a7
:10240400120f9800230f980001003700000000000d
:102414002e0090000000e800200798002e00900095
:10242400e90f5000c8ff340001003700000000002d
:102434000000eb00300f98000000eb00400f980004
:102444000000eb00500f98000000eb0030179800dc
:102454000000eb00200798004d0037002e0090008c
:102464004200dd00c002b0006e0078000000e00011
:102474004b0032002e0090004200dd00c002b0008c
:102484006e0078008000eb00b0fb07000001be0086
:102494001e089000ae0890006900070030179800ed
:1024a4003e109000cf80de00a5fb07001e099000bf
:1024b400ae09900004fc07000004be002e0090004a
:1024c4004200dd00c002b0006e0078008000eb0026
:1024d4009efb07000001be000800be00a2fa070030
:1024e40018c0b30002002000031224006ffb070091
:1024f4000000e000010035000044eb000804e000a7
:10250400200032002e0090004200dd00c002b00026
:102514006e0078008000eb008cfb07000004be0016
:102524003e109000cf80de0085fb07001e0990005e
:10253400ae099000e4fb07000001be000800be00e5
:1025440089fa070018c0b3000200200003122c000f
:1025540058fb07000000e00001003c000044eb00d1
:102564000804e000070032003e0890000000e80084
:10257400300f9800ae019000430f9800be109000f9
:10258400510f98002e0090000000e80020079800ea
:102594002e009000e90f5000b0ff34000100370016
:1025a400000000005e0890000000e00002003a0015
:1025b4006000b8001f0037003e089000e20f500092
:1025c40002003c006000b8001a0037004e0890007a
:1025d4004200dd00c002b0006e0078008000eb0015
:1025e4005afb07000004be005e089000cf80de00a6
:1025f40053fb07000001be000800be00c2fa07003a
:1026040040179800511798004e119000de11900069
:102614003e289000ce28900009000700cf80de00fd
:1026240047fb07000001be004e109000de10900032
:10263400b5fa07004f04be000080fa00000006004f
:102644001400fa00881f780060079800710798004a
:10265400020f9800130f9800b2828000c38280009a
:1026640022079800330798000040eb00004f9800c1
:102674001000200050079800300037005e009000e2
:10268400cf80de002efb07006e019000fe0190005b
:102694008dfb07000e0990009e09900032fa070096
:1026a400008fbe0018c0b3006011b8001e00be0049
:1026b400fefa07000000e000010035000044eb00d2
:1026c4000804e0000b0032005e009000cf80de00c2
:1026d4001bfb07006e019000fe0190007afb0700cf
:1026e4000001be000e0890009e0890001efa07002c
:1026f400008fbe0018c0b3002e019000be019000f0
:102704001e00be00e9fa07000000e00001003500e9
:102714000044eb000804e000050032001e01be0086
:1027240022079800330798005e009000004f98003d
:102734005e0090000000e800500798005e009000e2
:10274400e90f5000cdff34000e4890000080fb00dc
:102754004f0478000080fa00000006000000fa0030
:102764009070800000c0a100907088000080fa0082
:10277400000006000000fa009070800000c0a00075
:10278400907088000080fa00000006000200fa0041
:10279400004f78001e80fb00800040000092210062
:1027a400008040001000780010007800900078004d
:1027b4001e80fb0000014000009221000000410047
:1027c40010007800100078001000780010017800e4
:1027d4001e80fb0080014000009221000080410027
:1027e4001000780010007800604090000080fb002a
:1027f400330020000018dd000080ea0000006100c2
:10280400800878001e80fb008000400000922100b8
:1028140000804000100078001000900090007800c4
:102824001e80fb00000140000092210000004100d6
:10283400100078001000900010007800100178005b
:102844001e80fb00800140000092210000804100b6
:102854001000780010009000604090000080fb00a1
:10286400330020000018dd000080ea000000610051
:10287400800878000080fa00000006000400fa00d6
:10288400004f780011479800120798001e80fb0043
:102894008000400000922100008040001000780079
:1028a4009e009000210098001e80fb0080004000e4
:1028b4000092210000804000100078009e409000ab
:1028c400714098000080fa00000006000800fa0039
:1028d40060479800714798006e4090000080fb00ac
:1028e4008000400000922100008040001000780029
:1028f400100f78006e4090000080fb0080004000c4
:1029040000922100008040001000780090009000a8
:10291400110798006e4090000080fb00800040008a
:102924000092210000804000100078006600400002
:10293400200798002e009000104078008040e800a6
:102944002e009000014878006e4090000080fb004b
:1029540080004000009221000080400010007800b8
:1029640000489000fe40900000c05000704798005e
:102974007e4090000004e0009e0032002e00900093
:10298400104078000000fb00e40f50004d003200be
:10299400e40f50000c003c00e10f50002100320015
:1029a400e10f500003003c000000e0000f00320083
:1029b4008c003700e20f500027003200e30f500074
:1029c4003300320087003700e60f50005800320011
:1029d400e60f500049003500e70f50006200320056
:1029e400e80f50006d0032007e0037001e007800b2
:1029f400100078009e0078009100780011017800a2
:102a04009e007800e14090008180fb0033002000ac
:102a14008118dd008180ea008100610001087800ee
:102a2400110137001e007800100078009e00780025
:102a340091007800110178009e007800e140900038
:102a44008180fb00130020008118dd00828070006b
:102a540001087800040137001e009000100078007f
:102a64009e00900091007800110178009e00900073
:102a7400e14090008180fb00330020008118dd00dc
:102a84008180ea008100610001087800f6003700c7
:102a94001e009000100078009e00900091007800c5
:102aa400110178009e009000e14090008180fb00bd
:102ab400130020008118dd00828070000108780076
:102ac400e90037001e007800100078009e007800ae
:102ad40091007800110178009e007800e140900098
:102ae4008180fb00330020008118dd008180ea0032
:102af4008100610001087800db0037001e007800c7
:102b0400100078009e007800910078001101780090
:102b14009e007800e14090008180fb0023002000ab
:102b24008118dd008280700001087800ce00370033
:102b34001e009000100078009e0090009100780024
:102b4400110178009e009000e14090008180fb001c
:102b5400330020008118dd008180ea0081006100db
:102b640001087800c00037001e00900010007800b3
:102b74009e00900091007800110178009e00900062
:102b8400e14090008180fb00230020008118dd00db
:102b94008280700001087800b30037001e007800be
:102ba400100078009e0078009100780011017800f0
:102bb4009e007800e14090008180fb0033002000fb
:102bc4008118dd008180ea0081006100010878003d
:102bd4002e0090008040eb000148780000000000c7
:102be400a10037002e0090008040eb0001487800df
:102bf4009d0037002e009000104078000000fb007c
:102c0400e40f50004d003200e40f50000c003c0073
:102c1400e10f500021003200e10f500003003c009e
:102c24000000e0000f0032008b003700e20f50007c
:102c340027003200e30f50003300320086003700d3
:102c4400e60f500058003200e60f500049003500ee
:102c5400e70f500062003200e80f50006d003200b0
:102c64007d0037001e007800100078009e00780078
:102c740091007800110178009e007800e1409000f6
:102c84008180fb00330020008118dd008180ea0090
:102c94008100610001087800730037001e0078008d
:102ca400100078009e0078009100780011017800ef
:102cb4009e007800e14090008180fb00230020000a
:102cc4008118dd00828070000108780066003700fa
:102cd4001e009000100078009e0090009100780083
:102ce400110178009e009000e14090008180fb007b
:102cf400330020008118dd008180ea00810061003a
:102d040001087800580037001e0090001000780079
:102d14009e00900091007800110178009e009000c0
:102d2400e14090008180fb00130020008118dd0049
:102d340082807000010878004b0037001e00780084
:102d4400100078009e00780091007800110178004e
:102d54009e007800e14090008180fb003300200059
:102d64008118dd008180ea0081006100010878009b
:102d74003d0037001e007800100078009e007800a7
:102d840091007800110178009e007800e1409000e5
:102d94008180fb00130020008118dd008280700018
:102da40001087800300037001e0090001000780001
:102db4009e00900091007800110178009e00900020
:102dc400e14090008180fb00330020008118dd0089
:102dd4008180ea0081006100010878002200370048
:102de4001e009000100078009e0090009100780072
:102df400110178009e009000e14090008180fb006a
:102e0400230020008118dd00828070000108780012
:102e1400150037001e007800100078009e0078002e
:102e240091007800110178009e007800e140900044
:102e34008180fb00330020008118dd008180ea00de
:102e440081006100010878002e0090008040eb00b2
:102e540001487800040037002e0090008040eb0009
:102e640001487800000000006e4090000080fb00e4
:102e74008000400000922100008040001000780093
:102e8400a00090008100e900210098000080fa0071
:102e9400000006000400fa000040eb00004f780038
:102ea4005d0037001e80fb0080004000009221007e
:102eb400008040001000780090007800110798000e
:102ec4001e009000100090009e0090009100900061
:102ed400110178009e009000e14090008180fb0089
:102ee400330020008118dd008180ea008100610048
:102ef400010878001e009000200090009e009000c1
:102f0400a1009000110178009e009000e140900023
:102f14008180fb00330020008118dd008180ea00fd
:102f240081006100010878001e0090001000780004
:102f34009e00900091007800110178009e0090009e
:102f4400e14090008180fb00330020008118dd0007
:102f54008180ea0081006100010878001e80fb0086
:102f640080004000009221000080400010007800a2
:102f740090009000110798001e009000100090002f
:102f84009e00900091009000110178009e00900036
:102f9400e14090008180fb00330020008118dd00b7
:102fa4008180ea0081006100010878001e00900021
:102fb400200090009e009000a10090001101780074
:102fc4009e009000e14090008180fb0033002000cf
:102fd4008118dd008180ea00810061000108780029
:102fe4001e009000100078009e0090009100780070
:102ff400110178009e009000e14090008180fb0068
:10300400330020008118dd008180ea008100610026
:10301400010878001e4fe8001e407800e64f50007b
:10302400a0ff36008070800000c0a100807088007e
:10303400f070800000c0a100f070880080718000f2
:103044000070a10080718800f07180000070a10000
:10305400f07188000080fa00000006000200fa0007
:103064000000eb00000f7800010037001e0fe8009d
:10307400301f20009e007800808f5000fbff360038
:103084000080fa00000006001000fa00881f780093
:1030940073030700b7fd07005470ef000300370007
:1030a40000000000010037000000000054d0bf0001
:1030b400e24f5000af003a00a106210000002300b7
:1030c40094fb07005fd0bf000080fb00ec00b90058
:1030d40080007800a0862100008040001000be001f
:1030e4000001be00a0062100e5fb070020079800b0
:1030f4003107980018c0b3006011b8002e0090008a
:10310400be0090006bf807000000e00001003c00e6
:103114000044eb000804e0008b0032005fd0bf00e5
:103124000080fb00ec00b90080007800a08621003c
:10313400008040001000be002e019000be019000ef
:1031440089f70700400798005107980018c0b3009a
:1031540002002000031224004e009000de009000c4
:1031640054f807000000e00001003c000044eb00bc
:103174000804e0000b003a0018c0b300020020006d
:1031840003122c004e009000de00900047f8070068
:103194000000e000010035000044eb000804e000fa
:1031a4000300320010c0b30054f0b70065003700cc
:1031b40018c0b300a299290093e923004e0090009f
:1031c400de00900039f807000000e000010035003f
:1031d4000044eb000804e0000f00320018c0b30004
:1031e400a299290093e92b004e009000de00900084
:1031f40030f807000000e00001003c000044eb0050
:103204000804e000040032000040eb00b9000700ad
:103214005470ef004b00370018c0b3006011b800c1
:103224004e009000de00900020f807000000e0004f
:10323400010035000044eb000804e00020003200e7
:103244004cfd07005fd0bf000080fb00ec00b9001c
:10325400e4004000a08621000080400010007800b7
:103264000000ea00cf80de0035f807004e01900030
:10327400de01900094f8070010f80700600798003a
:103284000000eb00000f7800050037005fd0bf009e
:1032940011c0b3008dfd070070ff07001e0fe8008a
:1032a4006e0090009e007800808f5000f7ff35007c
:1032b4002afd070010c0b30054f0b7007bff3700ad
:1032c4002cfd07005fd0bf000080fb00ec00b900bc
:1032d400e4004000a0862100008040001000780037
:1032e400cf80de0016f807004e019000de0190004a
:1032f40075f80700f1f70700700798000000eb006d
:1033040010079800070037005fd0bf008040eb0033
:103314006efd070051ff07001e0090000000e8004a
:10332400100798009e0090007e009000808f50004f
:10333400f5ff350009fd070010c0b30054f0b700d5
:103344005aff370059ff370060cb80008302070023
:103354000000e00004003a00ad0007005370ef00e5
:103364005470ef0051ff370010c0b30054f0b700a1
:103374004eff370054d0bf000004e00048ff3a007d
:103384000040eb00820207000000e000060032006b
:1033940060d0bf000004e0000300320060d0bf0032
:1033a4000040e90060f0b70020c0b30078020700d5
:1033b4000000e0000600320060d0bf00e54f50007e
:1033c40003003e0060d0bf000040e80060f0b7009a
:1033d40060d0bf008000070010c0b3006c0207007b
:1033e4000000e00030ff32008900070060d0bf0019
:1033f4005ff0b70010c0b30053f0b70010c0b300c3
:1034040054f0b70060d0bf000080fb00ec00b900ae
:10341400e6004000a08621000080400010407800b3
:1034240066f0b70060d0bf000080fb00ec00b9007c
:10343400e8004000a0862100008040001000be008b
:10344400b0828800c182880018ff37000400fa00a7
:103454000040eb00004f7800210037001e80fb0085
:103464008000400000992100008040009000780016
:10347400110798001e009000100090009e0090001c
:1034840091009000110178009e009000e1409000ae
:103494008180fb00130020008118dd008180ea0098
:1034a40081006100010878001e0090002000900057
:1034b4009e009000a1009000110178009e009000f1
:1034c400e14090008180fb00130020008118dd00a2
:1034d4008180ea0081006100010878001e4fe80045
:1034e4001e407800e64f5000dcff36000080fa00f2
:1034f400000006000200fa00004f78001e80fb0066
:1035040080004000009921000080400010007800f5
:10351400900078001e80fb0000014000009921000b
:1035240000004100100078001000780010017800bd
:103534001e80fb00800140000099210000804100b2
:1035440010007800604090000080fb001300200011
:103554000018dd0002007000800878000080fa0086
:10356400000006000200fa00004f78001e80fb00f5
:103574008000400000992100008040001000780085
:10358400900078001e80fb0000014000009921009b
:10359400000041001000780010007800100178004d
:1035a4001e80fb0080014000009921000080410042
:1035b40010007800604090000080fb0013002000a1
:1035c4000018dd000080ea00000061008008780037
:1035d4000080fa00000006000200fa00004f7800a4
:1035e400270007001e407800c2ff07000080fa0091
:1035f400000006000200fa00004f78003d000700ba
:103604001e407800d7ff07000080fa000000060083
:103614000400fa000040eb00004f7800130037006c
:103624001e80fb00800040000099210000804000c3
:1036340090007800110798001e0090001000780098
:103644009e00900091007800110178009e00900087
:10365400e14090008180fb00130020008118dd0010
:1036640081006900010878001e4fe8001e407800c0
:10367400e64f5000eaff36000080fa000000060022
:103684000400fa000040eb00004f780014003700fb
:103694001e80fb0080004000009921000080400053
:1036a40090007800110798001e0090001000780028
:1036b4009e00900091007800110178009e00900017
:1036c400e14090008180fb00130020008118dd00a0
:1036d4008180ea0081006100010878001e4fe80043
:1036e4001e407800e64f5000e9ff36000080fa00e3
:1036f400000006000400fa000040eb00004f7800d0
:10370400130037001e80fb00800040000099210058
:103714000080400090007800110798001e0090007f
:10372400100078009e00900091007800110178004c
:103734009e009000e14090008180fb001300200077
:103744008118dd0082807000010878001e4fe800b7
:103754001e407800e64f5000eaff36000080fa0071
:10376400000006000000fa002f0007000200070016
:103774000080fa00000006000000fa001ecea80037
:1037840061e3a80061a3a900011b8000f0cf2f0012
:1037940000806000001b8800011b8000f0f12f00f6
:1037a40000806000001b88006083a9006063a9009a
:1037b4006043a900111b8000f0ff2100008060001d
:1037c400101b88006343a900111b8000f0cf2f0059
:1037d40000806000101b88006223a9006203a90016
:1037e40065e3a9006463ef007303a900411b800033
:1037f40000fe2f00008060006000b300401b8800c2
:10380400411b8000f00f2e008080600000602000cb
:1038140001007000401b880068e3a90069e3a90067
:103824000080fa00000006000000fa001e0ea80046
:10383400100ea80021e3a80021a3a9002143a80099
:1038440001198000f0cf2f0000806000001988006b
:103854002083a90001198000000e200001007000df
:10386400001988002043a80011198000f0ff2100ee
:1038740000806000101988002343a90011198000fa
:1038840030f82f0080806000c00320000100700029
:10389400101988002223a9002203a90025e3a90006
:1038a40021198000f00f2e0000806000201988008c
:1038b400d0c7b30024e3b7003303a9004119800043
:1038c40000fe2f000080600040198800411980002c
:1038d400f00f2e00008060004019880028e3a90042
:1038e40029e3a9002e23ef003023ef0021a8a8002c
:1038f4000080fa0000000600809fbe00821f78004e
:103904003200f8003400f80010002000a001880004
:103914000020200090018800000000000200fa004e
:10392400907180000070a0009071880054d0bf0096
:10393400e14f500027003a004132200091407800c6
:1039440066d0bf0080cf50000300320066d0bf00b5
:1039540024e3b7001f0037000000eb00000f7800dd
:1039640019003700d28180001e00780080004000da
:10397400009721000080400010007800900078003b
:1039840050802f0000804000800078004211dd004c
:10399400000026000000410001087800d08180006a
:1039a4000000e800d0818800d181800000802000e0
:1039b400808f500003003a003a30ef0020c0b3007b
:1039c40054f0b7001e0fe8001e007800ef0f5000ff
:1039d400e4ff340001a8a900907180000070a100e8
:1039e400907188000080fa003400f9003200f90078
:0c39f4004f0178004f00be0000400600ac
:020000040000fa
:103a00006a10000000080000800000005e10000046
:103a10000400000080000000da18000054000000dc
:103a200082000000fa8c02008d00000000000100fe
:103a3000000a8d00128d00000000000001001a0035
:103a40008d228d0000000000000100002a8d320050
:103a50008d00000000000000003a8d00428d000043
:103a60000000000000004a008d528d0000000000a0
:103a7000000000005a8d62008d000000000001006f
:103a800000da1800e418ee0018f8180002190c000b
:103a900019161900701900002000000082000000b3
:103aa000000302000304030006030800030a0300e6
:103ab0000c030e000310030012031400031603008e
:103ac00018031a00031c03001e030000003000004e
:103ad0004010000080000000381000001e000000b0
:103ae000800000006610000002000000820000005c
:103af0007d000000901900000e0000008200000010
:103b000000100800101010001810200010281000dd
:103b1000301000000010000038000000820000009b
:103b2000220e20000e2e0e000e0022000e200e008f
:103b30002e0e0d0000320e00300e3e000e00000072
:103b4000320e30000e3e0e000b0032000e300e0022
:103b50003e0e0a0000320e00300e3e000e0900003c
:103b6000320e30000e3e0e00080000002e1900003c
:103b70004200000082000000320e30000e3e0e00b7
:103b80003a0e060000c80000c80000000000000057
:103b9000000032000e300e003e0e3a000e0500000e
:103ba000c800c800000000000000000000120e0065
:103bb000100e1e000e1a0e000f00c80000c80000f4
:103bc00000000000000000002e19420019561900e4
:103bd0006a18000070000000800000006210000001
:103be00004000000820000006666460045000000f8
:103bf0005610000008000000800000000060000077
:103c000000200000800000000020000000100000e4
:103c1000800000009e1900000200000082000000e9
:103c20000004000068100000020000008000000096
:043c30000000000090
:020000040000fa
:103c34000400fa000040eb00004f78002c0037002d
:103c44001e80fb0080004000a09621000080400000
:103c540090007800110798001e009000100090005a
:103c64009e00900091009000110178009e00900049
:103c7400814890008180fb00130020008118dd0042
:103c840082807000010878001e00900020009000df
:103c94009e009000a1009000110178009e00900009
:103ca400814890008180fb00130020008118dd0012
:103cb4008180ea0081006100010878001e00900004
:103cc400300090009e009000b10090001101780037
:103cd4009e009000814890008180fb00130020002a
:103ce4008118dd0082807000010878001e4fe80012
:103cf4001e407800e24f5000d1ff36000080fa00e9
:103d0400000006000200fa00000f78001e00780090
:103d1400700090008000e9001e0078007100980097
:103d24001e007800700090000080fa000000060079
:103d34000200fa00000f78001e00780000089000ce
:103d44008000e9001e007800010898001e00780039
:103d5400000890000080fa00000006000200fa004b
:103d6400000f78001e0078001000780090007800a2
:103d74001e007800004890000080fb001200200024
:103d84000010dd00008060000080fa0000000600e2
:103d94000400fa00204798002e4090000080fb00a9
:103da40080004000a096210000804000100f7800a1
:103db4001e007800e9ff07000000e0001000320058
:103dc4001e007800d00090001e007800710098005a
:103dd4001e007800d6ff07000000e0001d003a0036
:103de4001e0078008040eb00215098001e007800ef
:103df400e00090001e0078000108980015003700cc
:103e04001e007800e00090001e0078000108980071
:103e14001e007800bbff07000000e0000d003a0020
:103e24001e007800205090000004e00005003a00d5
:103e34001e00780011c0b30021509800100020002b
:103e4400050037001e007800d00090001e007800a6
:103e5400710098000000eb000080fa0000000600ea
:103e64000000fa003ffe07000afc070070ff07008d
:103e740076fd070016f707000080fa000000060030
:103e84000000fa00a0022000303a8800213a8000a5
:103e9400f0f32f0000806000203a8800213a80006f
:103ea40000fe2f0000806000203a880032002000cd
:103eb40080072000a1092000337420008049780085
:103ec4008149780082497800103a80000001780026
:103ed4000200a0006004200071052000237420006b
:103ee4008049780081497800824978000000000008
:103ef400113a800000002700808060000000230049
:103f0400808f5000faff3a0000000000113a800050
:103f140000022000008060000000e000fbff32008f
:103f24000080fa0000000600f0cc880000000600c3
:020000040000fa
:0200000401f009
:04000800cfff000026
:020000040000fa
:0200000401f009
:04000c007affff0078
:020000040000fa
:0200000401f009
:040010005affff0094
:020000040000fa
:0200000401f009
:040014005fffff008b
:020000040000fa
:0200000401f009
:04001800ffffff00e7
:020000040000fa
:0200000401f009
:04001c00dfffff0003
:020000040000fa
:0200000401f009
:04002000cfffff000f
:00000001FF
