:020000040000fa
:080000000002040000000000f2
:020000040000fa
:04000800fa020000f8
:020000040000fa
:04000c00fa020000f4
:020000040000fa
:04001000fa020000f0
:020000040000fa
:04001400fa020000ec
:020000040000fa
:04001800fa020000e8
:020000040000fa
:04001c00fa020000e4
:020000040000fa
:04002000fa020000e0
:020000040000fa
:04002400fa020000dc
:020000040000fa
:04002800fa020000d8
:020000040000fa
:04002c00fa020000d4
:020000040000fa
:04003000fa020000d0
:020000040000fa
:04003400fa020000cc
:020000040000fa
:04003800fa020000c8
:020000040000fa
:04003c00fa020000c4
:020000040000fa
:04004000fa020000c0
:020000040000fa
:04004400fa020000bc
:020000040000fa
:04004800fa020000b8
:020000040000fa
:04004c00fa020000b4
:020000040000fa
:04005000fa020000b0
:020000040000fa
:04005400fa020000ac
:020000040000fa
:04005800fa020000a8
:020000040000fa
:04005c00fa020000a4
:020000040000fa
:04006000fa020000a0
:020000040000fa
:04006400fa0200009c
:020000040000fa
:04006800fa02000098
:020000040000fa
:04006c00fa02000094
:020000040000fa
:04007000fa02000090
:020000040000fa
:04007400fa0200008c
:020000040000fa
:04007800fa02000088
:020000040000fa
:04007c00fa02000084
:020000040000fa
:04008000fa02000080
:020000040000fa
:04008400fa0200007c
:020000040000fa
:04008800fa02000078
:020000040000fa
:04008c00fa02000074
:020000040000fa
:04009000fa02000070
:020000040000fa
:04009400fa0200006c
:020000040000fa
:04009800fa02000068
:020000040000fa
:04009c00fa02000064
:020000040000fa
:0400a000fa02000060
:020000040000fa
:0400a400fa0200005c
:020000040000fa
:0400a800fa02000058
:020000040000fa
:0400ac00fa02000054
:020000040000fa
:0400b000fa02000050
:020000040000fa
:0400b400fa0200004c
:020000040000fa
:0400b800fa02000048
:020000040000fa
:0400bc00fa02000044
:020000040000fa
:0400c000fa02000040
:020000040000fa
:0400c400fa0200003c
:020000040000fa
:0400c800fa02000038
:020000040000fa
:0400cc00fa02000034
:020000040000fa
:0400d000fa02000030
:020000040000fa
:0400d400fa0200002c
:020000040000fa
:0400d800fa02000028
:020000040000fa
:0400dc00fa02000024
:020000040000fa
:0400e000fa02000020
:020000040000fa
:0400e400fa0200001c
:020000040000fa
:0400e800fa02000018
:020000040000fa
:0400ec00fa02000014
:020000040000fa
:0400f000fa02000010
:020000040000fa
:0400f400fa0200000c
:020000040000fa
:0400f800fa02000008
:020000040000fa
:0400fc00fa02000004
:020000040000fa
:04010000fa020000ff
:020000040000fa
:04010400fa020000fb
:020000040000fa
:04010800fa020000f7
:020000040000fa
:04010c00fa020000f3
:020000040000fa
:04011000fa020000ef
:020000040000fa
:04011400fa020000eb
:020000040000fa
:04011800fa020000e7
:020000040000fa
:04011c00fa020000e3
:020000040000fa
:04012000fa020000df
:020000040000fa
:04012400fa020000db
:020000040000fa
:04012800fa020000d7
:020000040000fa
:04012c00fa020000d3
:020000040000fa
:04013000fa020000cf
:020000040000fa
:04013400fa020000cb
:020000040000fa
:04013800fa020000c7
:020000040000fa
:04013c00fa020000c3
:020000040000fa
:04014000fa020000bf
:020000040000fa
:04014400fa020000bb
:020000040000fa
:04014800fa020000b7
:020000040000fa
:04014c00fa020000b3
:020000040000fa
:04015000fa020000af
:020000040000fa
:04015400fa020000ab
:020000040000fa
:04015800fa020000a7
:020000040000fa
:04015c00fa020000a3
:020000040000fa
:04016000fa0200009f
:020000040000fa
:04016400fa0200009b
:020000040000fa
:04016800fa02000097
:020000040000fa
:04016c00fa02000093
:020000040000fa
:04017000fa0200008f
:020000040000fa
:04017400fa0200008b
:020000040000fa
:04017800fa02000087
:020000040000fa
:04017c00fa02000083
:020000040000fa
:04018000fa0200007f
:020000040000fa
:04018400fa0200007b
:020000040000fa
:04018800fa02000077
:020000040000fa
:04018c00fa02000073
:020000040000fa
:04019000fa0200006f
:020000040000fa
:04019400fa0200006b
:020000040000fa
:04019800fa02000067
:020000040000fa
:04019c00fa02000063
:020000040000fa
:0401a000fa0200005f
:020000040000fa
:0401a400fa0200005b
:020000040000fa
:0401a800fa02000057
:020000040000fa
:0401ac00fa02000053
:020000040000fa
:0401b000fa0200004f
:020000040000fa
:0401b400fa0200004b
:020000040000fa
:0401b800fa02000047
:020000040000fa
:0401bc00fa02000043
:020000040000fa
:0401c000fa0200003f
:020000040000fa
:0401c400fa0200003b
:020000040000fa
:0401c800fa02000037
:020000040000fa
:0401cc00fa02000033
:020000040000fa
:0401d000fa0200002f
:020000040000fa
:0401d400fa0200002b
:020000040000fa
:0401d800fa02000027
:020000040000fa
:0401dc00fa02000023
:020000040000fa
:0401e000fa0200001f
:020000040000fa
:0401e400fa0200001b
:020000040000fa
:0401e800fa02000017
:020000040000fa
:0401ec00fa02000013
:020000040000fa
:0401f000fa0200000f
:020000040000fa
:0401f400fa0200000b
:020000040000fa
:0401f800fa02000007
:020000040000fa
:0401fc00fa02000003
:020000040000fa
:04020000fa020000fe
:020000040000fa
:04020400fa020000fa
:020000040000fa
:04020800fa020000f6
:020000040000fa
:04020c00fa020000f2
:020000040000fa
:04021000fa020000ee
:020000040000fa
:04021400fa020000ea
:020000040000fa
:04021800fa020000e6
:020000040000fa
:04021c00fa020000e2
:020000040000fa
:04022000fa020000de
:020000040000fa
:04022400fa020000da
:020000040000fa
:04022800fa020000d6
:020000040000fa
:04022c00fa020000d2
:020000040000fa
:04023000fa020000ce
:020000040000fa
:04023400fa020000ca
:020000040000fa
:04023800fa020000c6
:020000040000fa
:04023c00fa020000c2
:020000040000fa
:04024000fa020000be
:020000040000fa
:04024400fa020000ba
:020000040000fa
:04024800fa020000b6
:020000040000fa
:04024c00fa020000b2
:020000040000fa
:04025000fa020000ae
:020000040000fa
:04025400fa020000aa
:020000040000fa
:04025800fa020000a6
:020000040000fa
:04025c00fa020000a2
:020000040000fa
:04026000fa0200009e
:020000040000fa
:04026400fa0200009a
:020000040000fa
:10040000ef0d21000eff27000e0188000000000004
:10041000000020000000e000020032000001200087
:100420002002880014000700740007000000e000ac
:1004300003003a00e0b42000010020000200370071
:100440000000200001002000810f70000100320038
:100450000f000700000020000000e0000200320052
:100460000000020000000000180c02000000000064
:100470000040da000000fe00000720000000e0005d
:1004800002003200002020009001880000000600d9
:10049000a1028800800478000000eb001f003700f4
:1004a000e284440054a0b4009905ba00e2844400f8
:1004b00054a0b4009906ba00e284440054a0b400e9
:1004c0000006eb00476fde00fd07b200ae018800ba
:1004d000636ce10003003a000ad801000000eb0061
:1004e0000e003700606ce10008003a00004deb00a0
:1004f0000a05e800020039003420ec000af0a000f0
:100500008b05e900f9ff3e00040037006168e10057
:10051000010032000086eb000b00070019c7ba008b
:100520001905ba000e04e00003003a000a00e000da
:10053000dbff3a0000000600fe07b200ae028800b2
:100540008a047800f5ff37000cd0a300e20f4d00bd
:100550001c00390089027800354dba000a05e80010
:10056000020039003420ec000af0a0008b05e900fd
:100570000f003200254dba000a05e80002003900dc
:100580003420ec000af0a0008b05e90008003200de
:100590000c00e0000600320015cdba000a05e800a4
:1005a000020039003420ec000af0a0008b05e900bd
:1005b0008984e80054a0b4000b00e000e2ff3a0098
:1005c000000006009902ba00055d78008b05e9007d
:1005d000f7ff3200c82ade00055d78008b05e900d0
:1005e000f3ff32000c00e000f1ff320019ddba0029
:1005f000eeff37000040da000000fe0000000500ba
:020000040000fa
:10060000320e0000300e00003e0e0000010000001f
:10061000320e0000300e00003e0e0000030000000d
:10062000520e0000500e00005e0e000000000000a0
:10063000420e0000400e00004e0e000000000000c0
:10064000420e0000400e00004e0e000002000000ae
:10065000420e0000400e00004e0e0000040000009c
:10066000420e0000400e00004e0e0000060000008a
:10067000620e0000600e00006e0e0000060000001a
:10068000120e0000100e00001e0e000003000000fd
:10069000120e0000100e00001e0e000001000000ef
:1006a000120e0000100e00001e0e000008000000d8
:1006b000120e0000100e00001e0e00000a000000c6
:1006c000520e0000500e00005e0e000004000000fc
:1006d000120e0000100e00001e0e00000d000000a3
:020000040000fa
:1006e0000000fa009070800000c0a10090708800a7
:1006f0000080fa00000006000000fa009070800000
:1007000000c0a000907088000080fa000000060081
:100710000200fa00004f78001e80fb0080004000bd
:1007200000082100008040001000780010007800d0
:10073000900078001e80fb000001400000082100ae
:1007400000004100100078001000780010007800d0
:10075000100178001e80fb0080014000000821008d
:100760000080410010007800100078006040900088
:100770000080fb00330020000018dd000080ea004c
:1007800000006100800878001e80fb0080004000af
:100790000008210000804000100078001000900048
:1007a000900078001e80fb0000014000000821003e
:1007b0000000410010007800100090001000780048
:1007c000100178001e80fb0080014000000821001d
:1007d0000080410010007800100090006040900000
:1007e0000080fb00330020000018dd000080ea00dc
:1007f00000006100800878000080fa000000060018
:100800000400fa00004f7800114798001207980082
:100810001e80fb0080004000000821000080400096
:10082000100078009e009000210098001e80fb00c0
:100830008000400000082100008040001000780087
:100840009e409000714098000080fa000000060071
:100850000800fa0060479800714798006e409000c9
:100860000080fb0080004000000821000080400064
:1008700010007800100f78006e4090000080fb00a0
:100880008000400000082100008040001000780037
:1008900090009000110798006e4090000080fb00cf
:1008a0008000400000082100008040001000780017
:1008b00066004000200798002e009000104078004d
:1008c0008040e8002e009000014878006e409000c3
:1008d0000080fb00800040000008210000804000f4
:1008e0001000780000489000fe40900000c05000ca
:1008f000704798007e4090000004e0009e003200a7
:100900002e009000104078000000fb00e40f500023
:100910004d003200e40f50000c003c00e10f50008d
:1009200021003200e10f500003003c000000e00015
:100930000f0032008c003700e20f50002700320019
:10094000e30f50003300320087003700e60f5000fd
:1009500058003200e60f500049003500e70f500004
:1009600062003200e80f50006d0032007e00370058
:100970001e007800100078009e007800910078003a
:10098000110178009e007800e14090008180fb001a
:10099000330020008118dd008180ea0081006100c1
:1009a00001087800110137001e007800100078005f
:1009b0009e00780091007800110178009e00780078
:1009c000e14090008180fb00130020008118dd00d1
:1009d0008280700001087800040137001e0090003a
:1009e000100078009e0090009100780011017800be
:1009f0009e009000e14090008180fb0033002000c9
:100a00008118dd008180ea00810061000108780022
:100a1000f60037001e009000100078009e00900045
:100a200091007800110178009e009000e140900054
:100a30008180fb00130020008118dd00828070009f
:100a400001087800e90037001e00780010007800e7
:100a50009e00780091007800110178009e007800d7
:100a6000e14090008180fb00330020008118dd0010
:100a70008180ea008100610001087800db00370016
:100a80001e007800100078009e0078009100780029
:100a9000110178009e007800e14090008180fb0009
:100aa000230020008118dd0082807000010878009a
:100ab000ce0037001e009000100078009e009000cd
:100ac00091007800110178009e009000e1409000b4
:100ad0008180fb00330020008118dd008180ea0066
:100ae0008100610001087800c00037001e009000fe
:100af000100078009e0090009100780011017800ad
:100b00009e009000e14090008180fb0023002000c7
:100b10008118dd008280700001087800b300370082
:100b20001e007800100078009e0078009100780088
:100b3000110178009e007800e14090008180fb0068
:100b4000330020008118dd008180ea00810061000f
:100b5000010878002e0090008040eb0001487800ea
:100b600000000000a10037002e0090008040eb0044
:100b7000014878009d0037002e009000104078005a
:100b80000000fb00e40f50004d003200e40f500065
:100b90000c003c00e10f500021003200e10f50003a
:100ba00003003c000000e0000f0032008b00370023
:100bb000e20f500027003200e30f500033003200f4
:100bc00086003700e60f500058003200e60f500054
:100bd00049003500e70f500062003200e80f500076
:100be0006d0032007d0037001e0078001000780094
:100bf0009e00780091007800110178009e00780036
:100c0000e14090008180fb00330020008118dd006e
:100c10008180ea00810061000108780073003700dc
:100c20001e007800100078009e0078009100780087
:100c3000110178009e007800e14090008180fb0067
:100c4000230020008118dd008280700001087800f8
:100c5000660037001e009000100078009e00900093
:100c600091007800110178009e009000e140900012
:100c70008180fb00330020008118dd008180ea00c4
:100c80008100610001087800580037001e009000c4
:100c9000100078009e00900091007800110178000b
:100ca0009e009000e14090008180fb001300200036
:100cb0008118dd0082807000010878004b00370049
:100cc0001e007800100078009e00780091007800e7
:100cd000110178009e007800e14090008180fb00c7
:100ce000330020008118dd008180ea00810061006e
:100cf000010878003d0037001e00780010007800e1
:100d00009e00780091007800110178009e00780024
:100d1000e14090008180fb00130020008118dd007d
:100d20008280700001087800300037001e009000bb
:100d3000100078009e00900091007800110178006a
:100d40009e009000e14090008180fb003300200075
:100d50008118dd008180ea008100610001087800cf
:100d6000220037001e009000100078009e009000c6
:100d700091007800110178009e009000e140900001
:100d80008180fb00230020008118dd00828070003c
:100d900001087800150037001e0078001000780068
:100da0009e00780091007800110178009e00780084
:100db000e14090008180fb00330020008118dd00bd
:100dc0008180ea0081006100010878002e00900017
:100dd0008040eb0001487800040037002e009000ae
:100de0008040eb0001487800000000006e40900059
:100df0000080fb00800040000008210000804000cf
:100e000010007800a00090008100e9002100980007
:100e10000080fa00000006000400fa000040eb0029
:100e2000004f78005d0037001e80fb00800040000e
:100e30000008210000804000100078009000780039
:100e4000110798001e009000100090009e00900076
:100e500091009000110178009e009000e140900008
:100e60008180fb00330020008118dd008180ea00d2
:100e700081006100010878001e00900020009000b1
:100e80009e009000a1009000110178009e0090004b
:100e9000e14090008180fb00330020008118dd00dc
:100ea0008180ea0081006100010878001e00900046
:100eb000100078009e0090009100780011017800e9
:100ec0009e009000e14090008180fb0033002000f4
:100ed0008118dd008180ea0081006100010878004e
:100ee0001e80fb00800040000008210000804000c0
:100ef0001000780090009000110798001e009000ec
:100f0000100090009e009000910090001101780068
:100f10009e009000e14090008180fb0033002000a3
:100f20008118dd008180ea008100610001087800fd
:100f30001e009000200090009e009000a1009000f4
:100f4000110178009e009000e14090008180fb003c
:100f5000330020008118dd008180ea0081006100fb
:100f6000010878001e009000100078009e0090009c
:100f700091007800110178009e009000e1409000ff
:100f80008180fb00330020008118dd008180ea00b1
:100f900081006100010878001e4fe8001e407800c3
:100fa000e64f5000a0ff36008070800000c0a10016
:100fb00080708800f070800000c0a100f070880090
:100fc0000080fa00000006000400fa000040eb0078
:100fd000004f7800210037001e80fb008000400099
:100fe000000d21000080400090007800110798005b
:100ff0001e009000100090009e0090009100900054
:10100000110178009e009000e14090008180fb007b
:10101000130020008118dd008180ea00810061005a
:10102000010878001e009000200090009e009000b3
:10103000a1009000110178009e009000e140900016
:101040008180fb00130020008118dd008180ea0010
:1010500081006100010878001e4fe8001e40780002
:10106000e64f5000dcff36000080fa00000006006a
:101070000200fa00004f78001e80fb008000400054
:10108000000d2100008040001000780090007800e2
:101090001e80fb0000014000000d21000000410007
:1010a0001000780010007800100178001e80fb000e
:1010b00080014000000d21000080410010007800f8
:1010c000604090000080fb00130020000018dd004d
:1010d00002007000800878000080fa00000006001e
:1010e0000200fa00004f78001e80fb0080004000e4
:1010f000000d210000804000100078009000780072
:101100001e80fb0000014000000d21000000410096
:101110001000780010007800100178001e80fb009d
:1011200080014000000d2100008041001000780087
:10113000604090000080fb00130020000018dd00dc
:101140000080ea0000006100800878000080fa005a
:10115000000006000200fa00004f78002700070098
:101160001e407800c2ff07000080fa000000060061
:101170000200fa00004f78003d0007001e40780092
:10118000d7ff07000080fa00000006000400fa0004
:101190000040eb00004f7800130037001e80fb007a
:1011a00080004000000d2100008040009000780089
:1011b000110798001e009000100078009e0090001b
:1011c00091007800110178009e009000e1409000ad
:1011d0008180fb00130020008118dd008100690080
:1011e000010878001e4fe8001e407800e64f5000ce
:1011f000eaff36000080fa00000006000400fa0052
:101200000040eb00004f7800140037001e80fb0008
:1012100080004000000d2100008040009000780018
:10122000110798001e009000100078009e009000aa
:1012300091007800110178009e009000e14090003c
:101240008180fb00130020008118dd008180ea000e
:1012500081006100010878001e4fe8001e40780000
:10126000e64f5000e9ff36000080fa00000006005b
:101270000400fa000040eb00004f78001300370034
:101280001e80fb0080004000000d21000080400017
:1012900090007800110798001e0090001000780060
:1012a0009e00900091007800110178009e0090004f
:1012b000e14090008180fb00130020008118dd00d8
:1012c00082807000010878001e4fe8001e40780000
:1012d000e64f5000eaff36000080fa0000000600ea
:1012e0000400fa000040eb00004f78002c003700ab
:1012f0001e80fb0080004000a00c21000080400008
:1013000090007800110798001e00900010009000d7
:101310009e00900091009000110178009e009000c6
:10132000814890008180fb00130020008118dd00bf
:1013300082807000010878001e009000200090005c
:101340009e009000a1009000110178009e00900086
:10135000814890008180fb00130020008118dd008f
:101360008180ea0081006100010878001e00900081
:10137000300090009e009000b100900011017800b4
:101380009e009000814890008180fb0013002000a7
:101390008118dd0082807000010878001e4fe8008f
:1013a0001e407800e24f5000d1ff36000080fa0066
:1013b000000006000200fa00000f78001e0078000e
:1013c000700090008000e9001e0078007100980015
:1013d0001e007800700090000080fa0000000600f7
:1013e0000200fa00000f78001e007800000890004c
:1013f0008000e9001e007800010898001e007800b7
:10140000000890000080fa00000006000200fa00c8
:10141000000f78001e00780010007800900078001f
:101420001e007800004890000080fb0012002000a1
:101430000010dd00008060000080fa00000006005f
:101440000400fa00204798002e4090000080fb0026
:1014500080004000a00c210000804000100f7800a8
:101460001e007800e9ff07000000e00010003200d5
:101470001e007800d00090001e00780071009800d7
:101480001e007800d6ff07000000e0001d003a00b3
:101490001e0078008040eb00215098001e0078006c
:1014a000e00090001e007800010898001500370049
:1014b0001e007800e00090001e00780001089800ef
:1014c0001e007800bbff07000000e0000d003a009e
:1014d0001e007800205090000004e00005003a0053
:1014e0001e00780011c0b3002150980010002000a9
:1014f000050037001e007800d00090001e00780024
:10150000710098000000eb000080fa000000060067
:101510000000fa002f000700020007000080fa0018
:10152000000006000000fa001ecea80061e3a8003b
:1015300061a3a900011b8000f0cf2f000080600094
:10154000001b8800011b8000f0f12f00008060006c
:10155000001b88006083a9006063a9006043a900a4
:10156000111b8000f0ff210000806000101b88002c
:101570006343a900111b8000f0cf2f0000806000a2
:10158000101b88006223a9006203a90065e3a9007b
:101590006463ef007303a900411b800000fe2f006d
:1015a000008060006000b300401b8800411b800089
:1015b000f00f2e00808060000060200001007000ad
:1015c000401b880068e3a90069e3a9000080fa00d5
:1015d000000006000000fa001e0ea80021e3a8008b
:1015e00021a3a9002143a80001198000f0cf2f00fa
:1015f00000806000001988002083a9000119800084
:10160000000e200001007000001988002043a8008f
:1016100011198000f0ff210000806000101988007f
:101620002343a9001119800030f82f0000806000ca
:10163000101988002223a9002203a90025e3a9008c
:1016400021198000f00f2e00808060000030200003
:10165000010070002019880080ccb30024e3b7009b
:101660003303a9004119800000fe2f0000806000b4
:101670004019880041198000f00f2e0000806000a2
:101680004019880028e3a90029e3a9002e23ef00d0
:0c1690003023ef000080fa00000006008c
:020000040000fa
:10169c003810000002000000800000003a1000002a
:1016ac00540000008200000000830800830000004a
:1016bc0000000100001083001883000000000000ef
:1016cc0000002000832883000000000000000000c0
:1016dc0030833800830000000000000000408300cd
:1016ec004883000000000000000050008358830075
:1016fc000000000000000000608368008300000010
:10170c0000000000003a100044104e001058100069
:10171c0062106c0010761000d01000000e0000005b
:10172c00820000000010080010101000181020009b
:10173c0010281000301000000010000038000000cd
:10174c0082000000220e20000e2e0e000e00220041
:10175c000e200e002e0e0d0000320e00300e3e003c
:10176c000e000000320e30000e3e0e000b00320058
:10177c000e300e003e0e0a0000320e00300e3e00ff
:10178c000e090000320e30000e3e0e000800000064
:10179c008e1000004200000082000000320e30006b
:1017ac000e3e0e003a0e060000140000140000005d
:1017bc0000000000000032000e300e003e0e3a0019
:1017cc000e050000140014000000000000000000d2
:1017dc0000120e00100e1e000e1a0e000f00140048
:1017ec000014000000000000000000008e10a20099
:0817fc0010b61000000000000f
:020000040000fa
:101804000200fa000000eb00000f7800010037002e
:101814001e0fe800b01220009e007800808f500058
:10182400fbff36000080fa00000006000400fa0006
:101834004b000700affb07000040eb00004f7800af
:101844000040eb00104798000040eb002047980050
:101854000300370000000000010037000000000012
:101864001e4078000004e0001d0032005086800015
:10187400e5fe07000000e00006003a009dfb0700bb
:1018840011c0b3001e409000f0fb0700dcff07000e
:101894000b00370070868000dbfe07000000e000cc
:1018a40006003a0093fb07008040eb001e409000c6
:1018b400e6fb0700d2ff07000100370087fb0700a3
:1018c40010c0b300ddfe07000000e000e1ff3200bd
:1018d4002dfe07000040eb00004f7800e0ff3700ca
:1018e4000040eb00d5fe07000000e00006003200d7
:1018f4002e4090000004e000030032002e409000cf
:101904000040e9002047980020c0b300cbfe070048
:101914000000e000060032002e409000e54f500029
:1019240003003e002e4090000040e800204798004d
:101934002e40900006fe070010c0b300bffe070053
:101944000000e000c5ff32000ffe070010c0b30026
:10195400004f7800ae40900011479800c0ff370058
:101964000000fa002bfd07005cfe070095fd070050
:081974000080fa0000000600eb
:020000040000fa
:0200000401f009
:04000800cfff000026
:020000040000fa
:0200000401f009
:04000c007affff0078
:020000040000fa
:0200000401f009
:040010009affff0054
:020000040000fa
:0200000401f009
:040014005fffff008b
:020000040000fa
:0200000401f009
:04001800ffffff00e7
:020000040000fa
:0200000401f009
:04001c00dfffff0003
:020000040000fa
:0200000401f009
:04002000cfffff000f
:00000001FF
