:020000040000fa
:080000000002040000000000f2
:020000040000fa
:04000800fa020000f8
:020000040000fa
:04000c00fa020000f4
:020000040000fa
:04001000fa020000f0
:020000040000fa
:04001400fa020000ec
:020000040000fa
:04001800fa020000e8
:020000040000fa
:04001c00fa020000e4
:020000040000fa
:04002000fa020000e0
:020000040000fa
:04002400fa020000dc
:020000040000fa
:04002800fa020000d8
:020000040000fa
:04002c00fa020000d4
:020000040000fa
:04003000fa020000d0
:020000040000fa
:04003400fa020000cc
:020000040000fa
:04003800fa020000c8
:020000040000fa
:04003c00fa020000c4
:020000040000fa
:04004000fa020000c0
:020000040000fa
:04004400fa020000bc
:020000040000fa
:04004800fa020000b8
:020000040000fa
:04004c00fa020000b4
:020000040000fa
:04005000fa020000b0
:020000040000fa
:04005400fa020000ac
:020000040000fa
:04005800fa020000a8
:020000040000fa
:04005c00fa020000a4
:020000040000fa
:04006000fa020000a0
:020000040000fa
:04006400fa0200009c
:020000040000fa
:04006800fa02000098
:020000040000fa
:04006c00fa02000094
:020000040000fa
:04007000fa02000090
:020000040000fa
:04007400fa0200008c
:020000040000fa
:04007800fa02000088
:020000040000fa
:04007c00fa02000084
:020000040000fa
:04008000fa02000080
:020000040000fa
:04008400fa0200007c
:020000040000fa
:04008800fa02000078
:020000040000fa
:04008c00fa02000074
:020000040000fa
:04009000fa02000070
:020000040000fa
:04009400fa0200006c
:020000040000fa
:04009800fa02000068
:020000040000fa
:04009c00fa02000064
:020000040000fa
:0400a000fa02000060
:020000040000fa
:0400a400fa0200005c
:020000040000fa
:0400a800fa02000058
:020000040000fa
:0400ac00fa02000054
:020000040000fa
:0400b000fa02000050
:020000040000fa
:0400b400fa0200004c
:020000040000fa
:0400b800fa02000048
:020000040000fa
:0400bc00fa02000044
:020000040000fa
:0400c000fa02000040
:020000040000fa
:0400c400fa0200003c
:020000040000fa
:0400c800fa02000038
:020000040000fa
:0400cc00fa02000034
:020000040000fa
:0400d000fa02000030
:020000040000fa
:0400d400fa0200002c
:020000040000fa
:0400d800fa02000028
:020000040000fa
:0400dc00fa02000024
:020000040000fa
:0400e000fa02000020
:020000040000fa
:0400e400fa0200001c
:020000040000fa
:0400e800fa02000018
:020000040000fa
:0400ec00fa02000014
:020000040000fa
:0400f000fa02000010
:020000040000fa
:0400f400fa0200000c
:020000040000fa
:0400f800fa02000008
:020000040000fa
:0400fc00fa02000004
:020000040000fa
:04010000fa020000ff
:020000040000fa
:04010400fa020000fb
:020000040000fa
:04010800fa020000f7
:020000040000fa
:04010c00fa020000f3
:020000040000fa
:04011000fa020000ef
:020000040000fa
:04011400fa020000eb
:020000040000fa
:04011800fa020000e7
:020000040000fa
:04011c00fa020000e3
:020000040000fa
:04012000fa020000df
:020000040000fa
:04012400fa020000db
:020000040000fa
:04012800fa020000d7
:020000040000fa
:04012c00fa020000d3
:020000040000fa
:04013000fa020000cf
:020000040000fa
:04013400fa020000cb
:020000040000fa
:04013800fa020000c7
:020000040000fa
:04013c00fa020000c3
:020000040000fa
:04014000fa020000bf
:020000040000fa
:04014400fa020000bb
:020000040000fa
:04014800fa020000b7
:020000040000fa
:04014c00fa020000b3
:020000040000fa
:04015000fa020000af
:020000040000fa
:04015400fa020000ab
:020000040000fa
:04015800fa020000a7
:020000040000fa
:04015c00fa020000a3
:020000040000fa
:04016000fa0200009f
:020000040000fa
:04016400fa0200009b
:020000040000fa
:04016800fa02000097
:020000040000fa
:04016c00fa02000093
:020000040000fa
:04017000fa0200008f
:020000040000fa
:04017400fa0200008b
:020000040000fa
:04017800fa02000087
:020000040000fa
:04017c00fa02000083
:020000040000fa
:04018000fa0200007f
:020000040000fa
:04018400fa0200007b
:020000040000fa
:04018800fa02000077
:020000040000fa
:04018c00fa02000073
:020000040000fa
:04019000fa0200006f
:020000040000fa
:04019400fa0200006b
:020000040000fa
:04019800fa02000067
:020000040000fa
:04019c00fa02000063
:020000040000fa
:0401a000fa0200005f
:020000040000fa
:0401a400fa0200005b
:020000040000fa
:0401a800fa02000057
:020000040000fa
:0401ac00fa02000053
:020000040000fa
:0401b000fa0200004f
:020000040000fa
:0401b400fa0200004b
:020000040000fa
:0401b800fa02000047
:020000040000fa
:0401bc00fa02000043
:020000040000fa
:0401c000fa0200003f
:020000040000fa
:0401c400fa0200003b
:020000040000fa
:0401c800fa02000037
:020000040000fa
:0401cc00fa02000033
:020000040000fa
:0401d000fa0200002f
:020000040000fa
:0401d400fa0200002b
:020000040000fa
:0401d800fa02000027
:020000040000fa
:0401dc00fa02000023
:020000040000fa
:0401e000fa0200001f
:020000040000fa
:0401e400fa0200001b
:020000040000fa
:0401e800fa02000017
:020000040000fa
:0401ec00fa02000013
:020000040000fa
:0401f000fa0200000f
:020000040000fa
:0401f400fa0200000b
:020000040000fa
:0401f800fa02000007
:020000040000fa
:0401fc00fa02000003
:020000040000fa
:04020000fa020000fe
:020000040000fa
:04020400fa020000fa
:020000040000fa
:04020800fa020000f6
:020000040000fa
:04020c00fa020000f2
:020000040000fa
:04021000fa020000ee
:020000040000fa
:04021400fa020000ea
:020000040000fa
:04021800fa020000e6
:020000040000fa
:04021c00fa020000e2
:020000040000fa
:04022000fa020000de
:020000040000fa
:04022400fa020000da
:020000040000fa
:04022800fa020000d6
:020000040000fa
:04022c00fa020000d2
:020000040000fa
:04023000fa020000ce
:020000040000fa
:04023400fa020000ca
:020000040000fa
:04023800fa020000c6
:020000040000fa
:04023c00fa020000c2
:020000040000fa
:04024000fa020000be
:020000040000fa
:04024400fa020000ba
:020000040000fa
:04024800fa020000b6
:020000040000fa
:04024c00fa020000b2
:020000040000fa
:04025000fa020000ae
:020000040000fa
:04025400fa020000aa
:020000040000fa
:04025800fa020000a6
:020000040000fa
:04025c00fa020000a2
:020000040000fa
:04026000fa0200009e
:020000040000fa
:04026400fa0200009a
:020000040000fa
:100400006f0521000eff27000e018800000000008c
:10041000000020000000e000020032000001200087
:100420002002880014000700740007000000e000ac
:1004300003003a00a07620000100200002003700ef
:100440000000200001002000810f70000100320038
:100450000f000700000020000000e0000200320052
:100460000000020000000000be03020000000000c7
:100470000040da000000fe00800a20000000e000da
:1004800002003200002020009001880000000600d9
:10049000a1028800800478000000eb001f003700f4
:1004a000e284440054a0b4009905ba00e2844400f8
:1004b00054a0b4009906ba00e284440054a0b400e9
:1004c0000006eb00476fde00fd07b200ae018800ba
:1004d000636ce10003003a000ad801000000eb0061
:1004e0000e003700606ce10008003a00004deb00a0
:1004f0000a05e800020039003420ec000af0a000f0
:100500008b05e900f9ff3e00040037006168e10057
:10051000010032000086eb000b00070019c7ba008b
:100520001905ba000e04e00003003a000a00e000da
:10053000dbff3a0000000600fe07b200ae028800b2
:100540008a047800f5ff37000cd0a300e20f4d00bd
:100550001c00390089027800354dba000a05e80010
:10056000020039003420ec000af0a0008b05e900fd
:100570000f003200254dba000a05e80002003900dc
:100580003420ec000af0a0008b05e90008003200de
:100590000c00e0000600320015cdba000a05e800a4
:1005a000020039003420ec000af0a0008b05e900bd
:1005b0008984e80054a0b4000b00e000e2ff3a0098
:1005c000000006009902ba00055d78008b05e9007d
:1005d000f7ff3200c82ade00055d78008b05e900d0
:1005e000f3ff32000c00e000f1ff320019ddba0029
:1005f000eeff37000040da000000fe0000000500ba
:020000040000fa
:10060000520e0000500e00005e0e000004000000bc
:10061000120e0000100e00001e0e00000e00000062
:10062000120e0000100e00001e0e00000800000058
:10063000120e0000100e00001e0e00000a00000046
:10064000120e0000100e00001e0e0000030000003d
:10065000120e0000100e00001e0e0000010000002f
:10066000420e0000400e00004e0e0000060000008a
:10067000620e0000600e00006e0e0000060000001a
:10068000420e0000400e00004e0e0000020000006e
:10069000420e0000400e00004e0e0000040000005c
:1006a000520e0000500e00005e0e00000000000020
:1006b000420e0000400e00004e0e0000020000003e
:1006c000320e0000300e00003e0e0000010000005f
:1006d000320e0000300e00003e0e0000030000004d
:1006e000220e0000200e00002e0e00000e00000062
:1006f000220e0000200e00002e0e00000d00000053
:10070000320e0000300e00003e0e0000000000001f
:10071000320e0000300e00003e0e00000b00000004
:10072000320e0000300e00003e0e00000a000000f5
:10073000320e0000300e00003e0e000009000000e6
:10074000320e0000300e00003e0e000008000000d7
:020000040000fa
:100750000200fa000000eb00000f780001003700f3
:100760001e0fe80070de2f009e007800808f500082
:10077000fbff36000080fa00000006000200fa00cd
:100780000000eb00000f78002e0037001e007800fc
:1007900080004000800421000080400010007800ac
:1007a00020009000008088000080800010009000f1
:1007b000018080009100900011017800018080008c
:1007c000e14090008180fb00130020008118dd00d3
:1007d0008180ea00810061000108780000808000cb
:1007e0002000900001808000a1009000110178009d
:1007f00001808000e14090008180fb001300200018
:100800008118dd008180ea00810061000108780024
:100810000080800010007800018080009100780046
:100820001101780001808000e14090008180fb0090
:10083000130020008118dd0082807000010878001c
:100840001e0fe8001e007800e60f5000cfff3400b6
:100850008170800000002800010070008070880016
:10086000d17080000000280001007000d070880066
:10087000f1708000f0ff270000806000f0708800b9
:10088000807180000050a00080718800d0718000cd
:100890000050a000d0718800f07180000050a100cd
:1008a000f0718800807180000060a0008071880075
:1008b000d07180000060a000d0718800f0718000cd
:1008c0000060a100f0718800a082800020009000ec
:1008d00000808800907080000000e0000d0035006e
:1008e0000080800010007800018080009100780076
:1008f0001101780001808000e14090008180fb00c0
:10090000130020008118dd0082807000010878004b
:100910000d0037000080800010007800018080000a
:10092000910078001101780001808000e140900082
:100930008180fb00130020008118dd008180ea0027
:100940008100610001087800908280002000900002
:10095000008088009171800000022000008060000b
:100960000000e0000d003a000080800010007800d8
:1009700001808000910078001101780001808000e2
:10098000e14090008180fb00130020008118dd0011
:1009900082807000010878000d0037000080800020
:1009a000100078000180800091007800110178002b
:1009b00001808000e14090008180fb001300200056
:1009c0008118dd008180ea00810061000108780063
:1009d000808280002000900000808800917180005b
:1009e00000042000008060000000e0000d003a00dc
:1009f0000080800010007800018080009100780065
:100a00001101780001808000e14090008180fb00ae
:100a1000130020008118dd0082807000010878003a
:100a2000a9ff37000080800010007800018080005e
:100a3000910078001101780001808000e140900071
:100a40008180fb00130020008118dd008180ea0016
:100a500081006100010878009bff37000400fa0064
:100a6000004f7800110798001e80fb0080004000b6
:100a70008004210000804000100078009e0090005b
:100a8000310098000080fa00000006000600fa001d
:100a9000404798004e4090000080fb0080004000de
:100aa0008004210000804000900078001107980029
:100ab0001e009000300090000000e0003300320083
:100ac0001e00900040009000640060000000e00004
:100ad000120032001e009000400090000000d10083
:100ae000614060000004a200e14060001e00900030
:100af0008180fb00e1806000818040004001900027
:100b00000210a10082807000410098001e00900039
:100b1000c00090000120a100410098001e0090003c
:100b200040009000620060000000e000030032001e
:100b30001e009000100f7800030037001e00900088
:100b400090009000010f78001e00780010007800df
:100b50009e00780091007800110178009e007800d6
:100b6000e14090008180fb00330020008118dd000f
:100b700081006900010878001e009000300090009c
:100b80008000e9001e009000310098000080fa000b
:100b9000000006000600fa000000eb00000f7800dd
:100ba000640037001e0078008000400080042100af
:100bb0000080400010007800900078001107980035
:100bc0001e009000100090009e0090009100900088
:100bd000110178009e009000e14090008180fb00b0
:100be000330020008118dd008180ea00810061006f
:100bf000010878001e009000200090009e009000e8
:100c0000a1009000110178009e009000e14090004a
:100c10008180fb00330020008118dd008180ea0024
:100c200081006100010878001e007800800040000b
:100c300080042100008040001000780090009000a7
:100c4000110798001e009000100090009e00900078
:100c500091009000110178009e009000e14090000a
:100c60008180fb00330020008118dd008180ea00d4
:100c700081006100010878001e00900020009000b3
:100c80009e009000a1009000110178009e0090004d
:100c9000e14090008180fb00330020008118dd00de
:100ca0008180ea0081006100010878001e00780060
:100cb0008000400080042100008040001000780087
:100cc000a0009000210798002e00900010009000d6
:100cd000ae0090009100900011017800ae009000ed
:100ce000e14090008180fb00130020008118dd00ae
:100cf0008180ea0081006100010878002e009000e8
:100d000020009000ae009000a1009000110178003a
:100d1000ae009000e14090008180fb0013002000b5
:100d20008118dd008180ea008100610001087800ff
:100d30001e0fe8001e007800e60f500099ff3400f7
:100d40000080fa00000006000000fa002f000700f3
:100d5000020007000080fa00000006000000fa0010
:100d60001ecea80061e3a80061a3a900011b8000ba
:100d7000f0cf2f0000806000001b8800011b800066
:100d8000f0f12f0000806000001b88006083a90044
:100d90006063a9006043a900111b8000f0ff2100df
:100da00000806000101b88006343a900111b8000b5
:100db000f0cf2f0000806000101b88006223a90084
:100dc0006203a90065e3a9006463ef007303a9004f
:100dd000411b800000fe2f00008060006000b30017
:100de000401b8800411b8000f00f2e0080806000b7
:100df0000060200001007000401b880068e3a9002b
:100e000069e3a9000080fa00000006000000fa0073
:100e10001e0ea80021e3a80021a3a9002143a800d9
:100e200001198000f0cf2f000080600000198800b9
:100e30002083a90001198000000e2000010070002d
:100e4000001988002043a80011198000f0ff21003c
:100e500000806000101988002343a9001119800048
:100e600030f82f0000806000101988002223a900ac
:100e70002203a90025e3a90021198000f00f2e000c
:100e80008080600000302000010070002019880080
:100e900080ccb30024e3b7003303a90041198000dc
:100ea00000fe2f000080600040198800411980007a
:100eb000f00f2e00008060004019880028e3a90090
:100ec00029e3a9002e23ef003023ef000080fa0071
:040ed0000000060018
:020000040000fa
:100ed400001000000200000080000000021000006a
:100ee4005400000082000000008308008370830027
:100ef40000000000001083001883780083000000c5
:100f0400000020008328830080830000000000008c
:100f14003083380083888300000000000040830091
:100f24004883900083000000000050008358830031
:100f340098830000000000006083680083a08300a1
:100f440000000000000210000c1016001020100019
:0c0f54002a103400103e100000000000c5
:020000040000fa
:100f60000000fa000bff07000080fa0000000600f6
:020000040000fa
:0200000401f009
:04000800cfff000026
:020000040000fa
:0200000401f009
:04000c007affff0078
:020000040000fa
:0200000401f009
:040010009affff0054
:020000040000fa
:0200000401f009
:040014005fffff008b
:020000040000fa
:0200000401f009
:04001800ffffff00e7
:020000040000fa
:0200000401f009
:04001c00dfffff0003
:020000040000fa
:0200000401f009
:04002000cfffff000f
:00000001FF
