:020000040000fa
:080000000002040000000000f2
:020000040000fa
:04000800fa020000f8
:020000040000fa
:04000c00fa020000f4
:020000040000fa
:04001000fa020000f0
:020000040000fa
:04001400fa020000ec
:020000040000fa
:04001800fa020000e8
:020000040000fa
:04001c00fa020000e4
:020000040000fa
:04002000fa020000e0
:020000040000fa
:04002400fa020000dc
:020000040000fa
:04002800fa020000d8
:020000040000fa
:04002c00fa020000d4
:020000040000fa
:04003000fa020000d0
:020000040000fa
:04003400fa020000cc
:020000040000fa
:04003800fa020000c8
:020000040000fa
:04003c00fa020000c4
:020000040000fa
:04004000fa020000c0
:020000040000fa
:04004400fa020000bc
:020000040000fa
:04004800fa020000b8
:020000040000fa
:04004c00fa020000b4
:020000040000fa
:04005000fa020000b0
:020000040000fa
:04005400fa020000ac
:020000040000fa
:04005800fa020000a8
:020000040000fa
:04005c009e0e0000f4
:020000040000fa
:04006000fa020000a0
:020000040000fa
:04006400fa0200009c
:020000040000fa
:04006800fa02000098
:020000040000fa
:04006c00fa02000094
:020000040000fa
:04007000fa02000090
:020000040000fa
:04007400fa0200008c
:020000040000fa
:04007800fa02000088
:020000040000fa
:04007c00fa02000084
:020000040000fa
:04008000fa02000080
:020000040000fa
:04008400fa0200007c
:020000040000fa
:04008800fa02000078
:020000040000fa
:04008c00fa02000074
:020000040000fa
:04009000fa02000070
:020000040000fa
:04009400fa0200006c
:020000040000fa
:04009800fa02000068
:020000040000fa
:04009c00fa02000064
:020000040000fa
:0400a000fa02000060
:020000040000fa
:0400a400fa0200005c
:020000040000fa
:0400a800fa02000058
:020000040000fa
:0400ac00fa02000054
:020000040000fa
:0400b000fa02000050
:020000040000fa
:0400b400fa0200004c
:020000040000fa
:0400b800fa02000048
:020000040000fa
:0400bc00fa02000044
:020000040000fa
:0400c000fa02000040
:020000040000fa
:0400c400fa0200003c
:020000040000fa
:0400c800fa02000038
:020000040000fa
:0400cc00fa02000034
:020000040000fa
:0400d000fa02000030
:020000040000fa
:0400d400fa0200002c
:020000040000fa
:0400d800fa02000028
:020000040000fa
:0400dc00fa02000024
:020000040000fa
:0400e000fa02000020
:020000040000fa
:0400e400fa0200001c
:020000040000fa
:0400e800fa02000018
:020000040000fa
:0400ec00fa02000014
:020000040000fa
:0400f000fa02000010
:020000040000fa
:0400f400fa0200000c
:020000040000fa
:0400f800fa02000008
:020000040000fa
:0400fc00fa02000004
:020000040000fa
:04010000fa020000ff
:020000040000fa
:04010400fa020000fb
:020000040000fa
:04010800fa020000f7
:020000040000fa
:04010c00fa020000f3
:020000040000fa
:04011000fa020000ef
:020000040000fa
:04011400fa020000eb
:020000040000fa
:04011800fa020000e7
:020000040000fa
:04011c00fa020000e3
:020000040000fa
:04012000fa020000df
:020000040000fa
:04012400fa020000db
:020000040000fa
:04012800fa020000d7
:020000040000fa
:04012c00fa020000d3
:020000040000fa
:04013000fa020000cf
:020000040000fa
:04013400fa020000cb
:020000040000fa
:04013800fa020000c7
:020000040000fa
:04013c00fa020000c3
:020000040000fa
:04014000fa020000bf
:020000040000fa
:04014400fa020000bb
:020000040000fa
:04014800fa020000b7
:020000040000fa
:04014c00fa020000b3
:020000040000fa
:04015000fa020000af
:020000040000fa
:04015400fa020000ab
:020000040000fa
:04015800fa020000a7
:020000040000fa
:04015c00fa020000a3
:020000040000fa
:04016000fa0200009f
:020000040000fa
:04016400fa0200009b
:020000040000fa
:04016800fa02000097
:020000040000fa
:04016c00fa02000093
:020000040000fa
:04017000fa0200008f
:020000040000fa
:04017400fa0200008b
:020000040000fa
:04017800fa02000087
:020000040000fa
:04017c00fa02000083
:020000040000fa
:04018000fa0200007f
:020000040000fa
:04018400fa0200007b
:020000040000fa
:04018800fa02000077
:020000040000fa
:04018c00fa02000073
:020000040000fa
:04019000fa0200006f
:020000040000fa
:04019400fa0200006b
:020000040000fa
:04019800fa02000067
:020000040000fa
:04019c00fa02000063
:020000040000fa
:0401a000fa0200005f
:020000040000fa
:0401a400fa0200005b
:020000040000fa
:0401a800fa02000057
:020000040000fa
:0401ac00fa02000053
:020000040000fa
:0401b000fa0200004f
:020000040000fa
:0401b400fa0200004b
:020000040000fa
:0401b800fa02000047
:020000040000fa
:0401bc00fa02000043
:020000040000fa
:0401c000fa0200003f
:020000040000fa
:0401c400fa0200003b
:020000040000fa
:0401c800fa02000037
:020000040000fa
:0401cc00fa02000033
:020000040000fa
:0401d000fa0200002f
:020000040000fa
:0401d400fa0200002b
:020000040000fa
:0401d800fa02000027
:020000040000fa
:0401dc00fa02000023
:020000040000fa
:0401e000fa0200001f
:020000040000fa
:0401e400fa0200001b
:020000040000fa
:0401e800fa02000017
:020000040000fa
:0401ec00fa02000013
:020000040000fa
:0401f000fa0200000f
:020000040000fa
:0401f400fa0200000b
:020000040000fa
:0401f800fa02000007
:020000040000fa
:0401fc00fa02000003
:020000040000fa
:04020000fa020000fe
:020000040000fa
:04020400fa020000fa
:020000040000fa
:04020800fa020000f6
:020000040000fa
:04020c00fa020000f2
:020000040000fa
:04021000fa020000ee
:020000040000fa
:04021400fa020000ea
:020000040000fa
:04021800fa020000e6
:020000040000fa
:04021c00fa020000e2
:020000040000fa
:04022000fa020000de
:020000040000fa
:04022400fa020000da
:020000040000fa
:04022800fa020000d6
:020000040000fa
:04022c00fa020000d2
:020000040000fa
:04023000fa020000ce
:020000040000fa
:04023400fa020000ca
:020000040000fa
:04023800fa020000c6
:020000040000fa
:04023c00fa020000c2
:020000040000fa
:04024000fa020000be
:020000040000fa
:04024400fa020000ba
:020000040000fa
:04024800fa020000b6
:020000040000fa
:04024c00fa020000b2
:020000040000fa
:04025000fa020000ae
:020000040000fa
:04025400fa020000aa
:020000040000fa
:04025800fa020000a6
:020000040000fa
:04025c00fa020000a2
:020000040000fa
:04026000fa0200009e
:020000040000fa
:04026400fa0200009a
:020000040000fa
:100400000f9521000eff27000e018800000000005c
:10041000000020000000e000020032000001200087
:100420002002880014000700740007000000e000ac
:1004300003003a00404e2100010020000200370076
:100440000000200001002000810f70000100320038
:100450000f000700000020000000e0000200320052
:1004600000000200000000009a10020000000000de
:100470000040da000000fe00000720000000e0005d
:1004800002003200002020009001880000000600d9
:10049000a1028800800478000000eb001f003700f4
:1004a000e284440054a0b4009905ba00e2844400f8
:1004b00054a0b4009906ba00e284440054a0b400e9
:1004c0000006eb00476fde00fd07b200ae018800ba
:1004d000636ce10003003a000ad801000000eb0061
:1004e0000e003700606ce10008003a00004deb00a0
:1004f0000a05e800020039003420ec000af0a000f0
:100500008b05e900f9ff3e00040037006168e10057
:10051000010032000086eb000b00070019c7ba008b
:100520001905ba000e04e00003003a000a00e000da
:10053000dbff3a0000000600fe07b200ae028800b2
:100540008a047800f5ff37000cd0a300e20f4d00bd
:100550001c00390089027800354dba000a05e80010
:10056000020039003420ec000af0a0008b05e900fd
:100570000f003200254dba000a05e80002003900dc
:100580003420ec000af0a0008b05e90008003200de
:100590000c00e0000600320015cdba000a05e800a4
:1005a000020039003420ec000af0a0008b05e900bd
:1005b0008984e80054a0b4000b00e000e2ff3a0098
:1005c000000006009902ba00055d78008b05e9007d
:1005d000f7ff3200c82ade00055d78008b05e900d0
:1005e000f3ff32000c00e000f1ff320019ddba0029
:1005f000eeff37000040da000000fe0000000500ba
:100600002800fa00889fbe008a9fbe008c9fbe0013
:1006100007067800878669000c003b000304780019
:100620008704780008f0a10009f0a100840f5000b1
:10063000858f5800860f5900890f5c000300330036
:100640000cf0a20001003a000cf0a100d700070056
:100650006400e1005f003200780147006408e100b7
:10066000610032006c014700748557003200be0003
:100670001201be003a04be001a05be001e0390001f
:10068000be0a90008503530006003d000004fd00f3
:100690008104fd000205fd008305fd008703ea00db
:1006a000050378000df8a300040032006004140074
:1006b000e0841c0060051d00e0851d006022b8007c
:1006c0007d0320000d38e1008006eb000b003900af
:1006d0004433dd00f300b2008301730039003700ba
:1006e000848272000d027800e10664008b85d100df
:1006f0000a85d3008984d3000884d3008703e900e6
:10070000f7ff3b0008004000898048000a014900cb
:100710008b81490004003b0060001000e08018005d
:1007200060011900e08119000358a300090032009c
:100730008d82720084827200610260008301d100a8
:100740000281d3008180d3000080d3000603e8003b
:100750001b0037000348a30017003a000600e00022
:10076000170034000603e9000d00a3000000480054
:100770008180480002014900838149000348a300a9
:100780000f003a000600e000090034000603e9000b
:100790000000400081804800020149008381490037
:1007a00001003a000003eb000348a300f5ff32000c
:1007b0006022b80002003700848272006182660005
:1007c0004e00070003f0a1000cf0a70003f0a0000a
:1007d0008a003700640147006408e10002003a0023
:1007e0000df8a30082003a003200be001201be00e4
:1007f00082003700889fbe008a9fbe008c1f780051
:10080000050107000c01330003866c006450e10011
:100810002e0032006420e100330032006150e1001c
:100820002f0032006120e100310032008585550043
:10083000eb07b00009002000080420000500370085
:100840000804440089844c000a0031000603430078
:1008500087834b000001530081815b00f8ff330068
:100860000203be000800a0000804440089844c0074
:10087000f6ff3900c639dd00830173000100320044
:10088000130020008904d1000884d3000998a30034
:10089000050032000800a7000300a0008904d10071
:1008a0000884d3008b05e8008904d1000884d300b4
:1008b0000001eb000281d2009c00070001f0a100c2
:1008c0000cf0a70001f0a000e40037006420e10074
:1008d000e60032000801be000200be00f7ff37004c
:1008e0006120e100e10032006000b800f3ff370052
:1008f0000000200001f82700f0ff3700180020005a
:1009000057002000080453000d003d0006002000a1
:1009100097fc2f000740e1001e0034008482720023
:10092000610260008301d1000281d3008180d30085
:100930000080d3000804e800f8ff3a0047002000d8
:100940006104600005047400040464000d003200ba
:1009500061004000e080480060014900e0814900fa
:1009600003b8a500070032000603e8006538e1007f
:1009700004003a008301d1000281d3008180d300ba
:100980000080d300f87f20000830e100030035002c
:10099000080378006000b8006011b8004433dd003f
:1009a000f300b200830173000000060068044700f2
:1009b0000294be000094be00fc0447008694be0072
:1009c0008494be00090078002e010700080078001a
:1009d0002c01070099007800814f70000b003b004c
:1009e0000800be00190107004f00b10003003700e6
:1009f000f3ff2700f2ff2f006110b9004f06be0081
:100a00004f05be004f04be000080fa000000060043
:100a1000810378006b0007000001be006000b80091
:100a20000478a30013003a006220e10015003e00a4
:100a30000d0039008301d1000281d3008180d300f1
:100a40008301d1000281d3008180d3008301d100d2
:100a50000281d3008180d3000538b000c42add00b4
:100a6000f300b2008381720007f0a70003f0a0003a
:100a700000000600f3ff2700f2ff2f006110b9000d
:100a8000fbff370003ff2700f7ff37001400fa00d1
:100a9000889fbe008a9fbe008c9fbe000004be00df
:100aa0000205be00680047000a90be000890be0024
:100ab000f40007000070a7000bf0a1000bf8a300e2
:100ac00016003a009e0290003043200080825200bf
:100ad000b0fe2f000028e1000d003c00b0fc2f000c
:100ae0000028e1000d0034001e0990008e089000df
:100af0007e0090000501b0000201d1008180d3008a
:100b00000080d3008502e800fbff3a00bbff3700fe
:100b10000100280000002000b8ff37006000b80086
:100b2000b6ff37006011b800fd00370081002000db
:100b3000618055000b003d000b00200061fe2f007e
:100b40000100e1001d003400828171006101640038
:100b50008904d1000884d3000000e800faff3a00bd
:100b6000710020006100640003007000020060005a
:100b70000900320061044400e0844c000988a500ab
:100b8000050032008b05e8006808e10002003a0029
:100b90008904d1000884d300f20f20000258e1003c
:100ba00005003d00c75ddd00f907b20089807500d2
:100bb00008007800000006000bf827008b00780082
:100bc00000000500c70ade00f107b200f50fb20011
:100bd00008003200e1cf4200020032000170a000a4
:100be00024000500810f7000010032000408050098
:100bf00044000500810f700002003a001400050057
:100c00008502e9000000400081c04800fcff3b0075
:100c10000170a000240005000004be00e9ff0700e9
:100c20000003be000405be000200be00e5ff070091
:100c3000844f7500000006000200be006450e10011
:100c4000050036006420e100020036000968a300b8
:100c500001003a000800be000160a0004f067800c5
:100c60004f05be004f04be0000000600f0ff2f003d
:100c7000f1ff2700f9ff37002800fa00889fbe0027
:100c80008a9fbe008c9fbe0003866b0047ff070053
:100c90000028a30064003a000128a30067003a007e
:100ca0000008a30062003a000108a30065003a00b2
:100cb0001e009000be08900081064000ed3fb1008c
:100cc000f4805700ee019000111ab8008e099000d0
:100cd000311bb8009e099000311cb800511db800ae
:100ce000f485570046000700fe0190003a00070017
:100cf0008b85e8003e0007008e0990004000070049
:100d0000ee019000340007008b85e80038000700f2
:100d10008e099000400007009e0990001b18b80043
:100d2000890440000a854800fe0190003400070055
:100d30008b85e80038000700ee01900030000700c6
:100d40008e0990001b18b800890440000a854800ed
:100d50000a98a30008003a000402420085824a0073
:100d600006034b0087834b0008044c0089844c0029
:100d70000a054d008d06e900848272008502730029
:100d80004c3add008502720001003200150020009f
:100d9000443ade001400b2004538de00cb45dd00e9
:100da0000b007000c540de00cb4ddd008b80700075
:100db0004549de00cb55dd000b017100c551de0059
:100dc0000d037800cdfe070003f0a1000cf0a70092
:100dd00003f0a00009ff37001b18b800850240008f
:100de00006834800e0834b0060044c000700370096
:100df0001b18b8000603400087834800faff37003d
:100e00001b18b8008703400008844800e0844c00a9
:100e100060054d00000006001b18b80008044000e3
:100e200089844800faff37000108a300f0fe3a0069
:100e30005800be005801be00e3ff37000008a300c1
:100e4000ebfe3a0009047800f9ff3700e482400025
:100e50001078a30007003200640240001178a3005c
:100e60003400be001401be00040032000330a700ad
:100e7000000006003500be001501be000330a000d2
:100e800000000600800078005002be005003be0043
:100e90004439de00f700b200f37f20000301610057
:100ea000090032000218e10016003a0085017200c4
:100eb00083017300838173000008200015003a004d
:100ec0004000200013003700850172008301730089
:100ed0008381730005003a0004a8be0006a8be0086
:100ee000100020000b0037000201e900040242005c
:100ef00085824a0006034b0087834b000748a30006
:100f0000f9ff32000740a00004a8be0006a8be00fa
:100f10002000200080009800920098000000060049
:100f2000889fbe008a9fbe0000827000040271008c
:100f300004827100260032000004be000200be00e0
:100f40006011b8006b092000950220000182cf00db
:100f50000a0039000541b1000082cf0007003900c6
:100f60000541b1000982cf00040039000541b100fc
:100f70000882cf00010039000541b100054252004e
:100f8000120032000a003b0082817100610164009e
:100f90008100d1000080d3008984d3000884d3006d
:100fa0008b05e8000442e800f7ff3a00070037002d
:100fb0000804440089844c000000480081804800f7
:100fc0008b05e9000442e900f9ff3a00d7fe07006b
:0c0fd0004f05be004f04be0000000600ec
:020000040000fa
:100fdc00320e0000300e00003e0e0000010000003a
:100fec00320e0000300e00003e0e00000300000028
:100ffc00520e0000500e00005e0e000000000000bb
:10100c00420e0000400e00004e0e000000000000da
:10101c00420e0000400e00004e0e000002000000c8
:10102c00420e0000400e00004e0e000004000000b6
:10103c00420e0000400e00004e0e000006000000a4
:10104c00620e0000600e00006e0e00000600000034
:10105c00120e0000100e00001e0e00000300000017
:10106c00120e0000100e00001e0e00000100000009
:10107c00120e0000100e00001e0e000008000000f2
:10108c00120e0000100e00001e0e00000a000000e0
:10109c00520e0000500e00005e0e00000400000016
:1010ac00120e0000100e00001e0e00000d000000bd
:020000040000fa
:1010bc000000fa009070800000c0a10090708800c1
:1010cc000080fa00000006000000fa00907080001a
:1010dc0000c0a000907088000080fa00000006009c
:1010ec000200fa00004f78001e80fb0080004000d8
:1010fc00208d210000804000100078001000780046
:10110c00900078001e80fb0000014000208d210023
:10111c0000004100100078001000780010007800ea
:10112c00100178001e80fb0080014000208d210002
:10113c0000804100100078001000780060409000a2
:10114c000080fb00330020000018dd000080ea0066
:10115c0000006100800878001e80fb0080004000c9
:10116c00208d2100008040001000780010009000bd
:10117c00900078001e80fb0000014000208d2100b3
:10118c000000410010007800100090001000780062
:10119c00100178001e80fb0080014000208d210092
:1011ac00008041001000780010009000604090001a
:1011bc000080fb00330020000018dd000080ea00f6
:1011cc0000006100800878000080fa000000060032
:1011dc000400fa00004f780011479800120798009d
:1011ec001e80fb0080004000208d2100008040000c
:1011fc00100078009e009000210098001e80fb00db
:10120c0080004000208d21000080400010007800fc
:10121c009e409000714098000080fa00000006008b
:10122c000800fa0060479800714798006e409000e3
:10123c000080fb0080004000208d210000804000d9
:10124c0010007800100f78006e4090000080fb00ba
:10125c0080004000208d21000080400010007800ac
:10126c0090009000110798006e4090000080fb00e9
:10127c0080004000208d210000804000100078008c
:10128c0066004000200798002e0090001040780067
:10129c008040e8002e009000014878006e409000dd
:1012ac000080fb0080004000208d21000080400069
:1012bc001000780000489000fe40900000c05000e4
:1012cc00704798007e4090000004e0009e003200c1
:1012dc002e009000104078000000fb00e40f50003e
:1012ec004d003200e40f50000c003c00e10f5000a8
:1012fc0021003200e10f500003003c000000e00030
:10130c000f0032008c003700e20f50002700320033
:10131c00e30f50003300320087003700e60f500017
:10132c0058003200e60f500049003500e70f50001e
:10133c0062003200e80f50006d0032007e00370072
:10134c001e007800100078009e0078009100780054
:10135c00110178009e007800e14090008180fb0034
:10136c00330020008118dd008180ea0081006100db
:10137c0001087800110137001e0078001000780079
:10138c009e00780091007800110178009e00780092
:10139c00e14090008180fb00130020008118dd00eb
:1013ac008280700001087800040137001e00900054
:1013bc00100078009e0090009100780011017800d8
:1013cc009e009000e14090008180fb0033002000e3
:1013dc008118dd008180ea0081006100010878003d
:1013ec00f60037001e009000100078009e00900060
:1013fc0091007800110178009e009000e14090006f
:10140c008180fb00130020008118dd0082807000b9
:10141c0001087800e90037001e0078001000780001
:10142c009e00780091007800110178009e007800f1
:10143c00e14090008180fb00330020008118dd002a
:10144c008180ea008100610001087800db00370030
:10145c001e007800100078009e0078009100780043
:10146c00110178009e007800e14090008180fb0023
:10147c00230020008118dd008280700001087800b4
:10148c00ce0037001e009000100078009e009000e7
:10149c0091007800110178009e009000e1409000ce
:1014ac008180fb00330020008118dd008180ea0080
:1014bc008100610001087800c00037001e00900018
:1014cc00100078009e0090009100780011017800c7
:1014dc009e009000e14090008180fb0023002000e2
:1014ec008118dd008280700001087800b30037009d
:1014fc001e007800100078009e00780091007800a3
:10150c00110178009e007800e14090008180fb0082
:10151c00330020008118dd008180ea008100610029
:10152c00010878002e0090008040eb000148780004
:10153c0000000000a10037002e0090008040eb005e
:10154c00014878009d0037002e0090001040780074
:10155c000000fb00e40f50004d003200e40f50007f
:10156c000c003c00e10f500021003200e10f500054
:10157c0003003c000000e0000f0032008b0037003d
:10158c00e20f500027003200e30f5000330032000e
:10159c0086003700e60f500058003200e60f50006e
:1015ac0049003500e70f500062003200e80f500090
:1015bc006d0032007d0037001e00780010007800ae
:1015cc009e00780091007800110178009e00780050
:1015dc00e14090008180fb00330020008118dd0089
:1015ec008180ea00810061000108780073003700f7
:1015fc001e007800100078009e00780091007800a2
:10160c00110178009e007800e14090008180fb0081
:10161c00230020008118dd00828070000108780012
:10162c00660037001e009000100078009e009000ad
:10163c0091007800110178009e009000e14090002c
:10164c008180fb00330020008118dd008180ea00de
:10165c008100610001087800580037001e009000de
:10166c00100078009e009000910078001101780025
:10167c009e009000e14090008180fb001300200050
:10168c008118dd0082807000010878004b00370063
:10169c001e007800100078009e0078009100780001
:1016ac00110178009e007800e14090008180fb00e1
:1016bc00330020008118dd008180ea008100610088
:1016cc00010878003d0037001e00780010007800fb
:1016dc009e00780091007800110178009e0078003f
:1016ec00e14090008180fb00130020008118dd0098
:1016fc008280700001087800300037001e009000d6
:10170c00100078009e009000910078001101780084
:10171c009e009000e14090008180fb00330020008f
:10172c008118dd008180ea008100610001087800e9
:10173c00220037001e009000100078009e009000e0
:10174c0091007800110178009e009000e14090001b
:10175c008180fb00230020008118dd008280700056
:10176c0001087800150037001e0078001000780082
:10177c009e00780091007800110178009e0078009e
:10178c00e14090008180fb00330020008118dd00d7
:10179c008180ea0081006100010878002e00900031
:1017ac008040eb0001487800040037002e009000c8
:1017bc008040eb0001487800000000006e40900073
:1017cc000080fb0080004000208d21000080400044
:1017dc0010007800a00090008100e9002100980022
:1017ec000080fa00000006000400fa000040eb0044
:1017fc00004f78005d0037001e80fb008000400029
:10180c00208d2100008040001000780090007800ae
:10181c00110798001e009000100090009e00900090
:10182c0091009000110178009e009000e140900022
:10183c008180fb00330020008118dd008180ea00ec
:10184c0081006100010878001e00900020009000cb
:10185c009e009000a1009000110178009e00900065
:10186c00e14090008180fb00330020008118dd00f6
:10187c008180ea0081006100010878001e00900060
:10188c00100078009e009000910078001101780003
:10189c009e009000e14090008180fb00330020000e
:1018ac008118dd008180ea00810061000108780068
:1018bc001e80fb0080004000208d21000080400035
:1018cc001000780090009000110798001e00900006
:1018dc00100090009e009000910090001101780083
:1018ec009e009000e14090008180fb0033002000be
:1018fc008118dd008180ea00810061000108780018
:10190c001e009000200090009e009000a10090000e
:10191c00110178009e009000e14090008180fb0056
:10192c00330020008118dd008180ea008100610015
:10193c00010878001e009000100078009e009000b6
:10194c0091007800110178009e009000e140900019
:10195c008180fb00330020008118dd008180ea00cb
:10196c0081006100010878001e4fe8001e407800dd
:10197c00e64f5000a0ff36008070800000c0a10030
:10198c0080708800f070800000c0a100f0708800aa
:10199c00807180000070a10080718800f07180005f
:1019ac000070a100f07188000080fa0000000600b1
:1019bc000000fa003100070004000700801b200023
:1019cc00620007000080fa00000006000000fa0028
:1019dc001ecea80061e3a80061a3a900011b800032
:1019ec00f0cf2f0000806000001b8800011b8000de
:1019fc00f0f12f0000806000001b88006083a900bc
:101a0c006063a9006043a900111b8000f0ff210056
:101a1c0000806000101b88006343a900111b80002c
:101a2c00f0cf2f0000806000101b88006223a900fb
:101a3c006203a90065e3a9006463ef007303a900c6
:101a4c00411b800000fe2f00008060006000b3008e
:101a5c00401b8800411b8000f00f2e00808060002e
:101a6c000060200001007000401b880068e3a900a2
:101a7c0069e3a9000080fa00000006000000fa00eb
:101a8c001e0ea800100ea80021e3a80021a3a90097
:101a9c002143a80001198000f0cf2f0000806000c6
:101aac00001988002083a90001198000000e200075
:101abc0001007000001988002043a8001119800053
:101acc00f0ff210000806000101988002343a9005a
:101adc001119800030f82f0080806000c0032000b6
:101aec0001007000101988002223a9002203a9000c
:101afc0025e3a90021198000f00f2e000080600062
:101b0c0020198800a0c0b30024e3b7003303a90058
:101b1c004119800000fe2f000080600040198800f1
:101b2c0041198000f00f2e000080600040198800e1
:101b3c0028e3a90029e3a9002e23ef003023ef00ae
:101b4c0021a8a8000080fa00000006000a00fa0094
:101b5c00400798004e0090008000eb00eefb070061
:101b6c000001be000000250031ac24001efb070064
:101b7c00a4fb0700009fbe000297be006022b800c5
:101b8c0016b8250057ff23003e00be002e01be00f4
:101b9c0036fc07006022b8000600200007fe230078
:101bac0094fa0700b6fb07000000780050c48800c8
:101bbc006022b800e6232800c7ff23003e00be00c9
:101bcc002e01be0029fc07006022b8000600200090
:101bdc0007fe230087fa0700a9fb07000000780026
:101bec0040c488000400200005002c00a6592f00da
:101bfc0017ff23003e00be002e01be001bfc070099
:101c0c000002be000203be007afa07006022b80090
:101c1c000600200007fe230076fa070098fb070059
:101c2c000000780030c488000400200005002e005d
:101c3c0006912f0077ff23003e00be002e01be0050
:101c4c000afc07000002be000203be0069fa07008e
:101c5c006022b8000600200007fe230065fa07008a
:101c6c0087fb07000000780020c488006022b800c1
:101c7c0006002000070124003e00be002e01be001d
:101c8c00fafb07006022b8000600200007fe2300c4
:101c9c0058fa07007afb07000000780010c488008f
:101cac006022b80016b8250057ff23003e00be0086
:101cbc002e01be00edfb07006022b80006002000dc
:101ccc0007012400e9fb07006022b8000600200091
:101cdc0007fe230047fa070069fb070000007800a5
:101cec0000c488006022b800e6232800c7ff230048
:101cfc003e00be002e01be00dcfb07006022b800d7
:101d0c000600200007012400d8fb07006022b80061
:101d1c000600200007fe230036fa070058fb0700d8
:101d2c0000007800f0c388000080fa000000060074
:101d3c00809fbe00829fbe003200f8003400f80085
:101d4c0010002000a00188000020200090018800d5
:101d5c00000000000e00fa0049d0bf000004e000b3
:101d6c00dc003200907180000070a000907188003f
:101d7c000000eb00000f7800d300370010828000c9
:101d8c000000e8001082880040d0bf000080fb00fb
:101d9c000000e00003003200e10f5000af00320001
:101dac00b90037001e00780080004000209221000e
:101dbc000080400010007800900078002080200007
:101dcc00808f5000b200360010c0b30040f0b70056
:101ddc00108280006101b800d0818000e181800018
:101dec000200400083804800d0818800e181880097
:101dfc00d2818000e38180003fd0bf000080fb00d7
:101e0c0080004000e081210000804000100078003c
:101e1c008000eb000000510081805900d0818800c7
:101e2c00e1818800c2818000d0818000e181800046
:101e3c00c211dd00e2042100028141000089be00d4
:101e4c00c08180000000e800c08188003fd0bf0046
:101e5c000080fb001182800000014000e081210025
:101e6c0000004100010878003fd0bf000040e800ae
:101e7c003ff0b7003fd0bf000044a1003ff0b700d7
:101e8c004230ef003ed0bf000081fb00d0818000cb
:101e9c00e1818000c211dd00e2832100028141005a
:101eac000089be003ed0bf000040e8003ef0b70005
:101ebc003ed0bf000044a1003ef0b70048d0bf00a8
:101ecc000004e00074003a00f0ff2f000100200035
:101edc0010079800210798006000b80030079800a0
:101eec00410798000000eb005007980025003700d0
:101efc005e009000c200dd00e08321000080400005
:101f0c001001be003e009000ce009000800f5100ea
:101f1c00818f5900070036005e009000c200dd0082
:101f2c00e0832100008040001001be0032079800c1
:101f3c00430798005e009000c200dd00e0832100a2
:101f4c00008040001001be001e009000ae0090000a
:101f5c00800f5100818f5900070031005e00900006
:101f6c00c200dd00e0832100008040001001be00b3
:101f7c0012079800230798005e0090000000e8000c
:101f8c00500798005e009000ef0f5000d8ff34000f
:101f9c003e019000ce0190001e009000ae0090001b
:101fac000001510081815900d00120000100200066
:101fbc00800f5100818f590039003e004430ef00f2
:101fcc004630ef000000eb00600798000e00370071
:101fdc006e009000c200dd00e08321000080400014
:101fec001001be002082800031828000020040007f
:101ffc008380480020828800318288006e00900027
:10200c000000e800600798006e009000ef0f500091
:10201c00efff34002082800031828000cc09dd008b
:10202c004400de0000807100c408de0020828800bd
:10203c0031828800c08180000000e900c200dd0010
:10204c00e0042100008140006000b8000089be005f
:10205c0010c0b30048f0b700140037001e00780021
:10206c008000400020922100008040001000780089
:10207c0090007800207f2000808f50000a003e00e6
:10208c004070ef00090037004070ef000700370088
:10209c0000000000050037000000000003003700be
:1020ac00000000000100370000000000c18180002a
:1020bc00401f2000808f500002003a003830ef00a3
:1020cc00000000001e0fe8001e007800ef0f50000b
:1020dc002aff340001a8a900907180000070a100b3
:1020ec00907188000080fa003400f9003200f90089
:1020fc004f01be004f00be00004006000200fa0077
:10210c000000eb00000f7800010037001e0fe80004
:10211c00703821009e007800808f5000fbff360045
:10212c000080fa00000006000c00fa009102070083
:10213c00e5fb070005003700000000000300370036
:10214c000000000001003700000000004ad0bf0072
:10215c000004e000a400320048d0bf000004e000fe
:10216c009800320022828000338280004bd0bf0066
:10217c000080fb0080004000e087210000804000d0
:10218c00100078008000eb000000510081805900a5
:10219c00008fbe001e00be00e00f5000e08f580004
:1021ac000c003d004bd0bf000080fb0080004000c5
:1021bc00e087210000804000100078006101b80029
:1021cc002082800031828000000051008180590003
:1021dc00008fbe0020828000318280000001400010
:1021ec00818148004bd0bf000080fb008000400084
:1021fc00e087210000804000100078008000eb0098
:10220c000000510081805900200798003107980088
:10221c002e009000be009000e00f5000e08f5800a0
:10222c000f003d004bd0bf000080fb008000400041
:10223c00e087210000804000100078006101b800a8
:10224c0020828000318280000000400081804800a4
:10225c000000510081805900200798003107980038
:10226c002e009000be0090001e01be00800f510099
:10227c00818f59000600340020828000318280005a
:10228c000000400081804800208288003182880054
:10229c004bd0bf000080fb0080004000e087210095
:1022ac0000804000100078006101b800208280009e
:1022bc0031828000800f5100818f590005003a0057
:1022cc004870ef004970ef00db0007004a70ef0028
:1022dc009eff37004bd0bf000080fb008000400009
:1022ec00e087210000804000100078006101b800f8
:1022fc002082800031828000800f5100818f590034
:10230c001200360070fb07000000eb00400798003d
:10231c00070037004bd0bf0011c0b300c0fb070053
:10232c0076ff07004e0090000000e8004007980080
:10233c00ce00900030062000808f5000f5ff340056
:10234c005bfb07004870ef0080ff37004bd0bf00ed
:10235c000080fb0080004000e087210000804000ee
:10236c00100078006101b80020828000318280006a
:10237c00800f5100818f59006fff310052fb070015
:10238c000000eb0050079800070037004bd0bf004f
:10239c008040eb00a2fb070058ff07005e00900096
:1023ac000000e80050079800de0090003006200086
:1023bc00808f5000f5ff34003dfb07004870ef00a4
:1023cc0062ff370010c0b300480107000000e000b6
:1023dc005bff3200980007004a70ef004970ef0075
:1023ec004870ef0059ff37000040eb003f01070039
:1023fc000000e000060032004cd0bf000004e000fa
:10240c00030032004cd0bf000040e9004cf0b70094
:10241c0020c0b300350107000000e00006003200c8
:10242c004cd0bf00e54f500003003e004cd0bf0025
:10243c000040e8004cf0b7004cd0bf007000070023
:10244c0010c0b300290107000000e0003eff32007d
:10245c007900070010c0b3004af0b7004cd0bf00a1
:10246c004bf0b70010c0b30049f0b7004870ef0054
:10247c0036ff37000400fa000040eb00004f7800f4
:10248c00210037001e80fb008000400020942100ba
:10249c000080400090007800110798001e0090000a
:1024ac00100090009e0090009100900011017800a7
:1024bc009e009000e14090008180fb001300200002
:1024cc008118dd008180ea0081006100010878003c
:1024dc001e009000200090009e009000a100900033
:1024ec00110178009e009000e14090008180fb007b
:1024fc00130020008118dd008180ea00810061005a
:10250c00010878001e4fe8001e407800e64f50008e
:10251c00dcff36000080fa00000006000200fa0022
:10252c00004f78001e80fb008000400020942100aa
:10253c000080400010007800900078001e80fb00a6
:10254c0000014000209421000000410010007800a0
:10255c0010007800100178001e80fb008001400004
:10256c002094210000804100100078006040900011
:10257c000080fb00130020000018dd00020070003a
:10258c00800878000080fa00000006000200fa00c3
:10259c00004f78001e80fb0080004000209421003a
:1025ac000080400010007800900078001e80fb0036
:1025bc000001400020942100000041001000780030
:1025cc0010007800100178001e80fb008001400094
:1025dc0020942100008041001000780060409000a1
:1025ec000080fb00130020000018dd000080ea00d2
:1025fc0000006100800878000080fa0000000600ee
:10260c000200fa00004f7800270007001e407800f7
:10261c00c2ff07000080fa00000006000200fa006a
:10262c00004f78003d0007001e407800d7ff0700e0
:10263c000080fa00000006000400fa000040eb00e5
:10264c00004f7800130037001e80fb008000400014
:10265c002094210000804000900078001107980021
:10266c001e009000100078009e00900091007800f1
:10267c00110178009e009000e14090008180fb00e9
:10268c00130020008118dd0081006900010878002a
:10269c001e4fe8001e407800e64f5000eaff36005f
:1026ac000080fa00000006000400fa000040eb0075
:1026bc00004f7800140037001e80fb0080004000a3
:1026cc0020942100008040009000780011079800b1
:1026dc001e009000100078009e0090009100780081
:1026ec00110178009e009000e14090008180fb0079
:1026fc00130020008118dd008180ea008100610058
:10270c00010878001e4fe8001e407800e64f50008c
:10271c00e9ff36000080fa00000006000400fa0011
:10272c000040eb00004f7800130037001e80fb00c8
:10273c008000400020942100008040009000780030
:10274c00110798001e009000100078009e00900069
:10275c0091007800110178009e009000e1409000fb
:10276c008180fb00130020008118dd008280700046
:10277c00010878001e4fe8001e407800e64f50001c
:10278c00eaff36000080fa00000006000400fa00a0
:10279c000040eb00004f78002c0037001e80fb003f
:1027ac0080004000c0912100008040009000780023
:1027bc00110798001e009000100090009e009000e1
:1027cc0091009000110178009e00900081489000cb
:1027dc008180fb00130020008118dd0082807000d6
:1027ec00010878001e009000200090009e009000d0
:1027fc00a1009000110178009e009000814890008b
:10280c008180fb00130020008118dd008180ea002c
:10281c0081006100010878001e00900030009000db
:10282c009e009000b1009000110178009e00900075
:10283c00814890008180fb00130020008118dd008e
:10284c0082807000010878001e4fe8001e4078005e
:10285c00e24f5000d1ff36000080fa000000060065
:10286c000200fa00000f78001e0078007000900043
:10287c008000e9001e007800710098001e007800ae
:10288c00700090000080fa00000006000200fa00c0
:10289c00000f78001e007800000890008000e9000e
:1028ac001e007800010898001e00780000089000b7
:1028bc000080fa00000006000200fa00000f780009
:1028cc001e00780010007800900078001e00780040
:1028dc00004890000080fb00120020000010dd007a
:1028ec00008060000080fa00000006000400fa007e
:1028fc00204798002e4090000080fb008000400094
:10290c00c091210000804000100f78001e0078005c
:10291c00e9ff07000000e000100032001e00780004
:10292c00d00090001e007800710098001e00780006
:10293c00d6ff07000000e0001d003a001e007800e2
:10294c008040eb00215098001e007800e0009000c1
:10295c001e00780001089800150037001e00780052
:10296c00e00090001e007800010898001e0078001e
:10297c00bbff07000000e0000d003a001e007800cd
:10298c00205090000004e00005003a001e00780082
:10299c0011c0b30021509800100020000500370032
:1029ac001e007800d00090001e0078007100980086
:0c29bc000000eb000080fa0000000600a4
:020000040000fa
:1029c8004a10000004000000800000008c1800007d
:1029d8005400000082000000ee87f6008700000027
:1029e8000000010000fe87000688000000000000cb
:1029f80001000e0088168800000000000001000099
:102a08001e8826008800000000000000002e8800b4
:102a1800368800000000000000003e00884688005c
:102a280000000000000000004e88560088000000ea
:102a380000000100008c18009618a00018aa1800c1
:102a4800b418be0018c818002219000020000000a1
:102a580082000000000302000304030006030800cc
:102a6800030a03000c030e000310030012031400f2
:102a78000316030018031a00031c03001e030000ba
:102a88004e1000003e0800008000000038100000d2
:102a98001200000080000000421900000e00000033
:102aa800820000000010080010101000181020000c
:102ab800102810003010000000100000380000003e
:102ac80082000000220e20000e2e0e000e002200b2
:102ad8000e200e002e0e0d0000320e00300e3e00ad
:102ae8000e000000320e30000e3e0e000b003200c9
:102af8000e300e003e0e0a0000320e00300e3e0070
:102b08000e090000320e30000e3e0e0008000000d4
:102b1800e01800004200000082000000320e300081
:102b28000e3e0e003a0e060000c80000c800000065
:102b380000000000000032000e300e003e0e3a0089
:102b48000e050000c800c8000000000000000000da
:102b580000120e00100e1e000e1a0e000f00c80004
:102b680000c800000000000000000000e018f400a9
:082b780018081900000000001c
:020000040000fa
:102b80000000fa00060007008cfb070019fb070095
:102b900001ff07003afe07000080fa00000006006f
:102ba0000000fa00a0022000303a8800213a80009c
:102bb000f0f32f0000806000203a8800213a800066
:102bc00000fe2f0000806000203a880032002000c4
:102bd00080072000a109200033742000804978007c
:102be0008149780082497800103a8000000178001d
:102bf0000200a00060042000710520002374200062
:102c000080497800814978008249780000000000fe
:102c1000113a80000000270080806000000023003f
:102c2000808f5000faff3a0000000000113a800047
:102c300000022000008060000000e000fbff320086
:082c40000080fa00000006000c
:020000040000fa
:0200000401f009
:04000800cfff000026
:020000040000fa
:0200000401f009
:04000c007affff0078
:020000040000fa
:0200000401f009
:040010005affff0094
:020000040000fa
:0200000401f009
:040014005fffff008b
:020000040000fa
:0200000401f009
:04001800ffffff00e7
:020000040000fa
:0200000401f009
:04001c00dfffff0003
:020000040000fa
:0200000401f009
:04002000cfffff000f
:00000001FF
