:020000040000fa
:080000000002040000000000f2
:020000040000fa
:04000800fa020000f8
:020000040000fa
:04000c00fa020000f4
:020000040000fa
:04001000fa020000f0
:020000040000fa
:04001400fa020000ec
:020000040000fa
:04001800fa020000e8
:020000040000fa
:04001c00fa020000e4
:020000040000fa
:04002000fa020000e0
:020000040000fa
:04002400fa020000dc
:020000040000fa
:04002800fa020000d8
:020000040000fa
:04002c00fa020000d4
:020000040000fa
:04003000fa020000d0
:020000040000fa
:04003400fa020000cc
:020000040000fa
:04003800fa020000c8
:020000040000fa
:04003c00fa020000c4
:020000040000fa
:04004000fa020000c0
:020000040000fa
:04004400fa020000bc
:020000040000fa
:04004800fa020000b8
:020000040000fa
:04004c00fa020000b4
:020000040000fa
:04005000fa020000b0
:020000040000fa
:04005400fa020000ac
:020000040000fa
:04005800fa020000a8
:020000040000fa
:04005c00fa020000a4
:020000040000fa
:04006000fa020000a0
:020000040000fa
:04006400fa0200009c
:020000040000fa
:04006800fa02000098
:020000040000fa
:04006c00fa02000094
:020000040000fa
:04007000fa02000090
:020000040000fa
:04007400fa0200008c
:020000040000fa
:04007800fa02000088
:020000040000fa
:04007c00fa02000084
:020000040000fa
:04008000fa02000080
:020000040000fa
:04008400fa0200007c
:020000040000fa
:04008800fa02000078
:020000040000fa
:04008c00fa02000074
:020000040000fa
:04009000fa02000070
:020000040000fa
:04009400fa0200006c
:020000040000fa
:04009800fa02000068
:020000040000fa
:04009c00fa02000064
:020000040000fa
:0400a000fa02000060
:020000040000fa
:0400a400fa0200005c
:020000040000fa
:0400a800fa02000058
:020000040000fa
:0400ac00fa02000054
:020000040000fa
:0400b000fa02000050
:020000040000fa
:0400b400fa0200004c
:020000040000fa
:0400b800fa02000048
:020000040000fa
:0400bc00fa02000044
:020000040000fa
:0400c000fa02000040
:020000040000fa
:0400c400fa0200003c
:020000040000fa
:0400c800fa02000038
:020000040000fa
:0400cc00fa02000034
:020000040000fa
:0400d000fa02000030
:020000040000fa
:0400d400fa0200002c
:020000040000fa
:0400d800fa02000028
:020000040000fa
:0400dc00fa02000024
:020000040000fa
:0400e000fa02000020
:020000040000fa
:0400e400fa0200001c
:020000040000fa
:0400e800fa02000018
:020000040000fa
:0400ec00fa02000014
:020000040000fa
:0400f000fa02000010
:020000040000fa
:0400f400fa0200000c
:020000040000fa
:0400f800fa02000008
:020000040000fa
:0400fc00fa02000004
:020000040000fa
:04010000fa020000ff
:020000040000fa
:04010400fa020000fb
:020000040000fa
:04010800fa020000f7
:020000040000fa
:04010c00fa020000f3
:020000040000fa
:04011000fa020000ef
:020000040000fa
:04011400fa020000eb
:020000040000fa
:04011800fa020000e7
:020000040000fa
:04011c00fa020000e3
:020000040000fa
:04012000fa020000df
:020000040000fa
:04012400fa020000db
:020000040000fa
:04012800fa020000d7
:020000040000fa
:04012c00fa020000d3
:020000040000fa
:04013000fa020000cf
:020000040000fa
:04013400fa020000cb
:020000040000fa
:04013800fa020000c7
:020000040000fa
:04013c00fa020000c3
:020000040000fa
:04014000fa020000bf
:020000040000fa
:04014400fa020000bb
:020000040000fa
:04014800fa020000b7
:020000040000fa
:04014c00fa020000b3
:020000040000fa
:04015000fa020000af
:020000040000fa
:04015400fa020000ab
:020000040000fa
:04015800fa020000a7
:020000040000fa
:04015c00fa020000a3
:020000040000fa
:04016000fa0200009f
:020000040000fa
:04016400fa0200009b
:020000040000fa
:04016800fa02000097
:020000040000fa
:04016c00fa02000093
:020000040000fa
:04017000fa0200008f
:020000040000fa
:04017400fa0200008b
:020000040000fa
:04017800fa02000087
:020000040000fa
:04017c00fa02000083
:020000040000fa
:04018000fa0200007f
:020000040000fa
:04018400fa0200007b
:020000040000fa
:04018800fa02000077
:020000040000fa
:04018c00fa02000073
:020000040000fa
:04019000fa0200006f
:020000040000fa
:04019400fa0200006b
:020000040000fa
:04019800fa02000067
:020000040000fa
:04019c00fa02000063
:020000040000fa
:0401a000fa0200005f
:020000040000fa
:0401a400fa0200005b
:020000040000fa
:0401a800fa02000057
:020000040000fa
:0401ac00fa02000053
:020000040000fa
:0401b000fa0200004f
:020000040000fa
:0401b400fa0200004b
:020000040000fa
:0401b800fa02000047
:020000040000fa
:0401bc00fa02000043
:020000040000fa
:0401c000fa0200003f
:020000040000fa
:0401c400fa0200003b
:020000040000fa
:0401c800fa02000037
:020000040000fa
:0401cc00fa02000033
:020000040000fa
:0401d000fa0200002f
:020000040000fa
:0401d400fa0200002b
:020000040000fa
:0401d800fa02000027
:020000040000fa
:0401dc00fa02000023
:020000040000fa
:0401e000fa0200001f
:020000040000fa
:0401e400fa0200001b
:020000040000fa
:0401e800fa02000017
:020000040000fa
:0401ec00fa02000013
:020000040000fa
:0401f000fa0200000f
:020000040000fa
:0401f400fa0200000b
:020000040000fa
:0401f800fa02000007
:020000040000fa
:0401fc00fa02000003
:020000040000fa
:04020000fa020000fe
:020000040000fa
:04020400fa020000fa
:020000040000fa
:04020800fa020000f6
:020000040000fa
:04020c00fa020000f2
:020000040000fa
:04021000fa020000ee
:020000040000fa
:04021400fa020000ea
:020000040000fa
:04021800fa020000e6
:020000040000fa
:04021c00fa020000e2
:020000040000fa
:04022000fa020000de
:020000040000fa
:04022400fa020000da
:020000040000fa
:04022800fa020000d6
:020000040000fa
:04022c00fa020000d2
:020000040000fa
:04023000fa020000ce
:020000040000fa
:04023400fa020000ca
:020000040000fa
:04023800fa020000c6
:020000040000fa
:04023c00fa020000c2
:020000040000fa
:04024000fa020000be
:020000040000fa
:04024400fa020000ba
:020000040000fa
:04024800fa020000b6
:020000040000fa
:04024c00fa020000b2
:020000040000fa
:04025000fa020000ae
:020000040000fa
:04025400fa020000aa
:020000040000fa
:04025800fa020000a6
:020000040000fa
:04025c00fa020000a2
:020000040000fa
:04026000fa0200009e
:020000040000fa
:04026400fa0200009a
:020000040000fa
:100400000f0b21000eff27000e01880000000000e6
:10041000000020000000e000020032000001200087
:100420002002880014000700740007000000e000ac
:1004300003003a008077200001002000020037000e
:100440000000200001002000810f70000100320038
:100450000f000700000020000000e0000200320052
:10046000000002000000000026080200000000005a
:100470000040da000000fe00000720000000e0005d
:1004800002003200002020009001880000000600d9
:10049000a1028800800478000000eb001f003700f4
:1004a000e284440054a0b4009905ba00e2844400f8
:1004b00054a0b4009906ba00e284440054a0b400e9
:1004c0000006eb00476fde00fd07b200ae018800ba
:1004d000636ce10003003a000ad801000000eb0061
:1004e0000e003700606ce10008003a00004deb00a0
:1004f0000a05e800020039003420ec000af0a000f0
:100500008b05e900f9ff3e00040037006168e10057
:10051000010032000086eb000b00070019c7ba008b
:100520001905ba000e04e00003003a000a00e000da
:10053000dbff3a0000000600fe07b200ae028800b2
:100540008a047800f5ff37000cd0a300e20f4d00bd
:100550001c00390089027800354dba000a05e80010
:10056000020039003420ec000af0a0008b05e900fd
:100570000f003200254dba000a05e80002003900dc
:100580003420ec000af0a0008b05e90008003200de
:100590000c00e0000600320015cdba000a05e800a4
:1005a000020039003420ec000af0a0008b05e900bd
:1005b0008984e80054a0b4000b00e000e2ff3a0098
:1005c000000006009902ba00055d78008b05e9007d
:1005d000f7ff3200c82ade00055d78008b05e900d0
:1005e000f3ff32000c00e000f1ff320019ddba0029
:1005f000eeff37000040da000000fe0000000500ba
:020000040000fa
:10060000520e0000500e00005e0e000004000000bc
:10061000120e0000100e00001e0e00000e00000062
:10062000120e0000100e00001e0e00000800000058
:10063000120e0000100e00001e0e00000a00000046
:10064000120e0000100e00001e0e0000030000003d
:10065000120e0000100e00001e0e0000010000002f
:10066000420e0000400e00004e0e0000060000008a
:10067000620e0000600e00006e0e0000060000001a
:10068000420e0000400e00004e0e0000020000006e
:10069000420e0000400e00004e0e0000040000005c
:1006a000520e0000500e00005e0e00000000000020
:1006b000420e0000400e00004e0e0000020000003e
:1006c000320e0000300e00003e0e0000010000005f
:1006d000320e0000300e00003e0e0000030000004d
:020000040000fa
:1006e0000000fa009070800000c0a10090708800a7
:1006f0000080fa00000006000000fa009070800000
:1007000000c0a000907088000080fa000000060081
:100710000400fa00004f7800110798001e80fb00cb
:100720008000400040092100008040001000780057
:100730009e009000210098000080fa000000060052
:100740000600fa00404798004e4090000080fb00f1
:1007500080004000400921000080400090007800a7
:10076000110798001e009000200090000000e0009b
:10077000330032001e0090003000900064006000e2
:100780000000e000120032001e00900030009000d7
:100790000000d100614060000004a200e140600060
:1007a0001e0090008180fb00e1806000818040009d
:1007b000300190000210a10082807000310098008a
:1007c0001e009000b00090000120a10031009800b0
:1007d0001e00900030009000620060000000e00009
:1007e000030032001e009000100f78000300370055
:1007f0001e00900090009000010f78001e0078000d
:10080000100078009e0078009100780011017800b7
:100810009e007800e14090008180fb0033002000c2
:100820008118dd0081006900010878001e00900039
:10083000200090008000e9001e0090002100980038
:100840000080fa00000006000400fa000000eb003f
:10085000000f78005b0037001e0078008000400029
:1008600040092100008040001000780090007800ce
:10087000110798001e009000100090009e0090004c
:1008800091009000110178009e009000e1409000de
:100890008180fb00330020008118dd008180ea00a8
:1008a00081006100010878001e0090002000900087
:1008b0009e009000a1009000110178009e00900021
:1008c000e14090008180fb00330020008118dd00b2
:1008d0008180ea0081006100010878001e0090001c
:1008e000100078009e0090009100780011017800bf
:1008f0009e009000e14090008180fb0013002000ea
:100900008118dd0081006900010878001e00780070
:100910008000400040092100008040001000780065
:1009200090009000110798001e00900010009000a9
:100930009e00900091009000110178009e009000b0
:10094000e14090008180fb00330020008118dd0031
:100950008180ea0081006100010878001e0090009b
:10096000200090009e009000a100900011017800ee
:100970009e009000e14090008180fb003300200049
:100980008118dd008180ea008100610001087800a3
:100990001e009000100078009e00900091007800ea
:1009a000110178009e009000e14090008180fb00e2
:1009b000130020008118dd00810069000108780023
:1009c0001e0fe8001e007800e60f5000a2ff340062
:1009d0008070800000c0a10080708800f0708000ee
:1009e00000c0a100f07088000080fa00000006003e
:1009f0000200fa000000eb00000f7800330037001f
:100a00001e00780080004000200a21000080400085
:100a100010007800900090001e0078000001400057
:100a2000200a210000004100100078001000900012
:100a3000100178001e00780080014000200a21008b
:100a40000080410010007800604090000080fb00b2
:100a5000130020000018dd000080ea0000006100a3
:100a6000800878001e00780080004000200a2100e5
:100a70000080400010007800a00090001e00780068
:100a800000014000200a2100000041001000780011
:100a900020009000100178001e00780080014000c6
:100aa000200a210000804100100078006040900082
:100ab0000080fb00130020000018dd000080ea0029
:100ac00000006100800878001e0fe8001e0078001a
:100ad000e60f5000caff34000080fa000000060054
:100ae0000200fa00004f78001e80fb0080004000ea
:100af000200a21000080400010007800900078005b
:100b00001e80fb0000014000200a2100000041007f
:100b10001000780010007800100178001e80fb00a3
:100b200080014000200a2100008041001000780070
:100b3000604090000080fb00130020000018dd00e2
:100b400002007000800878000080fa0000000600b3
:100b50000200fa00004f78001e80fb008000400079
:100b6000200a2100008040001000780090007800ea
:100b70001e80fb0000014000200a2100000041000f
:100b80001000780010007800100178001e80fb0033
:100b900080014000200a2100008041001000780000
:100ba000604090000080fb00130020000018dd0072
:100bb0000080ea0000006100800878000080fa00f0
:100bc000000006000200fa000000eb00000f7800b1
:100bd0004a0037001e00780080004000e008210035
:100be0000080400010007800900090001e00780007
:100bf00000014000e00821000000410010007800e2
:100c000010009000100178001e0078008001400064
:100c1000e0082100008041001000780000489000aa
:100c20000080fb00130020000018dd0002007000af
:100c3000800878001e00780080004000e008210055
:100c40000080400010007800a00090001e00780096
:100c500000014000e0082100000041001000780081
:100c600020009000100178001e00780080014000f4
:100c7000e00821000080410010007800004890004a
:100c80000080fb00130020000018dd000080ea0057
:100c900000006100800878001e007800800040009d
:100ca000e00821000080400010007800b0009000b3
:100cb0001e00780000014000e00821000000410013
:100cc0001000780030009000100178001e007800bd
:100cd00080014000e0082100008041001000780001
:100ce000004890000080fb00130020000018dd0089
:100cf00002007000800878001e0fe8001e007800d7
:100d0000e20f5000b3ff34000080fa00000006003c
:100d10000200fa00004f78001e80fb0080004000b7
:100d2000e0082100008040001000780010007800ea
:100d3000900078001e80fb0000014000e0082100c8
:100d40000000410010007800004890000080fb0087
:100d5000120020000010dd00008060000080fa001a
:100d6000000006000000fa002f0007000200070044
:100d70000080fa00000006000000fa001ecea80065
:100d800061e3a80061a3a900011b8000f0cf2f0040
:100d900000806000001b8800011b8000f0f12f0024
:100da00000806000001b88006083a9006063a900c8
:100db0006043a900111b8000f0ff2100008060004b
:100dc000101b88006343a900111b8000f0cf2f0087
:100dd00000806000101b88006223a9006203a90044
:100de00065e3a9006463ef007303a900411b800061
:100df00000fe2f00008060006000b300401b8800f0
:100e0000411b8000f00f2e008080600000602000f9
:100e100001007000401b880068e3a90069e3a90095
:100e20000080fa00000006000000fa001e0ea80074
:100e300021e3a80021a3a9002143a80001198000f3
:100e4000f0cf2f0000806000001988002083a900e7
:100e500001198000000e20000100700000198800b8
:100e60002043a80011198000f0ff210000806000dd
:100e7000101988002343a9001119800030f82f00b1
:100e800000806000101988002223a9002203a90015
:100e900025e3a90021198000f00f2e00808060005a
:100ea00000302000010070002019880080ccb300c1
:100eb00024e3b7003303a9004119800000fe2f008e
:100ec000008060004019880041198000f00f2e005a
:100ed000008060004019880028e3a90029e3a900e8
:100ee0002e23ef003023ef000080fa000000060000
:020000040000fa
:100ef000941000000e0000008200000000100800a6
:100f000010101000181020001028100030100000e1
:100f1000001000003800000082000000008308007c
:100f20008300000000001000831883000000000010
:100f30000020830028830000000000003083380078
:100f40008300000000004000834883000000000090
:100f50000050830058830000000000006083680098
:100f60008300000000000000a21000000e0000003e
:100f70008200000038104000104810005010580047
:100f800010601000681000003810000038000000e9
:100f900082000000220e20000e2e0e000e00220005
:100fa0000e200e002e0e0d0000320e00300e3e0000
:100fb0000e000000320e30000e3e0e000b0032001c
:100fc0000e300e003e0e0a0000320e00300e3e00c3
:100fd0000e090000320e30000e3e0e000800000028
:100fe000701000002400000082000000320e30006b
:100ff0000e3e0e003a0e060000320e00300e3e008d
:101000000e3a0e00050012000e100e001e0e1a0001
:101010000e0f000070107a00108410000000000015
:020000040000fa
:101020000200fa000000eb00000f7800010037001a
:101030001e0fe800f07c20009e007800808f50009a
:10104000fbff36000080fa00000006000200fa00f4
:101050001c000700a8fd07000000eb00000f78004f
:101060004000210090708800edff07004001210042
:1010700090708800eaff070000012100907088004e
:10108000e7ff07002001210090708800e4ff0700bf
:101090002000210090708800e1ff0700a0002100df
:1010a00090708800deff07008000210090708800ab
:1010b000dbff0700c000210090708800d8ff070008
:1010c000e7ff37000000fa00dffd0700bdfe070064
:0c10d00047fe07000080fa000000060048
:020000040000fa
:0200000401f009
:04000800cfff000026
:020000040000fa
:0200000401f009
:04000c007affff0078
:020000040000fa
:0200000401f009
:040010009affff0054
:020000040000fa
:0200000401f009
:040014005fffff008b
:020000040000fa
:0200000401f009
:04001800ffffff00e7
:020000040000fa
:0200000401f009
:04001c00dfffff0003
:020000040000fa
:0200000401f009
:04002000cfffff000f
:00000001FF
