:020000040000fa
:080000000002040000000000f2
:020000040000fa
:04000800fa020000f8
:020000040000fa
:04000c00fa020000f4
:020000040000fa
:04001000fa020000f0
:020000040000fa
:04001400fa020000ec
:020000040000fa
:04001800fa020000e8
:020000040000fa
:04001c00fa020000e4
:020000040000fa
:04002000fa020000e0
:020000040000fa
:04002400fa020000dc
:020000040000fa
:04002800fa020000d8
:020000040000fa
:04002c00fa020000d4
:020000040000fa
:04003000fa020000d0
:020000040000fa
:04003400fa020000cc
:020000040000fa
:04003800fa020000c8
:020000040000fa
:04003c00fa020000c4
:020000040000fa
:04004000fa020000c0
:020000040000fa
:04004400fa020000bc
:020000040000fa
:04004800fa020000b8
:020000040000fa
:04004c00fa020000b4
:020000040000fa
:04005000fa020000b0
:020000040000fa
:04005400fa020000ac
:020000040000fa
:04005800fa020000a8
:020000040000fa
:04005c00ec1600009e
:020000040000fa
:04006000fa020000a0
:020000040000fa
:04006400fa0200009c
:020000040000fa
:04006800fa02000098
:020000040000fa
:04006c00fa02000094
:020000040000fa
:04007000fa02000090
:020000040000fa
:04007400fa0200008c
:020000040000fa
:04007800fa02000088
:020000040000fa
:04007c00fa02000084
:020000040000fa
:04008000fa02000080
:020000040000fa
:04008400fa0200007c
:020000040000fa
:04008800fa02000078
:020000040000fa
:04008c00fa02000074
:020000040000fa
:04009000fa02000070
:020000040000fa
:04009400fa0200006c
:020000040000fa
:04009800fa02000068
:020000040000fa
:04009c00fa02000064
:020000040000fa
:0400a000fa02000060
:020000040000fa
:0400a400fa0200005c
:020000040000fa
:0400a800fa02000058
:020000040000fa
:0400ac00fa02000054
:020000040000fa
:0400b000fa02000050
:020000040000fa
:0400b400fa0200004c
:020000040000fa
:0400b800fa02000048
:020000040000fa
:0400bc00fa02000044
:020000040000fa
:0400c000fa02000040
:020000040000fa
:0400c400fa0200003c
:020000040000fa
:0400c800fa02000038
:020000040000fa
:0400cc00fa02000034
:020000040000fa
:0400d000fa02000030
:020000040000fa
:0400d400fa0200002c
:020000040000fa
:0400d800fa02000028
:020000040000fa
:0400dc00fa02000024
:020000040000fa
:0400e000fa02000020
:020000040000fa
:0400e400fa0200001c
:020000040000fa
:0400e800fa02000018
:020000040000fa
:0400ec00fa02000014
:020000040000fa
:0400f000fa02000010
:020000040000fa
:0400f400fa0200000c
:020000040000fa
:0400f800fa02000008
:020000040000fa
:0400fc00fa02000004
:020000040000fa
:04010000fa020000ff
:020000040000fa
:04010400fa020000fb
:020000040000fa
:04010800fa020000f7
:020000040000fa
:04010c00fa020000f3
:020000040000fa
:04011000fa020000ef
:020000040000fa
:04011400fa020000eb
:020000040000fa
:04011800fa020000e7
:020000040000fa
:04011c00fa020000e3
:020000040000fa
:04012000fa020000df
:020000040000fa
:04012400fa020000db
:020000040000fa
:04012800fa020000d7
:020000040000fa
:04012c00fa020000d3
:020000040000fa
:04013000fa020000cf
:020000040000fa
:04013400fa020000cb
:020000040000fa
:04013800fa020000c7
:020000040000fa
:04013c00fa020000c3
:020000040000fa
:04014000fa020000bf
:020000040000fa
:04014400fa020000bb
:020000040000fa
:04014800fa020000b7
:020000040000fa
:04014c00fa020000b3
:020000040000fa
:04015000fa020000af
:020000040000fa
:04015400fa020000ab
:020000040000fa
:04015800fa020000a7
:020000040000fa
:04015c00fa020000a3
:020000040000fa
:04016000fa0200009f
:020000040000fa
:04016400fa0200009b
:020000040000fa
:04016800fa02000097
:020000040000fa
:04016c00fa02000093
:020000040000fa
:04017000fa0200008f
:020000040000fa
:04017400fa0200008b
:020000040000fa
:04017800fa02000087
:020000040000fa
:04017c00fa02000083
:020000040000fa
:04018000fa0200007f
:020000040000fa
:04018400fa0200007b
:020000040000fa
:04018800fa02000077
:020000040000fa
:04018c00fa02000073
:020000040000fa
:04019000fa0200006f
:020000040000fa
:04019400fa0200006b
:020000040000fa
:04019800fa02000067
:020000040000fa
:04019c00fa02000063
:020000040000fa
:0401a000fa0200005f
:020000040000fa
:0401a400fa0200005b
:020000040000fa
:0401a800fa02000057
:020000040000fa
:0401ac00fa02000053
:020000040000fa
:0401b000fa0200004f
:020000040000fa
:0401b400fa0200004b
:020000040000fa
:0401b800fa02000047
:020000040000fa
:0401bc00fa02000043
:020000040000fa
:0401c000fa0200003f
:020000040000fa
:0401c400fa0200003b
:020000040000fa
:0401c800fa02000037
:020000040000fa
:0401cc00fa02000033
:020000040000fa
:0401d000fa0200002f
:020000040000fa
:0401d400fa0200002b
:020000040000fa
:0401d800fa02000027
:020000040000fa
:0401dc00fa02000023
:020000040000fa
:0401e000fa0200001f
:020000040000fa
:0401e400fa0200001b
:020000040000fa
:0401e800fa02000017
:020000040000fa
:0401ec00fa02000013
:020000040000fa
:0401f000fa0200000f
:020000040000fa
:0401f400fa0200000b
:020000040000fa
:0401f800fa02000007
:020000040000fa
:0401fc00fa02000003
:020000040000fa
:04020000fa020000fe
:020000040000fa
:04020400fa020000fa
:020000040000fa
:04020800fa020000f6
:020000040000fa
:04020c00fa020000f2
:020000040000fa
:04021000fa020000ee
:020000040000fa
:04021400fa020000ea
:020000040000fa
:04021800fa020000e6
:020000040000fa
:04021c00fa020000e2
:020000040000fa
:04022000fa020000de
:020000040000fa
:04022400fa020000da
:020000040000fa
:04022800fa020000d6
:020000040000fa
:04022c00fa020000d2
:020000040000fa
:04023000fa020000ce
:020000040000fa
:04023400fa020000ca
:020000040000fa
:04023800fa020000c6
:020000040000fa
:04023c00fa020000c2
:020000040000fa
:04024000fa020000be
:020000040000fa
:04024400fa020000ba
:020000040000fa
:04024800fa020000b6
:020000040000fa
:04024c00fa020000b2
:020000040000fa
:04025000fa020000ae
:020000040000fa
:04025400fa020000aa
:020000040000fa
:04025800fa020000a6
:020000040000fa
:04025c00fa020000a2
:020000040000fa
:04026000fa0200009e
:020000040000fa
:04026400fa0200009a
:020000040000fa
:10040000ef8422000eff25000e018800000000008e
:10041000000020000000e000020032000001200087
:100420002002880014000700bf0207000000e0005f
:1004300003003a00c09f21000100200002003700a5
:100440000000200001002000810f70000100320038
:100450000f000700000020000000e0000200320052
:1004600000000200000000002e1c0200000000003e
:100470000040da000000fe00000720000000e0005d
:1004800002003200002020009001880000000600d9
:10049000a1028800800478000000eb001f003700f4
:1004a000e284440054a0b4009905ba00e2844400f8
:1004b00054a0b4009906ba00e284440054a0b400e9
:1004c0000006eb00476fde00fd07b200ae018800ba
:1004d000636ce10003003a000ad801000000eb0061
:1004e0000e003700606ce10008003a00004deb00a0
:1004f0000a05e800020039003420ec000af0a000f0
:100500008b05e900f9ff3e00040037006168e10057
:10051000010032000086eb000b00070019c7ba008b
:100520001905ba000e04e00003003a000a00e000da
:10053000dbff3a0000000600fe07b200ae028800b2
:100540008a047800f5ff37000cd0a300e20f4d00bd
:100550001c00390089027800354dba000a05e80010
:10056000020039003420ec000af0a0008b05e900fd
:100570000f003200254dba000a05e80002003900dc
:100580003420ec000af0a0008b05e90008003200de
:100590000c00e0000600320015cdba000a05e800a4
:1005a000020039003420ec000af0a0008b05e900bd
:1005b0008984e80054a0b4000b00e000e2ff3a0098
:1005c000000006009902ba00055d78008b05e9007d
:1005d000f7ff3200c82ade00055d78008b05e900d0
:1005e000f3ff32000c00e000f1ff320019ddba0029
:1005f000eeff37000040da000000fe003200f80095
:1006000001c0fe004600f8005000f8000220200063
:100610003202880002002800130020008019dd004b
:1006200002817100820288000100780001017800d7
:1006300026002000470020008301e9000380080015
:10064000070000000110e100040034001102be00a8
:1006500092087800e2307b000489be008780400069
:10066000121978005000f9004600f9003200f90034
:10067000000006003200f80001c0fe00821f780072
:10068000849fbe008a1f78004400f800040f2000f9
:1006900024028800010578000601c3000080e900fb
:1006a0000080080003000000000000000505f000c5
:1006b0000401f1003200cd000505f0001001f10049
:1006c0003200cd004400f9004f0578004f02be0013
:1006d0004f0078003200f90000000600889fbe003d
:1006e0008a9fbe008c9fbe008e1f78004400f800d9
:1006f000070f2000270288003200f800811f7800d1
:100700000f07780007f02f000338e100480032009f
:1007100003d0fe00040180000d8980000500250043
:1007200019002000804cdd008904d0000f854400b2
:100730000800310005055500060031008d84440095
:10074000040031008f84440002003100848654008c
:100750003000390019002000804cdd00130020001b
:1007600002047800800678008904d100424edd0042
:10077000010578000302e900048008002000000061
:10078000000000008a0546004218dd000902e90069
:100790000480080018000000000000004620c3008c
:1007a0003200f80001c0fe00000000003b025200d1
:1007b0003200f900df35c100080440001381c20097
:1007c0003200f80001c0fe0000000000ab825200c1
:1007d000264dc5003e85c400bb00cd00bb80cd00ca
:1007e0003a00ca002a80ca003200f9000700c90096
:1007f0000580c900ba00cd00ba80cd000a054600c8
:10080000020478008301d0008d06e900d6ff3c0089
:100810002f00370019002000804cdd000f04780005
:100820008906e9000d800900b21f780008017800f0
:1008300001c0fe0019002000804cdd0013002000e4
:1008400002047800800678008904d100424edd0061
:10085000010578000302e900048008001800000088
:10086000000000008a0546004218dd000902e90088
:100870000480080010000000000000004620c300b3
:100880003b025200df35c100080440001381c20062
:10089000ab825200264dc5003e85c400bb00cd0092
:1008a000bb80cd003a00ca002a80ca000700c900f8
:1008b0000580c900ba00cd00ba80cd000a05460007
:1008c000020478008301d0008d06e900deff3c00c1
:1008d0008e0778004f0078003200f9004400f900dc
:1008e0004f0778004f06be004f05be004f04be0004
:1008f00000000600f2874700889fbe008a9fbe0066
:100900008c9fbe008e1f780091b79f000205780073
:100910001c0020000066dd002200200011000900fc
:100920000206d800000678000000200001f823002d
:10093000ab0007009fb09700800878000001eb0033
:10094000920098006160b900750307000001be00c5
:10095000b0fd2000910424005902070080047800b3
:10096000010478000900780088007800520207002e
:10097000c0b79f00b1b79f00e00f55009100320053
:100980000801be000300780082007800d804070048
:100990000005be000c83e900830033001fb0970000
:1009a00064004000f0b79f008a0678000b077800cb
:1009b000cfb09700e1b79f003fb09700d0b79f003e
:1009c0000001be00030078008200780086bf9f000f
:1009d00083000700ffb09700800878000d007800c2
:1009e0008e0078007e000700ffb09700900098000e
:1009f000e4804000f1b79f00cfb197003fb197006e
:100a000003027800820278000401be006fb29700f2
:100a1000dfb297000400be00180407000004be0007
:100a20000a01be000d0278008e0278000400be00ac
:100a3000120407000001be000800be00b801070054
:100a4000a0b79f00010678004fb19700bfb1970093
:100a50000202be000401be000d0278008e02780082
:100a60000400be000504070080047800010478003b
:100a70000a01be006fb29700dfb297000400be000b
:100a8000fe0307000801be0003027800820278001e
:100a90000401be00a301070080067800010778006a
:100aa0000fbb97000603e9003f003300afb097008b
:100ab000e1b79f00dcb79f00810178000c0178004e
:100ac000030078008200780086bf9f004400070082
:100ad000ffb09700800878000d0078008e00780045
:100ae0003f000700ffb0970090009800e4804000ae
:100af000f1b79f00cfb197003fb197000302780094
:100b0000820278000401be006fb29700dfb2970046
:100b10000400be00d90307000004be000a01be00a5
:100b20000d0278008e0278000400be00d303070097
:100b30000001be000800be0079010700a0b79f00b9
:100b4000010678004fb19700bfb197000202be00c6
:100b50000401be000d0278008e0278000400be0081
:100b6000c603070080047800010478000a01be0073
:100b70006fb29700dfb297000400be00bf0307000a
:100b80000801be0003027800820278000401be0062
:100b90006401070080067800010778000fbb97000a
:100ba0000603e900c1ff3b001fb097004f07780024
:100bb0004f06be004f05be004f04be002f01b1001e
:100bc000000006000801be000300780082007800e3
:100bd000470407000005be000bf0a2006dff3700c0
:100be000ea874700889fbe008a9fbe008c9fbe0098
:100bf0008e1f78000004be00020020000370240055
:100c00009e03070080067800010678006011b80096
:100c10000800be0079020700e00f50003b003500dd
:100c20000d0078008c007800c202070075020700f2
:100c30000003780001077800060078008e00780035
:100c400086bf9f00b60207000004be00020020001d
:100c500003f0230089030700f0b79f00e1b79f006e
:100c6000b40207000005be000801be000d007800b8
:100c70008c03780000027800870278000400be0030
:100c80002701070080067800010678000200200096
:100c900003f023000d0278008c0278000400be00ef
:100ca0005602070000017800e00f51007f00340079
:100cb0000200200003f823000800be00190107000d
:100cc00050020700000378000107780086017800d1
:100cd0000e0178000300780082007800f2ff270000
:100ce000820f5000e08f580002003400f0ff270010
:100cf000010020004f0778004f06be004f05be00e0
:100d00004f04be00af00b100000006000d007800e7
:100d10008c007800600107003a020700f0b79f00de
:100d2000010778008e0078007d0207000004be00f5
:100d30000d0178008c0178000800be0085020700d4
:100d400000017800e00f51000a003200020020008c
:100d500003f823000800be00f10007002902070085
:100d6000f0b79f00010778008e0078006c02070042
:100d70000004be000200200003f023000800be00b3
:100d80003e030700e0b79f00d1b79f00690207004c
:100d90000005be000801be000c03be00070278007b
:100da000860278000400be00dd000700800678009f
:100db000010678000200200003f023000d027800f5
:100dc0008c0278000400be000c02070000017800cd
:100dd000e00f5100180034000200200003f8230047
:100de0000800be00cf00070006020700f0b79f0012
:100df00001077800ffb197000e017800030078002a
:100e00008200780002002800f3ff2f00820f5000bc
:100e1000838f5800b7ff3d000200be004f077800e7
:100e20004f06be004f05be004f04be00af00b1002c
:100e300000000600b5ff37000200200003f0230089
:100e40000c00be0001027800800278000400be00a1
:100e5000e801070000067800e00f5600e5ff3a00c1
:100e60000a01be00efb297005fb29700050078005c
:100e700084007800aa0007000001be00a900070056
:100e8000e00107008c0f5000daff32000200200062
:100e900003f823000800be00a2000700d9010700e4
:100ea000f0b79f0001077800d2ff37000200200052
:100eb00003f023000c00be000102780080027800dd
:100ec0000400be00cb010700000678000fbb9700ae
:100ed000e00f56007dff3a000a01be00ffb2970006
:100ee0006fb2970005007800840078008c0007003e
:100ef0000001be008b000700c20107000fbb970076
:100f00008c0f500071ff32000200200003f8230014
:100f10000800be0083000700ba0107000003780044
:100f20000107780069ff3700000005002800fa007b
:100f3000889fbe008a9fbe008c9fbe000706780077
:100f4000878669000c003b00030478008704780062
:100f500008f0a10009f0a100840f5000858f58000f
:100f6000860f5900890f5c00030033000cf0a200cb
:100f700001003a000cf0a1003f0107006400e1000d
:100f80005f003200780147006408e1006100320030
:100f90006c014700748557003200be001201be008c
:100fa0003a04be001a05be001e039000be0a90005f
:100fb0008503530006003d000004fd008104fd0090
:100fc0000205fd008305fd008703ea0005037800a4
:100fd0000df8a3000400320060041400e0841c003b
:100fe00060051d00e0851d006022b8007d03200023
:100ff0000d38e1008006eb000b0039004433dd00c2
:10100000f300b2008301730039003700848272005c
:101010000d027800e10664008b85d1000a85d300bb
:101020008984d3000884d3008703e900f7ff3b00dd
:1010300008004000898048000a0149008b8149006e
:1010400004003b0060001000e080180060011900ff
:10105000e08119000358a300090032008d8272005c
:1010600084827200610260008301d1000281d3009a
:101070008180d3000080d3000603e8001b00370006
:101080000348a30017003a000600e00017003400f0
:101090000603e9000d00a30000004800818048001d
:1010a00002014900838149000348a3000f003a0070
:1010b0000600e000090034000603e90000004000db
:1010c00081804800020149008381490001003a0003
:1010d0000003eb000348a300f5ff32006022b800d4
:1010e000020037008482720061826600b600070049
:1010f00003f0a1000cf0a70003f0a000f2003700fd
:10110000640147006408e10002003a000df8a30002
:10111000ea003a003200be001201be00ea003700c9
:1011200003f0a200889fbe008a9fbe008c1f78003b
:10113000c5010700cc0133006450e1004f003200cc
:101140006420e1005200320003826c0007003b0083
:101150000905d0000306d000820f54000c065d0084
:10116000020039000200320089017800030678008d
:101170008582550004003d000003fd008103fd0051
:101180008502ea008b854200840f720002003b005a
:1011900060001000e08018006011b8000005eb004e
:1011a0007a28e1000a00390006007800c75ddd00fa
:1011b000f707b200878075002d003700828171002b
:1011c0000a017800610560008180d1000080d300b1
:1011d0008502e900f9ff3b000604400087844800cf
:1011e00002003b0060041400e0841c000988a30096
:1011f000070032008a817100828171006101640000
:101200008904d1000884d3008b05e800170037005b
:101210000978a30013003a000b00e000130034002b
:101220008b05e9000804440089844c000a447400da
:101230000978a3000d003a000b00e000070034001d
:101240008b05e9000804440089844c0001003a0041
:101250000b0020000978a300f7ff32000001eb002b
:1012600002003700828171000a0178003b0107000b
:101270000cf0a70001f0a000840137006420e10019
:1012800002003a00838f6c00840133000801be0025
:101290000200be007d0137000001eb00ae00070038
:1012a000040032000200200003f8230001f0a60031
:1012b0009cff0700000006000081eb0023023700be
:1012c000889fbe008a9fbe008c1f78005e010700c9
:1012d0006501330003866c006450e1002e0032008b
:1012e0006420e100330032006150e1002f00320041
:1012f0006120e1003100320085855500eb07b00028
:1013000009002000080420000500370008044400fc
:1013100089844c000a0031000603430087834b0098
:101320000001530081815b00f8ff33000203be001f
:101330000800a0000804440089844c00f6ff39002e
:10134000c639dd0083017300010032001300200064
:101350008904d1000884d3000998a3000500320055
:101360000800a7000300a0008904d1000884d3006e
:101370008b05e8008904d1000884d3000001eb004c
:101380000281d200f500070001f0a1000cf0a700d7
:1013900001f0a0003d0137006420e1003f01320070
:1013a0000801be000200be00f7ff37006120e10027
:1013b0003a0132006000b800f3ff3700000020005f
:1013c00001f82700f0ff3700180020005700200028
:1013d000080453000d003d000600200097fc2f007c
:1013e0000740e1001e003400848272006102600048
:1013f0008301d1000281d3008180d3000080d3001b
:101400000804e800f8ff3a0047002000610460008b
:1014100005047400040464000d0032006100400003
:10142000e080480060014900e081490003b8a50060
:10143000070032000603e8006538e10004003a00c6
:101440008301d1000281d3008180d3000080d300ca
:10145000f87f20000830e100030035000803780021
:101460006000b8006011b8004433dd00f300b20042
:101470008301730000000600680447000294be0068
:101480000094be00fc0447008694be008494be0015
:1014900009007800260207000800780024020700ef
:1014a00099007800814f70000b003b000800be00df
:1014b000110207004f00b10003003700f3ff2700bf
:1014c000f2ff2f006110b9004f06be004f05be00ad
:1014d0004f04be000080fa0000000600810378007f
:1014e000c40007000001be006000b8000478a3003b
:1014f00013003a006220e10015003e000d003900a3
:101500008301d1000281d3008180d3008301d10007
:101510000281d3008180d3008301d1000281d300f6
:101520008180d3000538b000c42add00f300b2008a
:101530008381720007f0a70003f0a00000000600fe
:10154000f3ff2700f2ff2f006110b900fbff370007
:1015500003ff2700f7ff3700889fbe008a9fbe0069
:101560000003be00a30007008505780082815200b9
:10157000020020006220e10004003a00f307b100fd
:10158000040035007718e100040035000600be00b5
:10159000140037006000b8000f003700f50f20007e
:1015a000faff2f008502d1000a85d3008301e900ec
:1015b000fcff3b008184620000046500890f740019
:1015c000f2ff32008582ea000a85ea008184620027
:1015d000000465006100070007f0a70001f0a0000b
:1015e0000081eb000200e0004f05be004f04be008a
:1015f0000000060014002000f4013700f4ff2f0063
:10160000f20137000001be007a0007000470a70055
:1016100003f0a1006509b100160032000d0035008d
:101620006828e10006003500f0ff2f00f1ff2700d9
:101630000300e00013003b0001002800000005004b
:1016400000004000818048008502e900fcff3a006c
:1016500008003700f88f420002003c008000eb00d9
:10166000000005008100d1000080d3008502e80061
:10167000fcff3a000300e00002003b0060001000a5
:10168000e0801800000006001400fa00889fbe00e9
:101690008a9fbe008c9fbe000004be000205be00f3
:1016a000680047000a90be000890be00a001070035
:1016b0000070a7000bf0a1000bf8a30016003a0081
:1016c0009e0290003043200080825200b0fe2f0026
:1016d0000028e1000d003c00b0fc2f000028e100d4
:1016e0000d0034001e0990008e0890007e009000ce
:1016f0000501b0000201d1008180d3000080d30039
:101700008502e800fbff3a006fff37000100280068
:10171000000020006cff37006000b8006aff37004f
:101720004f89de0082017800c30137006011b800e4
:10173000d10137000001eb0087ff070004003200f1
:101740000200200003f8230001f0a70074fe070048
:1017500000000600040020009c01370081002000ea
:10176000618055000b003d000b00200061fe2f0042
:101770000100e1001d0034008281710061016400fc
:101780008904d1000884d3000000e800faff3a0081
:10179000710020006100640003007000020060001e
:1017a0000900320061044400e0844c000988a5006f
:1017b000050032008b05e8006808e10002003a00ed
:1017c0008904d1000884d300f20f20000258e10000
:1017d00005003d00c75ddd00f907b2008980750096
:1017e00008007800000006000bf827008b00780046
:1017f00000000500c70ade00f107b200f50fb200d5
:1018000008003200e1cf4200020032000170a00067
:1018100024000500810f700001003200040805005b
:1018200044000500810f700002003a00140005001a
:101830008502e9000000400081c04800fcff3b0039
:101840000170a000240005000004be00e9ff0700ad
:101850000003be000405be000200be00e5ff070055
:10186000844f7500000006000200be006450e100d5
:10187000050036006420e100020036000968a3007c
:1018800001003a000800be000160a0004f06780089
:101890004f05be004f04be0000000600f0ff2f0001
:1018a000f1ff2700f9ff37002800fa00889fbe00eb
:1018b0008a9fbe008c9fbe0003866b00eefe070071
:1018c0000028a30064003a000128a30067003a0042
:1018d0000008a30062003a000108a30065003a0076
:1018e0001e009000be08900081064000ed3fb10050
:1018f000f4805700ee019000111ab8008e09900094
:10190000311bb8009e099000311cb800511db80071
:10191000f485570046000700fe0190003a000700da
:101920008b85e8003e0007008e099000400007000c
:10193000ee019000340007008b85e80038000700b6
:101940008e099000400007009e0990001b18b80007
:10195000890440000a854800fe0190003400070019
:101960008b85e80038000700ee019000300007008a
:101970008e0990001b18b800890440000a854800b1
:101980000a98a30008003a000402420085824a0037
:1019900006034b0087834b0008044c0089844c00ed
:1019a0000a054d008d06e9008482720085027300ed
:1019b0004c3add0085027200010032001500200063
:1019c000443ade001400b2004538de00cb45dd00ad
:1019d0000b007000c540de00cb4ddd008b80700039
:1019e0004549de00cb55dd000b017100c551de001d
:1019f0000d03780074fe070003f0a1000cf0a700af
:101a000003f0a000b0fe37001b18b80085024000ac
:101a100006834800e0834b0060044c000700370059
:101a20001b18b8000603400087834800faff370000
:101a30001b18b8008703400008844800e0844c006d
:101a400060054d00000006001b18b80008044000a7
:101a500089844800faff37000108a30097fe3a0086
:101a60005800be005801be00e3ff37000008a30085
:101a700092fe3a0009047800f9ff3700889fbe0003
:101a80008a9fbe008c1f78006fff070076ff33002f
:101a900003866c006450e100240032006420e10001
:101aa000270032006150e100220032006120e10095
:101ab000210032008b854200eb07b1000134b800f1
:101ac000003ab8000804420089844a00013ab8008c
:101ad0000030b8008880400009014a00040033004b
:101ae0000000400081804800020149008b05e900a8
:101af000c909dd00830170000100320013002000dd
:101b0000c814de004814dd004709de001200b200f0
:101b1000c808de000884700010ff070001f0a10073
:101b20000cf0a70001f0a00058ff37006120e10091
:101b30005aff32000801be000200be00f7ff370066
:101b40006150e100fcff3a0054ff3700889fbe005f
:101b50008a9fbe008c9fbe00820578000004be00f4
:101b600024ff07000800be006420e10007003900e0
:101b700002003a00f1ff2700f0ff2f000160a000f3
:101b800012022000d2828800550037006120e10057
:101b900003003a000b00a70001f8230050003700b3
:101ba00001f0a100020021009364240091fe0700cf
:101bb0000800be0004003500b2fd2000930c240094
:101bc000dc0007000004be000005eb000b00a600cf
:101bd0004f0dde0001f0a1000004be0032982f007e
:101be00023ea2300a5ff07000001eb0003f0230018
:101bf0000b00a70003f823004afd070081fe070041
:101c00000000a7000a00a200c5fe07000b00e000cc
:101c1000030032000200200003f0230040fd070013
:101c200001f0a2000006be00020020009304240080
:101c300092ff07000801be003afd0700809fbe002a
:101c40000c00be0022a22a00d3a723008bff0700ae
:101c50004f01be0033fd07000004be0001f0a100eb
:101c6000020020000398230062fe07000800be0067
:101c7000190035000001be0080ff07000006be000d
:101c8000b2c52900e36223007cff070022222b005b
:101c9000f3942b0023fd07000c01be0077ff070023
:101ca000e273280083c023001efd07000c01be0064
:101cb00072ff070042aa2a00a3e22b0019fd0700c9
:101cc0000c01be006dff07000801be006bff07009e
:101cd0000801be0013fd07000a00a70001f0a200e2
:101ce0004f06be004f05be004f04be0000000600b8
:101cf0000001eb0095ff3700e48240001078a3005c
:101d000007003200640240001178a3003400be00d6
:101d10001401be00040032000330a70000000600da
:101d20003500be001501be000330a0000000060013
:101d3000800078005002be005003be004439de002f
:101d4000f700b200f37f20000301610009003200b8
:101d50000218e10016003a00850172008301730049
:101d6000838173000008200015003a004000200025
:101d700013003700850172008301730083817300b3
:101d800005003a0004a8be0006a8be00100020000e
:101d90000b0037000201e9000402420085824a007c
:101da00006034b0087834b000748a300f9ff32006e
:101db0000740a00004a8be0006a8be002000200026
:101dc000800098009200980000000600889fbe00e6
:101dd0008a9fbe00841f78009bfe07004f0078009a
:101de00011003300f0ff2f00838f6c0006003b00d2
:101df000040565000a00a7000800370009f0a600e6
:101e00001000200008003700820f5400838f5c0010
:101e1000030039001000200001003e0000002000f7
:101e200009f0a7000000ea004f05be004f04be0005
:101e30000000e00000000600881f7800030478001e
:101e40000300e00007003d0060001000e080180083
:101e500060011900e081190002003b0001f02d0033
:101e6000030037000400070008f0a70001f0a000fd
:101e70004f04780000000600889fbe008a9fbe00c5
:101e8000008270000402710004827100260032009a
:101e90000004be000200be006011b8006b09200003
:101ea000950220000182cf000a0039000541b100ef
:101eb0000082cf00070039000541b1000982cf0040
:101ec000040039000541b1000882cf00010039004b
:101ed0000541b10005425200120032000a003b00e9
:101ee00082817100610164008100d1000080d30013
:101ef0008984d3000884d3008b05e8000442e800fd
:101f0000f7ff3a00070037000804440089844c00ba
:101f100000004800818048008b05e9000442e90088
:101f2000f9ff3a000dfe07004f05be004f04be004a
:101f3000000006000400200000003700889fbe005b
:101f40008a9fbe008c1f78004f26dd003efe0700f2
:101f500045fe33006120e100430032006250e100a1
:101f600041003e003e0039006420e1003c003200a8
:101f7000058255000f003b000402e80038003a00db
:101f8000800f5300818f5b00350034000800be00d5
:101f900003f0a10001f0a60003f0a0000cf0a700e0
:101fa00060fc070039fe37000603430087834b00bf
:101fb0000c4646000005530081855b00020033009b
:101fc0000a03be000c00a0000402e900f6ff3b007b
:101fd000850578000602430087824b0004003a0022
:101fe0006000b80009f0a70001f0a00027fe37004c
:101ff0000002520081825a000704e000040033000e
:102000000603430087834b008b05e900faff370086
:10201000090578000604be000203be006011b80086
:10202000cefd0700e00f5200e08f5a000700350098
:1020300002003c000c08a300040032000601be00b0
:1020400003f0a0000cf0a70036fc07000a8568002a
:1020500001f0a1000af0a70001f0a0000bfe37007c
:102060000800be0009fe3700100220000cf0a60098
:08207000d082880009fe370050
:020000040000fa
:10207800320e0000300e00003e0e0000010000008d
:10208800320e0000300e00003e0e0000030000007b
:10209800520e0000500e00005e0e0000000000000e
:1020a800420e0000400e00004e0e0000000000002e
:1020b800420e0000400e00004e0e0000020000001c
:1020c800420e0000400e00004e0e0000040000000a
:1020d800420e0000400e00004e0e000006000000f8
:1020e800620e0000600e00006e0e00000600000088
:1020f800120e0000100e00001e0e0000030000006b
:10210800120e0000100e00001e0e0000010000005c
:10211800120e0000100e00001e0e00000800000045
:10212800120e0000100e00001e0e00000a00000033
:10213800520e0000500e00005e0e00000400000069
:10214800120e0000100e00001e0e00000d00000010
:020000040000fa
:102158000000fa009070800000c0a1009070880014
:102168000080fa00000006000000fa00907080006d
:1021780000c0a000907088000080fa0000000600ef
:102188000200fa00004f78001e80fb00800040002b
:10219800200a21000080400010007800100078001c
:1021a800900078001e80fb0000014000200a2100fa
:1021b800000041001000780010007800100078003e
:1021c800100178001e80fb0080014000200a2100d9
:1021d80000804100100078001000780060409000f6
:1021e8000080fb00330020000018dd000080ea00ba
:1021f80000006100800878001e80fb00800040001d
:10220800200a210000804000100078001000900093
:10221800900078001e80fb0000014000200a210089
:1022280000004100100078001000900010007800b5
:10223800100178001e80fb0080014000200a210068
:10224800008041001000780010009000604090006d
:102258000080fb00330020000018dd000080ea0049
:1022680000006100800878000080fa000000060085
:102278000400fa00004f78001147980012079800f0
:102288001e80fb0080004000200a210000804000e2
:10229800100078009e009000210098001e80fb002e
:1022a80080004000200a21000080400010007800d3
:1022b8009e409000714098000080fa0000000600df
:1022c8000800fa0060479800714798006e40900037
:1022d8000080fb0080004000200a210000804000b0
:1022e80010007800100f78006e4090000080fb000e
:1022f80080004000200a2100008040001000780083
:1023080090009000110798006e4090000080fb003c
:1023180080004000200a2100008040001000780062
:1023280066004000200798002e00900010407800ba
:102338008040e8002e009000014878006e40900030
:102348000080fb0080004000200a2100008040003f
:102358001000780000489000fe40900000c0500037
:10236800704798007e4090000004e0009e00320014
:102378002e009000104078000000fb00e40f500091
:102388004d003200e40f50000c003c00e10f5000fb
:1023980021003200e10f500003003c000000e00083
:1023a8000f0032008c003700e20f50002700320087
:1023b800e30f50003300320087003700e60f50006b
:1023c80058003200e60f500049003500e70f500072
:1023d80062003200e80f50006d0032007e003700c6
:1023e8001e007800100078009e00780091007800a8
:1023f800110178009e007800e14090008180fb0088
:10240800330020008118dd008180ea00810061002e
:1024180001087800110137001e00780010007800cc
:102428009e00780091007800110178009e007800e5
:10243800e14090008180fb00130020008118dd003e
:102448008280700001087800040137001e009000a7
:10245800100078009e00900091007800110178002b
:102468009e009000e14090008180fb003300200036
:102478008118dd008180ea00810061000108780090
:10248800f60037001e009000100078009e009000b3
:1024980091007800110178009e009000e1409000c2
:1024a8008180fb00130020008118dd00828070000d
:1024b80001087800e90037001e0078001000780055
:1024c8009e00780091007800110178009e00780045
:1024d800e14090008180fb00330020008118dd007e
:1024e8008180ea008100610001087800db00370084
:1024f8001e007800100078009e0078009100780097
:10250800110178009e007800e14090008180fb0076
:10251800230020008118dd00828070000108780007
:10252800ce0037001e009000100078009e0090003a
:1025380091007800110178009e009000e140900021
:102548008180fb00330020008118dd008180ea00d3
:102558008100610001087800c00037001e0090006b
:10256800100078009e00900091007800110178001a
:102578009e009000e14090008180fb002300200035
:102588008118dd008280700001087800b3003700f0
:102598001e007800100078009e00780091007800f6
:1025a800110178009e007800e14090008180fb00d6
:1025b800330020008118dd008180ea00810061007d
:1025c800010878002e0090008040eb000148780058
:1025d80000000000a10037002e0090008040eb00b2
:1025e800014878009d0037002e00900010407800c8
:1025f8000000fb00e40f50004d003200e40f5000d3
:102608000c003c00e10f500021003200e10f5000a7
:1026180003003c000000e0000f0032008b00370090
:10262800e20f500027003200e30f50003300320061
:1026380086003700e60f500058003200e60f5000c1
:1026480049003500e70f500062003200e80f5000e3
:102658006d0032007d0037001e0078001000780001
:102668009e00780091007800110178009e007800a3
:10267800e14090008180fb00330020008118dd00dc
:102688008180ea008100610001087800730037004a
:102698001e007800100078009e00780091007800f5
:1026a800110178009e007800e14090008180fb00d5
:1026b800230020008118dd00828070000108780066
:1026c800660037001e009000100078009e00900001
:1026d80091007800110178009e009000e140900080
:1026e8008180fb00330020008118dd008180ea0032
:1026f8008100610001087800580037001e00900032
:10270800100078009e009000910078001101780078
:102718009e009000e14090008180fb0013002000a3
:102728008118dd0082807000010878004b003700b6
:102738001e007800100078009e0078009100780054
:10274800110178009e007800e14090008180fb0034
:10275800330020008118dd008180ea0081006100db
:10276800010878003d0037001e007800100078004e
:102778009e00780091007800110178009e00780092
:10278800e14090008180fb00130020008118dd00eb
:102798008280700001087800300037001e00900029
:1027a800100078009e0090009100780011017800d8
:1027b8009e009000e14090008180fb0033002000e3
:1027c8008118dd008180ea0081006100010878003d
:1027d800220037001e009000100078009e00900034
:1027e80091007800110178009e009000e14090006f
:1027f8008180fb00230020008118dd0082807000aa
:1028080001087800150037001e00780010007800d5
:102818009e00780091007800110178009e007800f1
:10282800e14090008180fb00330020008118dd002a
:102838008180ea0081006100010878002e00900084
:102848008040eb0001487800040037002e0090001b
:102858008040eb0001487800000000006e409000c6
:102868000080fb0080004000200a2100008040001a
:1028780010007800a00090008100e9002100980075
:102888000080fa00000006000400fa000040eb0097
:10289800004f78005d0037001e80fb00800040007c
:1028a800200a210000804000100078009000780085
:1028b800110798001e009000100090009e009000e4
:1028c80091009000110178009e009000e140900076
:1028d8008180fb00330020008118dd008180ea0040
:1028e80081006100010878001e009000200090001f
:1028f8009e009000a1009000110178009e009000b9
:10290800e14090008180fb00330020008118dd0049
:102918008180ea0081006100010878001e009000b3
:10292800100078009e009000910078001101780056
:102938009e009000e14090008180fb003300200061
:102948008118dd008180ea008100610001087800bb
:102958001e80fb0080004000200a2100008040000b
:102968001000780090009000110798001e00900059
:10297800100090009e0090009100900011017800d6
:102988009e009000e14090008180fb003300200011
:102998008118dd008180ea0081006100010878006b
:1029a8001e009000200090009e009000a100900062
:1029b800110178009e009000e14090008180fb00aa
:1029c800330020008118dd008180ea008100610069
:1029d800010878001e009000100078009e0090000a
:1029e80091007800110178009e009000e14090006d
:1029f8008180fb00330020008118dd008180ea001f
:102a080081006100010878001e4fe8001e40780030
:102a1800e64f5000a0ff36008070800000c0a10083
:102a280080708800f070800000c0a100f0708800fd
:102a3800807180000070a10080718800f0718000b2
:102a48000070a100f07188000080fa000000060004
:102a58000000fa003100070004000700801b200076
:102a6800620007000080fa00000006000000fa007b
:102a78001ecea80061e3a80061a3a900011b800085
:102a8800f0cf2f0000806000001b8800011b800031
:102a9800f0f12f0000806000001b88006083a9000f
:102aa8006063a9006043a900111b8000f0ff2100aa
:102ab80000806000101b88006343a900111b800080
:102ac800f0cf2f0000806000101b88006223a9004f
:102ad8006203a90065e3a9006463ef007303a9001a
:102ae800411b800000fe2f00008060006000b300e2
:102af800401b8800411b8000f00f2e008080600082
:102b08000060200001007000401b880068e3a900f5
:102b180069e3a9000080fa00000006000000fa003e
:102b28001e0ea800100ea80021e3a80021a3a900ea
:102b38002143a80001198000f0cf2f000080600019
:102b4800001988002083a90001198000000e2000c8
:102b580001007000001988002043a80011198000a6
:102b6800f0ff210000806000101988002343a900ad
:102b78001119800030f82f0080806000c003200009
:102b880001007000101988002223a9002203a9005f
:102b980025e3a90021198000f00f2e0000806000b5
:102ba80020198800a0cfb30024e3b7003303a9009d
:102bb8004119800000fe2f00008060004019880045
:102bc80041198000f00f2e00008060004019880035
:102bd80028e3a90029e3a9002e23ef003023ef0002
:102be80021a8a8000080fa00000006000a00fa00e8
:102bf800400798004e0090008000eb00c9fa0700db
:102c08000001be0000002500319c2400aaf907003d
:102c180030fa0700009fbe000297be006022b8008d
:102c280016b8250057ff23003e00be002e01be0047
:102c38001bfb07006022b8000600200007fe2300e7
:102c4800b8f807008efa0700000078006042890093
:102c58006022b800e6232800c7ff23003e00be001c
:102c68002e01be000efb07006022b80006002000ff
:102c780007fe2300abf8070081fa07000000780080
:102c8800504289000400200005002c00a6592f009e
:102c980017ff23003e00be002e01be0000fb070008
:102ca8000002be000203be009ef807006022b800c2
:102cb8000600200007fe23009af8070070fa0700b4
:102cc80000007800404289000400200005002e0022
:102cd80006912f0077ff23003e00be002e01be00a4
:102ce800effa07000002be000203be008df80700dd
:102cf8006022b8000600200007fe230089f80700bc
:102d08005ffa070000007800304289006022b800ae
:102d180006002000070124003e00be002e01be0070
:102d2800dffa07006022b8000600200007fe230033
:102d38007cf8070052fa070000007800204289005a
:102d48006022b80016b8250057ff23003e00be00d9
:102d58002e01be00d2fa07006022b800060020004b
:102d680007012400cefa07006022b8000600200000
:102d780007fe23006bf8070041fa070000007800ff
:102d8800104289006022b800e6232800c7ff23000c
:102d98003e00be002e01be00c1fa07006022b80046
:102da8000600200007012400bdfa07006022b800d1
:102db8000600200007fe23005af8070030fa070033
:102dc80000007800004289000080fa000000060038
:102dd800809fbe00821f78003200f8003400f8009f
:102de80010002000a0018800002020009001880029
:102df800000000000200fa00907180000070a0003e
:102e08009071880054d0bf00e14f50001c003a0078
:102e18000000eb00000f780016003700d08180001a
:102e28009e00780001814000210f210081004100af
:102e38009100780091007800000140000000220015
:102e48000000410001087800d08180000000e800ff
:102e5800d0818800d181800000402000808f500000
:102e680003003a003a30ef0020c0b30054f0b70036
:102e78001e0fe8001e007800ef0f5000e7ff340037
:102e880001a8a900907180000070a10090718800cd
:102e98000080fa003400f9003200f9004f01780090
:102ea8004f00be00004006000400fa000040eb009e
:102eb800004f7800210037001e80fb008000400092
:102ec8002011210000804000900078001107980030
:102ed8001e009000100090009e009000910090004d
:102ee800110178009e009000e14090008180fb0075
:102ef800130020008118dd008180ea008100610054
:102f0800010878001e009000200090009e009000ac
:102f1800a1009000110178009e009000e14090000f
:102f28008180fb00130020008118dd008180ea0009
:102f380081006100010878001e4fe8001e407800fb
:102f4800e64f5000dcff36000080fa000000060063
:102f58000200fa00004f78001e80fb00800040004d
:102f680020112100008040001000780090007800b7
:102f78001e80fb00000140002011210000004100dc
:102f88001000780010007800100178001e80fb0007
:102f980080014000201121000080410010007800cd
:102fa800604090000080fb00130020000018dd0046
:102fb80002007000800878000080fa000000060017
:102fc8000200fa00004f78001e80fb0080004000dd
:102fd8002011210000804000100078009000780047
:102fe8001e80fb000001400020112100000041006c
:102ff8001000780010007800100178001e80fb0097
:10300800800140002011210000804100100078005c
:10301800604090000080fb00130020000018dd00d5
:103028000080ea0000006100800878000080fa0053
:10303800000006000200fa00004f78002700070091
:103048001e407800c2ff07000080fa00000006005a
:103058000200fa00004f78003d0007001e4078008b
:10306800d7ff07000080fa00000006000400fa00fd
:103078000040eb00004f7800130037001e80fb0073
:10308800800040002011210000804000900078005e
:10309800110798001e009000100078009e00900014
:1030a80091007800110178009e009000e1409000a6
:1030b8008180fb00130020008118dd008100690079
:1030c800010878001e4fe8001e407800e64f5000c7
:1030d800eaff36000080fa00000006000400fa004b
:1030e8000040eb00004f7800140037001e80fb0002
:1030f80080004000201121000080400090007800ee
:10310800110798001e009000100078009e009000a3
:1031180091007800110178009e009000e140900035
:103128008180fb00130020008118dd008180ea0007
:1031380081006100010878001e4fe8001e407800f9
:10314800e64f5000e9ff36000080fa000000060054
:103158000400fa000040eb00004f7800130037002d
:103168001e80fb00800040002011210000804000ec
:1031780090007800110798001e0090001000780059
:103188009e00900091007800110178009e00900048
:10319800e14090008180fb00130020008118dd00d1
:1031a80082807000010878001e4fe8001e407800f9
:1031b800e64f5000eaff36000080fa0000000600e3
:1031c8000400fa000040eb00004f78002c003700a4
:1031d8001e80fb0080004000c00e210000804000df
:1031e80090007800110798001e00900010009000d1
:1031f8009e00900091009000110178009e009000c0
:10320800814890008180fb00130020008118dd00b8
:1032180082807000010878001e0090002000900055
:103228009e009000a1009000110178009e0090007f
:10323800814890008180fb00130020008118dd0088
:103248008180ea0081006100010878001e0090007a
:10325800300090009e009000b100900011017800ad
:103268009e009000814890008180fb0013002000a0
:103278008118dd0082807000010878001e4fe80088
:103288001e407800e24f5000d1ff36000080fa005f
:10329800000006000200fa00000f78001e00780007
:1032a800700090008000e9001e007800710098000e
:1032b8001e007800700090000080fa0000000600f0
:1032c8000200fa00000f78001e0078000008900045
:1032d8008000e9001e007800010898001e007800b0
:1032e800000890000080fa00000006000200fa00c2
:1032f800000f78001e007800100078009000780019
:103308001e007800004890000080fb00120020009a
:103318000010dd00008060000080fa000000060058
:103328000400fa00204798002e4090000080fb001f
:1033380080004000c00e210000804000100f78007f
:103348001e007800e9ff07000000e00010003200ce
:103358001e007800d00090001e00780071009800d0
:103368001e007800d6ff07000000e0001d003a00ac
:103378001e0078008040eb00215098001e00780065
:10338800e00090001e007800010898001500370042
:103398001e007800e00090001e00780001089800e8
:1033a8001e007800bbff07000000e0000d003a0097
:1033b8001e007800205090000004e00005003a004c
:1033c8001e00780011c0b3002150980010002000a2
:1033d800050037001e007800d00090001e0078001d
:1033e800710098000000eb000080fa000000060061
:020000040000fa
:1033f800007c00000004000080000000561000005f
:1034080004000000800000005c1000005400000070
:10341800820000003c904400900000000000010081
:10342800004c9000549000000000000001005c0077
:103438009064900000000000000100006c9074008f
:103448009000000000000000007c900084900000c4
:103458000000000000008c00909490000000000024
:10346800000000009c90a4009000000000000100f3
:10347800005c100066107000107a100084108e0036
:1034880010981000f21000002000000082000000d8
:10349800000302000304030006030800030a0300f4
:1034a8000c030e000310030012031400031603009c
:1034b80018031a00031c03001e030000002000006c
:1034c8004e08000080000000381000001e000000b8
:1034d80080000000121100000e00000082000000b1
:1034e80000100800101010001810200010281000fc
:1034f80030100000001000003800000082000000ba
:10350800220e20000e2e0e000e0022000e200e00ad
:103518002e0e0d0000320e00300e3e000e00000090
:10352800320e30000e3e0e000b0032000e300e0040
:103538003e0e0a0000320e00300e3e000e0900005a
:10354800320e30000e3e0e0008000000b0100000e1
:103558004200000082000000320e30000e3e0e00d5
:103568003a0e060000c80000c80000000000000075
:10357800000032000e300e003e0e3a000e0500002c
:10358800c800c800000000000000000000120e0083
:10359800100e1e000e1a0e000f00c80000c8000012
:1035a8000000000000000000b010c40010d8100097
:1035b80000700000000c00008000000000600000a7
:1035c8000010000080000000001800000008000043
:1035d80080000000201100000200000082000000ae
:1035e800000400005a1000000200000080000000e3
:0435f80000000000cf
:020000040000fa
:1035fc000000fa000001eb0001802100a000200077
:10360c00b9f407000080fa00000006000600fa007a
:10361c0010079800210798000000eb00000f7800bd
:10362c003c0037001e007800000040009e00900017
:10363c00008040009000780050802f008080400077
:10364c001e0078004201dd00000026000000410051
:10365c00010878001e007800c200dd002000260062
:10366c00008040008000eb00010878001e0078000c
:10367c00c200dd00000026000080400090007800b1
:10368c0000f82f00808f500007003d001e007800ce
:10369c00c200dd0000002600008040000100280070
:1036ac00010878001a0037001e007800c200dd0007
:1036bc0000002600008040009000780000082000e8
:1036cc00808f5000070034001e007800c200dd001f
:1036dc000000260000804000f1ff27000108780060
:1036ec000b0037001e007800c200dd000000260031
:1036fc000080400010007800c800dd001e0078003b
:10370c004201dd00000026000000410001087800a5
:10371c001e0fe800f03f20009e007800808f5000c4
:10372c00c0ff340003f02f000280210001002600ae
:10373c00a0002000e6f3070001002600a0002000f6
:10374c00abf307002e0190000100260000202000a2
:10375c00c5f307000080fa00000006000000fa0024
:10376c00bafc070047fc070094fe0700cdfd0700dc
:10377c009fff07000080fa00000006000000fa001e
:10378c00a0022000303a8800213a8000f0f32f008c
:10379c0000806000203a8800213a800000fe2f0053
:1037ac0000806000203a8800320020008007200052
:1037bc00a1092000337420008049780081497800e9
:1037cc0082497800103a8000000178000200a000c5
:1037dc0060042000710520002374200080497800cb
:1037ec00814978008249780000000000113a80007d
:1037fc00000027008080600000002300808f5000b4
:10380c00faff3a0000000000113a8000000220008c
:10381c00008060000000e000fbff32000080fa0036
:10382c00000006000200fa000000eb00000f780018
:10383c00010037001e0fe800703821009e00780050
:10384c00808f5000fbff36000080fa00000006005d
:10385c000000fa00c1ff070042fa07005470ef00a5
:10386c00010037000000000054d0bf00e24f5000b0
:10387c0004003a0001c027000000220063ff07008b
:10388c005470ef000040eb00a4fe07000000e000c5
:10389c00f4ff320010c0b30054f0b700f2ff370051
:0838ac000089880000000600fd
:020000040000fa
:0200000401f009
:04000800cfff000026
:020000040000fa
:0200000401f009
:04000c007affff0078
:020000040000fa
:0200000401f009
:040010005affff0094
:020000040000fa
:0200000401f009
:040014005fffff008b
:020000040000fa
:0200000401f009
:04001800ffffff00e7
:020000040000fa
:0200000401f009
:04001c00dfffff0003
:020000040000fa
:0200000401f009
:04002000cfffff000f
:00000001FF
