:020000040000fa
:080000000002040000000000f2
:020000040000fa
:04000800e002000012
:020000040000fa
:04000c00e00200000e
:020000040000fa
:04001000e00200000a
:020000040000fa
:04001400e002000006
:020000040000fa
:04001800e002000002
:020000040000fa
:04001c00e0020000fe
:020000040000fa
:04002000e0020000fa
:020000040000fa
:04002400e0020000f6
:020000040000fa
:04002800e0020000f2
:020000040000fa
:04002c00e0020000ee
:020000040000fa
:04003000e0020000ea
:020000040000fa
:04003400e0020000e6
:020000040000fa
:04003800e0020000e2
:020000040000fa
:04003c00e0020000de
:020000040000fa
:04004000e0020000da
:020000040000fa
:04004400e0020000d6
:020000040000fa
:04004800e0020000d2
:020000040000fa
:04004c00e0020000ce
:020000040000fa
:04005000e0020000ca
:020000040000fa
:04005400e0020000c6
:020000040000fa
:04005800e0020000c2
:020000040000fa
:04005c00e0020000be
:020000040000fa
:04006000e0020000ba
:020000040000fa
:04006400e0020000b6
:020000040000fa
:04006800e0020000b2
:020000040000fa
:04006c00e0020000ae
:020000040000fa
:04007000e0020000aa
:020000040000fa
:04007400e0020000a6
:020000040000fa
:04007800e0020000a2
:020000040000fa
:04007c00e00200009e
:020000040000fa
:04008000e00200009a
:020000040000fa
:04008400e002000096
:020000040000fa
:04008800e002000092
:020000040000fa
:04008c00e00200008e
:020000040000fa
:04009000e00200008a
:020000040000fa
:04009400e002000086
:020000040000fa
:04009800e002000082
:020000040000fa
:04009c00e00200007e
:020000040000fa
:0400a000e00200007a
:020000040000fa
:0400a400e002000076
:020000040000fa
:0400a800e002000072
:020000040000fa
:0400ac00e00200006e
:020000040000fa
:0400b000e00200006a
:020000040000fa
:0400b400e002000066
:020000040000fa
:0400b800e002000062
:020000040000fa
:0400bc00e00200005e
:020000040000fa
:0400c000e00200005a
:020000040000fa
:0400c400e002000056
:020000040000fa
:0400c800e002000052
:020000040000fa
:0400cc00e00200004e
:020000040000fa
:0400d000e00200004a
:020000040000fa
:0400d400e002000046
:020000040000fa
:0400d800e002000042
:020000040000fa
:0400dc00e00200003e
:020000040000fa
:0400e000e00200003a
:020000040000fa
:0400e400e002000036
:020000040000fa
:0400e800e002000032
:020000040000fa
:0400ec00e00200002e
:020000040000fa
:0400f000e00200002a
:020000040000fa
:0400f400e002000026
:020000040000fa
:0400f800e002000022
:020000040000fa
:0400fc00e00200001e
:020000040000fa
:04010000e002000019
:020000040000fa
:04010400e002000015
:020000040000fa
:04010800e002000011
:020000040000fa
:04010c00e00200000d
:020000040000fa
:04011000e002000009
:020000040000fa
:04011400e002000005
:020000040000fa
:04011800e002000001
:020000040000fa
:04011c00e0020000fd
:020000040000fa
:04012000e0020000f9
:020000040000fa
:04012400e0020000f5
:020000040000fa
:04012800e0020000f1
:020000040000fa
:04012c00e0020000ed
:020000040000fa
:04013000e0020000e9
:020000040000fa
:04013400e0020000e5
:020000040000fa
:04013800e0020000e1
:020000040000fa
:04013c00e0020000dd
:020000040000fa
:04014000e0020000d9
:020000040000fa
:04014400e0020000d5
:020000040000fa
:04014800e0020000d1
:020000040000fa
:04014c00e0020000cd
:020000040000fa
:04015000e0020000c9
:020000040000fa
:04015400e0020000c5
:020000040000fa
:04015800e0020000c1
:020000040000fa
:04015c00e0020000bd
:020000040000fa
:04016000e0020000b9
:020000040000fa
:04016400e0020000b5
:020000040000fa
:04016800e0020000b1
:020000040000fa
:04016c00e0020000ad
:020000040000fa
:04017000e0020000a9
:020000040000fa
:04017400e0020000a5
:020000040000fa
:04017800e0020000a1
:020000040000fa
:04017c00e00200009d
:020000040000fa
:04018000e002000099
:020000040000fa
:04018400e002000095
:020000040000fa
:04018800e002000091
:020000040000fa
:04018c00e00200008d
:020000040000fa
:04019000e002000089
:020000040000fa
:04019400e002000085
:020000040000fa
:04019800e002000081
:020000040000fa
:04019c00e00200007d
:020000040000fa
:0401a000e002000079
:020000040000fa
:0401a400e002000075
:020000040000fa
:0401a800e002000071
:020000040000fa
:0401ac00e00200006d
:020000040000fa
:0401b000e002000069
:020000040000fa
:0401b400e002000065
:020000040000fa
:0401b800e002000061
:020000040000fa
:0401bc00e00200005d
:020000040000fa
:0401c000e002000059
:020000040000fa
:0401c400e002000055
:020000040000fa
:0401c800e002000051
:020000040000fa
:0401cc00e00200004d
:020000040000fa
:0401d000e002000049
:020000040000fa
:0401d400e002000045
:020000040000fa
:0401d800e002000041
:020000040000fa
:0401dc00e00200003d
:020000040000fa
:0401e000e002000039
:020000040000fa
:0401e400e002000035
:020000040000fa
:0401e800e002000031
:020000040000fa
:0401ec00e00200002d
:020000040000fa
:0401f000e002000029
:020000040000fa
:0401f400e002000025
:020000040000fa
:0401f800e002000021
:020000040000fa
:0401fc00e00200001d
:020000040000fa
:04020000e002000018
:020000040000fa
:04020400e002000014
:020000040000fa
:04020800e002000010
:020000040000fa
:04020c00e00200000c
:020000040000fa
:04021000e002000008
:020000040000fa
:04021400e002000004
:020000040000fa
:04021800e002000000
:020000040000fa
:04021c00e0020000fc
:020000040000fa
:04022000e0020000f8
:020000040000fa
:04022400e0020000f4
:020000040000fa
:04022800e0020000f0
:020000040000fa
:04022c00e0020000ec
:020000040000fa
:04023000e0020000e8
:020000040000fa
:04023400e0020000e4
:020000040000fa
:04023800e0020000e0
:020000040000fa
:04023c00e0020000dc
:020000040000fa
:04024000e0020000d8
:020000040000fa
:04024400e0020000d4
:020000040000fa
:04024800e0020000d0
:020000040000fa
:04024c00e0020000cc
:020000040000fa
:04025000e0020000c8
:020000040000fa
:04025400e0020000c4
:020000040000fa
:04025800e0020000c0
:020000040000fa
:04025c00e0020000bc
:020000040000fa
:04026000e0020000b8
:020000040000fa
:04026400e0020000b4
:020000040000fa
:100400004f0521000eff27000e01880000000000ac
:10041000000020000000e000020032000001200087
:10042000200288000c00070040502000010020003e
:100430000f000700000020000000e0000200320072
:10044000000002000000000086050200000000001d
:100450000040da000000fe00800a20000000e000fa
:1004600002003200002020009001880000000600f9
:10047000a1028800800078000000eb001a0037001d
:10048000e280400054a0b4009101ba00e280400034
:1004900054a0b4009102ba00e280400054a0b4001d
:1004a0000002eb00472bde00f507b200a601880032
:1004b000602ce10008003a000049eb000201e8006e
:1004c000020039003420ec0002f0a0008301e900b2
:1004d000f9ff3e00040037006128e100010032000e
:1004e0000082eb000b00070011c3ba001101ba0033
:1004f0000604e00003003a000200e000e0ff3a00da
:1005000000000600f607b200a6028800820078000c
:10051000f5ff370004d0a300e20f49001c003900aa
:10052000810278003549ba000201e8000200390072
:100530003420ec0002f0a0008301e9000f0032003b
:100540002549ba000201e800020039003420ec001d
:1005500002f0a0008301e900080032000400e0007e
:100560000600320015c9ba000201e8000200390095
:100570003420ec0002f0a0008301e9008180e80053
:1005800054a0b4000300e000e2ff3a0000000600bf
:100590009102ba00055978008301e900f7ff3200a3
:1005a000c82ade00055978008301e900f3ff320014
:1005b0000400e000f1ff320011d9ba00eeff37006d
:0805c0000040da000000fe001b
:020000040000fa
:1005c800520e0000500e00005e0e000004000000f5
:1005d800120e0000100e00001e0e00000e0000009b
:1005e800120e0000100e00001e0e00000800000091
:1005f800120e0000100e00001e0e00000a0000007f
:10060800120e0000100e00001e0e00000300000075
:10061800120e0000100e00001e0e00000100000067
:10062800420e0000400e00004e0e000006000000c2
:10063800620e0000600e00006e0e00000600000052
:10064800420e0000400e00004e0e000002000000a6
:10065800420e0000400e00004e0e00000400000094
:10066800520e0000500e00005e0e00000000000058
:10067800420e0000400e00004e0e00000200000076
:10068800320e0000300e00003e0e00000100000097
:10069800320e0000300e00003e0e00000300000085
:1006a800220e0000200e00002e0e00000e0000009a
:1006b800220e0000200e00002e0e00000d0000008b
:1006c800320e0000300e00003e0e00000000000058
:1006d800320e0000300e00003e0e00000b0000003d
:1006e800320e0000300e00003e0e00000a0000002e
:1006f800320e0000300e00003e0e0000090000001f
:10070800320e0000300e00003e0e0000080000000f
:020000040000fa
:100718000400fa00004f7800110798001e80fb00c3
:100728008000400060042100008040001000780034
:100738009e009000310098000080fa00000006003a
:100748000600fa00404798004e4090000080fb00e9
:100758008000400060042100008040009000780084
:10076800110798001e009000300090000000e00083
:10077800340032001e0090004000900064006000c9
:100788000000e000130032001e00900040009000be
:100798000000d100614060000004a200e140600058
:1007a8001e0090008180fb00e18060008180400095
:1007b800c0019000d2ff2f0002816100828070008a
:1007c800410098009e009000410090000020a10088
:1007d800c00098001e009000400090006200600079
:1007e8000000e000030032001e009000100f7800a7
:1007f800030037001e00900090009000010f780061
:100808001e007800100078009e00780091007800a3
:10081800110178009e007800e14090008180fb0083
:10082800330020008118dd0081006900010878008c
:100838001e009000300090008000e9001e0090002b
:10084800310098000080fa00000006000600fa0057
:100858000000eb00000f7800640037001e007800ed
:1008680080004000600421000080400010007800f3
:1008780090007800110798001e009000100090006a
:100888009e00900091009000110178009e00900059
:10089800e14090008180fb00330020008118dd00da
:1008a8008180ea0081006100010878001e00900044
:1008b800200090009e009000a10090001101780097
:1008c8009e009000e14090008180fb0033002000f2
:1008d8008118dd008180ea0081006100010878004c
:1008e8001e00780080004000600421000080400065
:1008f8001000780090009000110798001e009000ea
:10090800100090009e009000910090001101780066
:100918009e009000e14090008180fb0033002000a1
:100928008118dd008180ea008100610001087800fb
:100938001e009000200090009e009000a1009000f2
:10094800110178009e009000e14090008180fb003a
:10095800330020008118dd008180ea0081006100f9
:10096800010878001e007800800040006004210023
:100978000080400010007800a00090002107980037
:100988002e00900010009000ae00900091009000a2
:1009980011017800ae009000e14090008180fb00da
:1009a800130020008118dd008180ea0081006100c9
:1009b800010878002e00900020009000ae00900002
:1009c800a100900011017800ae009000e140900075
:1009d8008180fb00130020008118dd008180ea007f
:1009e80081006100010878001e0fe8001e007800f1
:1009f800e60f500099ff34000080fa00000006005e
:020000040000fa
:100a0800001000005400000082000000e482ec00a6
:100a1800825483000000000000f48200fc825c0025
:100a28008300000000000400830c8300648300003e
:100a38000000000014831c00836c83000000000089
:100a4800002483002c83740083000000000034001d
:100a5800833c83007c8300000000000044834c003a
:100a68008384830000000000000010000a101400b6
:100a7800101e100028103200103c10008c05800059
:020000040000fa
:100a88000000fa0021e3a80021a3a9002143a8003f
:100a9800001980000080a1000090a10000198800c2
:100aa8002083a900001980000050a0000060a00069
:100ab8000070a000001988002043a80010198000c9
:100ac80000d0a10000e0a10000f0a10010198800ea
:100ad8002343a9001119800030f82f00008060001e
:100ae800101988002223a9002203a9000080fa0017
:100af800000006000000fa0054ff07000080fa001a
:100b0800000006000000fa00faff0700ffff3700a8
:020000040000fa
:040b180000000000d9
:020000040000fa
:0200000401f009
:04000800cfff000026
:020000040000fa
:0200000401f009
:04000c00f8ffff00fa
:020000040000fa
:0200000401f009
:04001000bfffff002f
:020000040000fa
:0200000401f009
:040014005fffff008b
:020000040000fa
:0200000401f009
:04001800ffffff00e7
:020000040000fa
:0200000401f009
:04001c00dfffff0003
:020000040000fa
:0200000401f009
:04002000cfffff000f
:00000001FF
