:020000040000fa
:080000000002040000000000f2
:020000040000fa
:04000800fa020000f8
:020000040000fa
:04000c00fa020000f4
:020000040000fa
:04001000fa020000f0
:020000040000fa
:04001400fa020000ec
:020000040000fa
:04001800fa020000e8
:020000040000fa
:04001c00fa020000e4
:020000040000fa
:04002000fa020000e0
:020000040000fa
:04002400fa020000dc
:020000040000fa
:04002800fa020000d8
:020000040000fa
:04002c00fa020000d4
:020000040000fa
:04003000fa020000d0
:020000040000fa
:04003400fa020000cc
:020000040000fa
:04003800fa020000c8
:020000040000fa
:04003c00fa020000c4
:020000040000fa
:04004000fa020000c0
:020000040000fa
:04004400fa020000bc
:020000040000fa
:04004800fa020000b8
:020000040000fa
:04004c00fa020000b4
:020000040000fa
:04005000fa020000b0
:020000040000fa
:04005400fa020000ac
:020000040000fa
:04005800fa020000a8
:020000040000fa
:04005c00fa020000a4
:020000040000fa
:04006000fa020000a0
:020000040000fa
:04006400fa0200009c
:020000040000fa
:04006800fa02000098
:020000040000fa
:04006c00fa02000094
:020000040000fa
:04007000fa02000090
:020000040000fa
:04007400fa0200008c
:020000040000fa
:04007800fa02000088
:020000040000fa
:04007c00fa02000084
:020000040000fa
:04008000fa02000080
:020000040000fa
:04008400fa0200007c
:020000040000fa
:04008800fa02000078
:020000040000fa
:04008c00fa02000074
:020000040000fa
:04009000fa02000070
:020000040000fa
:04009400fa0200006c
:020000040000fa
:04009800fa02000068
:020000040000fa
:04009c00fa02000064
:020000040000fa
:0400a000fa02000060
:020000040000fa
:0400a400fa0200005c
:020000040000fa
:0400a800fa02000058
:020000040000fa
:0400ac00fa02000054
:020000040000fa
:0400b000fa02000050
:020000040000fa
:0400b400fa0200004c
:020000040000fa
:0400b800fa02000048
:020000040000fa
:0400bc00fa02000044
:020000040000fa
:0400c000fa02000040
:020000040000fa
:0400c400fa0200003c
:020000040000fa
:0400c800fa02000038
:020000040000fa
:0400cc00fa02000034
:020000040000fa
:0400d000fa02000030
:020000040000fa
:0400d400fa0200002c
:020000040000fa
:0400d800fa02000028
:020000040000fa
:0400dc00fa02000024
:020000040000fa
:0400e000fa02000020
:020000040000fa
:0400e400fa0200001c
:020000040000fa
:0400e800fa02000018
:020000040000fa
:0400ec00fa02000014
:020000040000fa
:0400f000fa02000010
:020000040000fa
:0400f400fa0200000c
:020000040000fa
:0400f800fa02000008
:020000040000fa
:0400fc00fa02000004
:020000040000fa
:04010000fa020000ff
:020000040000fa
:04010400fa020000fb
:020000040000fa
:04010800fa020000f7
:020000040000fa
:04010c00fa020000f3
:020000040000fa
:04011000fa020000ef
:020000040000fa
:04011400fa020000eb
:020000040000fa
:04011800fa020000e7
:020000040000fa
:04011c00fa020000e3
:020000040000fa
:04012000fa020000df
:020000040000fa
:04012400fa020000db
:020000040000fa
:04012800fa020000d7
:020000040000fa
:04012c00fa020000d3
:020000040000fa
:04013000fa020000cf
:020000040000fa
:04013400fa020000cb
:020000040000fa
:04013800fa020000c7
:020000040000fa
:04013c00fa020000c3
:020000040000fa
:04014000fa020000bf
:020000040000fa
:04014400fa020000bb
:020000040000fa
:04014800fa020000b7
:020000040000fa
:04014c00fa020000b3
:020000040000fa
:04015000fa020000af
:020000040000fa
:04015400fa020000ab
:020000040000fa
:04015800fa020000a7
:020000040000fa
:04015c00fa020000a3
:020000040000fa
:04016000fa0200009f
:020000040000fa
:04016400fa0200009b
:020000040000fa
:04016800fa02000097
:020000040000fa
:04016c00fa02000093
:020000040000fa
:04017000fa0200008f
:020000040000fa
:04017400fa0200008b
:020000040000fa
:04017800fa02000087
:020000040000fa
:04017c00fa02000083
:020000040000fa
:04018000fa0200007f
:020000040000fa
:04018400fa0200007b
:020000040000fa
:04018800fa02000077
:020000040000fa
:04018c00fa02000073
:020000040000fa
:04019000fa0200006f
:020000040000fa
:04019400fa0200006b
:020000040000fa
:04019800fa02000067
:020000040000fa
:04019c00fa02000063
:020000040000fa
:0401a000fa0200005f
:020000040000fa
:0401a400fa0200005b
:020000040000fa
:0401a800fa02000057
:020000040000fa
:0401ac00fa02000053
:020000040000fa
:0401b000fa0200004f
:020000040000fa
:0401b400fa0200004b
:020000040000fa
:0401b800fa02000047
:020000040000fa
:0401bc00fa02000043
:020000040000fa
:0401c000fa0200003f
:020000040000fa
:0401c400fa0200003b
:020000040000fa
:0401c800fa02000037
:020000040000fa
:0401cc00fa02000033
:020000040000fa
:0401d000fa0200002f
:020000040000fa
:0401d400fa0200002b
:020000040000fa
:0401d800fa02000027
:020000040000fa
:0401dc00fa02000023
:020000040000fa
:0401e000fa0200001f
:020000040000fa
:0401e400fa0200001b
:020000040000fa
:0401e800fa02000017
:020000040000fa
:0401ec00fa02000013
:020000040000fa
:0401f000fa0200000f
:020000040000fa
:0401f400fa0200000b
:020000040000fa
:0401f800fa02000007
:020000040000fa
:0401fc00fa02000003
:020000040000fa
:04020000fa020000fe
:020000040000fa
:04020400fa020000fa
:020000040000fa
:04020800fa020000f6
:020000040000fa
:04020c00fa020000f2
:020000040000fa
:04021000fa020000ee
:020000040000fa
:04021400fa020000ea
:020000040000fa
:04021800fa020000e6
:020000040000fa
:04021c00fa020000e2
:020000040000fa
:04022000fa020000de
:020000040000fa
:04022400fa020000da
:020000040000fa
:04022800fa020000d6
:020000040000fa
:04022c00fa020000d2
:020000040000fa
:04023000fa020000ce
:020000040000fa
:04023400fa020000ca
:020000040000fa
:04023800fa020000c6
:020000040000fa
:04023c00fa020000c2
:020000040000fa
:04024000fa020000be
:020000040000fa
:04024400fa020000ba
:020000040000fa
:04024800fa020000b6
:020000040000fa
:04024c00fa020000b2
:020000040000fa
:04025000fa020000ae
:020000040000fa
:04025400fa020000aa
:020000040000fa
:04025800fa020000a6
:020000040000fa
:04025c00fa020000a2
:020000040000fa
:04026000fa0200009e
:020000040000fa
:04026400fa0200009a
:020000040000fa
:100400006f0021000eff26000e0188000000000092
:10041000000020000000e000020032000001200087
:100420002002880014000700420107000000e000dd
:1004300003003a00c04920000100200002003700fc
:100440000000200001002000810f70000100320038
:100450000f000700000020000000e0000200320052
:1004600000000200000000006a0702000000000017
:100470000040da000000fe00004020000000e00024
:1004800002003200002020009001880000000600d9
:10049000a1028800800478000000eb001f003700f4
:1004a000e284440054a0b4009905ba00e2844400f8
:1004b00054a0b4009906ba00e284440054a0b400e9
:1004c0000006eb00476fde00fd07b200ae018800ba
:1004d000636ce10003003a000ad801000000eb0061
:1004e0000e003700606ce10008003a00004deb00a0
:1004f0000a05e800020039003420ec000af0a000f0
:100500008b05e900f9ff3e00040037006168e10057
:10051000010032000086eb000b00070019c7ba008b
:100520001905ba000e04e00003003a000a00e000da
:10053000dbff3a0000000600fe07b200ae028800b2
:100540008a047800f5ff37000cd0a300e20f4d00bd
:100550001c00390089027800354dba000a05e80010
:10056000020039003420ec000af0a0008b05e900fd
:100570000f003200254dba000a05e80002003900dc
:100580003420ec000af0a0008b05e90008003200de
:100590000c00e0000600320015cdba000a05e800a4
:1005a000020039003420ec000af0a0008b05e900bd
:1005b0008984e80054a0b4000b00e000e2ff3a0098
:1005c000000006009902ba00055d78008b05e9007d
:1005d000f7ff3200c82ade00055d78008b05e900d0
:1005e000f3ff32000c00e000f1ff320019ddba0029
:1005f000eeff37000040da000000fe003200f80095
:1006000001c0fe004600f8005000f8000220200063
:100610003202880002002800130020008019dd004b
:1006200002817100820288000100780001017800d7
:1006300026002000470020008301e9000380080015
:10064000070000000110e100040034001102be00a8
:1006500092087800e2307b000489be008780400069
:10066000121978005000f9004600f9003200f90034
:10067000000006003200f80001c0fe00821f780072
:10068000849fbe008a1f78004400f800040f2000f9
:1006900024028800010578000601c3000080e900fb
:1006a0000080080003000000000000000505f000c5
:1006b0000401f1003200cd000505f0001001f10049
:1006c0003200cd004400f9004f0578004f02be0013
:1006d0004f0078003200f90000000600889fbe003d
:1006e0008a9fbe008c9fbe008e1f78004400f800d9
:1006f000070f2000270288003200f800811f7800d1
:100700000f07780007f02f000338e100480032009f
:1007100003d0fe00040180000df0830005002500d9
:1007200019002000804cdd008904d0000f854400b2
:100730000800310005055500060031008d84440095
:10074000040031008f84440002003100848654008c
:100750003000390019002000804cdd00130020001b
:1007600002047800800678008904d100424edd0042
:10077000010578000302e900048008002000000061
:10078000000000008a0546004218dd000902e90069
:100790000480080018000000000000004620c3008c
:1007a0003200f80001c0fe00000000003b025200d1
:1007b0003200f900df35c100080440001381c20097
:1007c0003200f80001c0fe0000000000ab825200c1
:1007d000264dc5003e85c400bb00cd00bb80cd00ca
:1007e0003a00ca002a80ca003200f9000700c90096
:1007f0000580c900ba00cd00ba80cd000a054600c8
:10080000020478008301d0008d06e900d6ff3c0089
:100810002f00370019002000804cdd000f04780005
:100820008906e9000d800900b21f780008017800f0
:1008300001c0fe0019002000804cdd0013002000e4
:1008400002047800800678008904d100424edd0061
:10085000010578000302e900048008001800000088
:10086000000000008a0546004218dd000902e90088
:100870000480080010000000000000004620c300b3
:100880003b025200df35c100080440001381c20062
:10089000ab825200264dc5003e85c400bb00cd0092
:1008a000bb80cd003a00ca002a80ca000700c900f8
:1008b0000580c900ba00cd00ba80cd000a05460007
:1008c000020478008301d0008d06e900deff3c00c1
:1008d0008e0778004f0078003200f9004400f900dc
:1008e0004f0778004f06be004f05be004f04be0004
:1008f000000006003200f80001c0fe00b1027800de
:100900000009eb000002e90007003400b1017800a3
:100910000328e10002003c00830278000409500033
:100920000402e900f9ff3c00050078003200f900fc
:080930000000060000000500b4
:020000040000fa
:10093800007800000004000082000000ff7fff0034
:100948007fff7f00ff7fff007f01800001800100a3
:10095800800180000180ff007fff7f00ff7fff0094
:100968007fff7f000180010080018000018001007d
:1009780080ff7f00ff7fff007fff7f00ff7f010078
:10098800800180000180010080018000ff7fff005e
:100998007fff7f00ff7fff007f0180000180010053
:1009a800800180000180ff007fff7f00ff7fff0044
:1009b8007fff7f000180010080018000018001002d
:1009c80080ff7f00ff7fff007fff7f00ff7f010028
:1009d800800180000180010080018000ff7fff000e
:1009e8007fff7f00ff7fff007f0180000180010003
:1009f800800180000180ff007fff7f00ff7fff00f4
:100a08007fff7f00018001008001800001800100dc
:100a180080ff7f00ff7fff007fff7f00ff7f0100d7
:100a2800800180000180010080018000ff7fff00bd
:100a38007fff7f00ff7fff007f01800001800100b2
:100a4800800180000180ff007fff7f00ff7fff00a3
:100a58007fff7f000180010080018000018001008c
:100a680080ff7f00ff7fff007fff7f00ff7f010087
:100a7800800180000180010080018000ff7fff006d
:100a88007fff7f00ff7fff007f0180000180010062
:100a9800800180000180ff007fff7f00ff7fff0053
:100aa8007fff7f000180010080018000018001003c
:100ab80080ff7f00ff7fff007fff7f00ff7f010037
:100ac800800180000180010080018000ff7fff001d
:100ad8007fff7f00ff7fff007f0180000180010012
:100ae800800180000180ff007fff7f00ff7fff0003
:100af8007fff7f00018001008001800001800100ec
:100b080080ff7f00ff7fff007fff7f00ff7f0100e6
:100b1800800180000180010080018000ff7fff00cc
:100b28007fff7f00ff7fff007f01800001800100c1
:100b3800800180000180ff007fff7f00ff7fff00b2
:100b48007fff7f000180010080018000018001009b
:100b580080ff7f00ff7fff007fff7f00ff7f010096
:100b6800800180000180010080018000ff7fff007c
:100b78007fff7f00ff7fff007f0180000180010071
:100b8800800180000180ff007fff7f00ff7fff0062
:100b98007fff7f000180010080018000018001004b
:100ba80080ff7f00ff7fff007fff7f00ff7f010046
:100bb800800180000180010080018000ff7fff002c
:100bc8007fff7f00ff7fff007f0180000180010021
:100bd800800180000180ff007fff7f00ff7fff0012
:100be8007fff7f000180000000000000000000007f
:100bf80000000000000000000000000000000000ed
:100c080000000000000000000000000000000000dc
:100c180000000000000000000000000000000000cc
:100c280000000000000000000000000000000000bc
:100e98000000000000700000000800008000000052
:100ea800007c00000002000080000000001000002c
:100eb8000600000080000000007e00000200000024
:0c0ec80082000000000400000000000098
:020000040000fa
:100ed400e17f270000002700e3bf27000001eb00ab
:100ee4005188d1001200980064004000838f5000a4
:100ef400fbff3a00032020000280280001002700a5
:100f040090002000f4fd070001002700900020005d
:100f1400b9fd070002c027000100270000102000cf
:100f2400d3fd07000200210001c0270000102000ab
:100f34006ffe070000808000f300b900cf80de0060
:100f44001080880021808800ffff370000f08b00ac
:040f54000000060093
:020000040000fa
:10100000ff7f000000000000fe7f00006efe000079
:10101000f67f0000dcfc0000ea7f00004afb0000d5
:10102000d97f0000b8f90000c27f000027f8000057
:10103000a77f000095f60000877f000005f50000ff
:10104000627f000074f30000387f0000e4f10000cc
:101050000a7f000055f00000d67e0000c6ee0000ba
:101060009d7e000038ed0000607e0000abeb0000cc
:101070001e7e00001eea0000d67d000092e80000ff
:101080008a7d000007e700003a7d00007de5000052
:10109000e47c0000f4e30000897c00006de20000c5
:1010a0002a7c0000e6e00000c67b000061df000053
:1010b0005d7b0000dcdd0000ef7a000059dc000001
:1010c0007d7a0000d8da0000067a000058d90000c6
:1010d0008a790000d9d700000a7900005cd60000a8
:1010e00085780000e1d40000fb77000067d30000a2
:1010f0006c770000efd10000d976000079d00000b5
:101100004276000004cf0000a675000092cd0000da
:101110000575000021cc000060740000b2ca000018
:10112000b673000046c9000008730000dbc700006a
:101130005572000073c600009e7100000dc50000ce
:10114000e3700000a9c300002370000048c2000043
:101150005f6f0000e9c00000976e00008cbf0000c8
:10116000ca6d000032be0000f96c0000dabc00005d
:10117000246c000085bb00004b6b000033ba0000fc
:101180006e6a0000e3b800008c69000096b70000aa
:10119000a76800004cb60000bd67000005b5000060
:1011a000d0660000c0b30000de6500007fb2000022
:1011b000e964000040b10000ef63000005b00000ea
:1011c000f2620000ccae0000f161000097ad0000bb
:1011d000ec60000065ac0000e45f000036ab00008e
:1011e000d85e00000aaa0000c85d0000e2a8000066
:1011f000b45c0000bda700009d5b00009ca6000041
:10120000835a00007ea500006459000063a400001a
:10121000435800004ca300001e57000038a20000f5
:10122000f655000028a10000ca5400001ca00000d0
:101230009b530000149f0000695200000f9e0000a5
:10124000345100000e9d0000fb4f0000119c000077
:10125000c04e0000179b0000814d0000229a000044
:10126000404c000030990000fb4a00004398000009
:10127000b4490000599700006a48000074960000c5
:101280001d47000092950000cd450000b594000078
:101290007b440000dc93000026430000079300001d
:1012a000ce410000369200007440000069910000b9
:1012b000173f0000a1900000b83d0000dd8f000046
:1012c000573c00001d8f0000f33a0000628e0000c2
:1012d0008d390000ab8d000025380000f88c00002f
:1012e000ba3600004a8c00004e350000a08b00008a
:1012f000df330000fb8a00006e3200005a8a0000d3
:10130000fc300000be890000872f00002789000004
:10131000112e000094880000992c00000588000020
:101320001f2b00007b870000a4290000f686000028
:101330002728000076860000a8260000fa85000015
:101340002825000083850000a723000011850000e8
:1013500024220000a38400009f2000003a840000a3
:101360001a1f0000d6830000931d00007783000041
:101370000c1c00001c830000831a0000c6820000c1
:10138000f9180000768200006e1700002a82000023
:10139000e2150000e281000055140000a081000069
:1013a000c8120000638100003a1100002a81000089
:1013b000ab0f0000f68000001c0e0000c88000008b
:1013c0008c0c00009e800000fb0a00007980000069
:1013d0006b09000059800000d90700003e80000022
:1013e0004806000027800000b604000016800000b8
:1013f000240300000a800000920100000280000027
:1014000000000000008000006efe0000028000006e
:10141000dcfc00000a8000004afb0000168000008f
:10142000b8f900002780000027f800003e80000087
:1014300095f600005980000005f500007980000055
:1014400074f300009e800000e4f10000c8800000fa
:1014500055f00000f6800000c6ee00002a81000072
:1014600038ed000063810000abeb0000a0810000bc
:101470001eea0000e281000092e800002a820000db
:1014800007e70000768200007de50000c6820000cc
:10149000f4e300001c8300006de20000778300008d
:1014a000e6e00000d683000061df00003a8400001f
:1014b000dcdd0000a384000059dc00001185000081
:1014c000d8da00008385000058d90000fa850000b2
:1014d000d9d70000768600005cd60000f6860000b2
:1014e000e1d400007b87000067d30000058800007e
:1014f000efd100009488000079d000002789000017
:1015000004cf0000be89000092cd00005a8a00007e
:1015100021cc0000fb8a0000b2ca0000a08b0000b2
:1015200046c900004a8c0000dbc70000f88c0000b0
:1015300073c60000ab8d00000dc50000628e000078
:10154000a9c300001d8f000048c20000dd8f00000d
:10155000e9c00000a19000008cbf0000699100006c
:1015600032be000036920000dabc00000793000093
:1015700085bb0000dc93000033ba0000b594000086
:10158000e3b800009295000096b700007496000042
:101590004cb600005997000005b5000043980000c4
:1015a000c0b30000309900007fb20000229a000012
:1015b00040b10000179b000005b00000119c000026
:1015c000ccae00000e9d000097ad00000f9e000005
:1015d00065ac0000149f000036ab00001ca00000aa
:1015e0000aaa000028a10000e2a8000038a200001a
:1015f000bda700004ca300009ca6000063a400004f
:101600007da500007da5000063a400009ca600004d
:101610004ca30000bda7000038a20000e2a8000013
:1016200028a100000aaa00001ca0000036ab0000a0
:10163000149f000065ac00000f9e000097ad0000f5
:101640000e9d0000ccae0000119c000005b0000013
:10165000179b000040b10000229a00007fb20000fa
:1016600030990000c0b300004398000004b50000aa
:10167000599700004cb600007496000096b7000021
:1016800092950000e3b80000b594000033ba000062
:10169000dc93000085bb000007930000dabc00006b
:1016a0003692000032be0000699100008cbf00003d
:1016b000a1900000e9c00000dd8f000048c20000da
:1016c0001d8f0000a9c30000628e00000dc5000040
:1016d000ab8d000073c60000f88c0000dbc7000073
:1016e0004a8c000046c90000a08b0000b2ca00006e
:1016f000fb8a000021cc00005a8a000092cd000035
:10170000be89000004cf00002789000079d00000c6
:1017100094880000efd100000588000067d3000026
:101720007b870000e1d40000f68600005cd6000054
:1017300076860000d9d70000fa85000058d900004d
:1017400083850000d8da00001085000059dc000015
:10175000a3840000dcdd00003a84000061df0000ab
:10176000d6830000e6e00000778300006de2000011
:101770001c830000f4e30000c68200007de5000049
:101780007582000007e700002982000092e800004f
:10179000e28100001eea0000a0810000abeb000027
:1017a0006381000038ed00002a810000c6ee0000d1
:1017b000f680000055f00000c8800000e4f1000051
:1017c0009e80000074f300007980000005f50000a1
:1017d0005980000095f600003e80000027f80000c8
:1017e00027800000b8f90000168000004afb0000c6
:1017f0000a800000dcfc0000028000006efe000099
:00000001FF
